:10000000E1C000000C94D025FAC000000C949526A5
:10001000F6C00000F4C00000F2C00000F0C0000014
:10002000EEC00000ECC00000EAC00000E8C0000024
:10003000E6C00000E4C000000C94F328E0C000001B
:10004000DEC00000DCC00000DAC00000D8C0000044
:10005000D6C00000D4C00000D2C00000D0C0000054
:10006000CEC00000CCC0000008000000BE922449B1
:10007000123EABAAAA2ABECDCCCC4C3E00000080DA
:10008000BEABAAAAAA3E00000000BF000000803F4D
:100090000000000000084178D3BB4387D1133D190D
:1000A0000E3CC3BD4282AD2B3E68EC8276BED98F3A
:1000B000E1A93E4C80EFFFBE01C4FF7F3F0000007E
:1000C000000000000A01630702030803F30504D4DB
:1000D0000805E207074E0506A7070CDE04FF360BEE
:1000E000AA0000016364000000000000016368646E
:1000F0006972000000026D64000000000000026DE3
:100100006B6469720000000364656C00000000000D
:100110000364656C657465000003726D6469720048
:10012000000004726E0000000000000472656E6141
:100130006D650000046D76000000000000046D6F26
:1001400076650000000005637000000000000005F7
:10015000636F707900000000067077640000000093
:10016000000000000000000000004641543332004F
:1001700001030507090E10121416181C1E302E3923
:100180002E332E34205B4845585449725D0001647B
:1001900065000000000000016465760000000000BA
:1001A0000273740000000000000273746F72650037
:1001B0000000000000000000000000FF1B25FE3CC6
:1001C00023AA000011241FBECFEFD8E0DEBFCDBFB1
:1001D00011E0A0E0B1E0EAE9FCE502C005900D9273
:1001E000A432B107D9F726E0A4E2B1E001C01D9224
:1001F000A933B207E1F70E9439250C944B2E00CFAA
:1002000028E039E040E8880F660F08F4842787FB70
:100210000EF483272A95B9F78F770895EF92FF920E
:100220001F93CF93DF93DC01FB01EF017D019D91D3
:100230001191911105C0111107C081E090E01FC01C
:100240009F3329F41111F1CF90E080E018C091178D
:1002500061F39A32C9F7BE01C7010196DFDF00974B
:1002600061F7112361F0BE016F5F7F4FC701D6DFD9
:1002700031E020E0892B09F430E0832F922FDF91C9
:10028000CF911F91FF90EF9008950F931F93CF93FD
:10029000DF93EC01FC0101900020E9F73197E81BA6
:1002A000F90B05E010E00E1B1F0B1016110674F47D
:1002B000AF014F5F5F4FBC01800F911F0E94A52DC2
:1002C000A80160E270E0CE010E94B62DCE01DF9160
:1002D000CF911F910F910895B0E0A0E0E2E7F1E027
:1002E0000C9498296B017C01EA01C114D104E1044A
:1002F000F10479F00E94712A0E94FF2A0E94452A87
:100300006F5F7F4F8F4F9F4F66307105810591055D
:1003100070F42AE0AE01C701B6010E94D82DCE01CB
:10032000B4DFCE01CDB7DEB7ECE00C94B4294601C2
:1003300057018AE0B694A794979487948A95D1F749
:10034000092C000CAA08BB0861E070E080E090E096
:1003500081149104A104B10461F0C501B4010E94AB
:10036000712A0E94FF2A0E94452A6F5F7F4F8F4F9C
:100370009F4F6E5F7F4F8F4F9F4F66307105810596
:10038000910550F52AE0AE01C501B4010E94D82DB7
:10039000FE0101900020E9F731978F010C1B1D0B26
:1003A0008EE280830F5F1F4F0C0F1D1FC701B60128
:1003B0007370882799270E94712A2DEC3CEC4CEC35
:1003C00052E40E94D8290E94402A072E000C880B74
:1003D000990B2AE0A801A1CF45E050E06FE370E05F
:1003E000CE010E94B62D1D829CCF0F931F93CF93F9
:1003F000DF9321E2289FE001299FD00D112424964C
:100400000DE011E0F80180810E942522F801818130
:100410000E9425228C2F0E9425228D2F0E942522AA
:10042000DF91CF911F910F910895CF93DF93C6E095
:10043000D1E089910E94252281E0CD30D807C9F70B
:10044000DF91CF910895A6E0B0E0E9E2F2E00C94EC
:100450009A296C01CB01BA01F22E132FAE014F5F26
:100460005F4F3ADF5C01C6010E9459228FE10E9472
:10047000252280EA0E9425228AEC0E9425228AE118
:100480000E942522650185E0A80EB11CF60181912C
:100490006F010E942522CA14DB04C1F780E20E948A
:1004A000252282E20E942522CF2CD12E10E00117B6
:1004B00041F0F60181916F010E9425221F5F1131E9
:1004C000B1F782E20E942522113151F48E2D0E9453
:1004D000252280E00E9425222696EAE00C94B62987
:1004E00080E20E9425221F5FEFCFA6E0B0E0EBE79D
:1004F000F2E00C9498295C01CB01BA01922EF32E04
:10050000AE014F5F5F4FE8DE6C01FC0101900020FF
:10051000E9F73197E81BF90B10E0C80105968E0F3B
:100520009F1F0E94592282E20E942522812C882D41
:1005300090E0F60101900020E9F73197EC19FD09F0
:100540008E179F07E8F082E20E9425228CE20E942B
:100550002522C92CDF2C0C0D1D1DC016D106C1F49F
:100560008CE20E9425228E2D0E942522F501808199
:1005700091810197918380832696ECE00C94B429B5
:100580008C0D9D1DFC0180810E9425228394CFCF7C
:10059000F60181916F010E942522DFCF0F931F93F7
:1005A000CF93DF93EC018B0161E171E00E94BD2DDF
:1005B000892B91F060E171E0CE010E94BD2D892B65
:1005C00059F00115110531F0BE01C80127DE21E007
:1005D000892B19F020E001C021E0822FDF91CF911B
:1005E0001F910F910895A1E4B0E0E9EFF2E00C94BF
:1005F0009E297A019E01235E3F4F3C8F2B8FAB01DA
:10060000BE016E5C7F4F0E94721D10E000E08823E7
:1006100031F0C801CF5BDF4FE6E00C94BA29BE0190
:100620006F5F7F4FCE01C2960E94C61D8111F1CF30
:100630008E85882371F38B8D9C8DFC012081211187
:1006400002C0CE010E96B701A9DF8111E8CF0F5F7E
:100650001F4FE5CFA1E3B0E0E0E3F3E00C94922973
:100660005C013E018DE1680E711C7C8E6B8EF50184
:1006700027A530A941E2429FC001439F900D11245C
:100680000B960E945922F50187A590A9AEDE882419
:100690008394912C45E1F42E1501FEE12F0E311CBF
:1006A000F50187A590A98815990550F4BEDE80E074
:1006B0000E9425220E94F421E196E2E10C94AE29E9
:1006C000F3018F2D11928A95E9F7BE016F5F7F4F7D
:1006D000C1010E94C61D8111E9CF8E85882331F3A7
:1006E000CB8CDC8CF6018081811103C0CE010E968B
:1006F0006C01898594E4E92E84FD06C026E4E22E8F
:1007000083FF02C086E5E82EF60101900020E9F79C
:1007100031978F010C191D09F50161A972A9C60154
:100720003DDF8111BDCF2401FFEF4F1A5F0A4981E0
:100730005A816B817C819601C40185DE4201B0CF74
:10074000A1E3B0E0E6EAF3E00C9493295C017E01BA
:100750008DE1E80EF11CFC8EEB8E85E1382E450113
:100760009EE1890E911CF701832D11928A95E9F77C
:10077000BE016F5F7F4FC4010E94C61D811136C04C
:10078000CB8CDC8CF6018081811103C0CE010E96EA
:100790006C01F60101900020E9F731970E2F0C193A
:1007A000898514E484FD03C016E483FD16E54980C1
:1007B0005A806B807C80F60180818823C9F0F50126
:1007C00061A972A9C601EADE8111CDCFE12E9601A1
:1007D000B301A201C5018F9688DE80E00E94252228
:1007E0000E94F421E196E1E10C94AF29823031F4CA
:1007F00090E080E00E94592287E0F0CF90E080E016
:100800000E94592286E0EACF8F929F92BF92CF92A8
:10081000DF92EF92FF920F931F93CF93DF9300D05D
:100820001F92CDB7DEB78C01B62EF90146FF70C01E
:10083000009709F4A3C0DC019E968C919E9780617D
:100840009E968C93D9011196BA83A98381818111D7
:1008500003C08AE281831282FD0101900020E9F742
:100860003197EA1BFB0BEB83BE016D5F7F4FCE011F
:1008700001960E947323E980FA806FE270E0C7015D
:100880000E94CD2D4C01FC0101900020E9F7319729
:10089000E81BF90B329708F43FC001960E94772DB0
:1008A0006C01F4011182F70101900020E9F7319702
:1008B000EE19FF09E230F10538F03197EE0DFF1D1A
:1008C00080818F3209F41082A601B70180E393E0A2
:1008D0008ADEF80190AB87A7C114D10411F0D2AA27
:1008E000C1AAB11024C021E2289F6001299FD00C29
:1008F0001124FBE0CF0ED11CB801625E7F4FA7012F
:1009000080E393E00E94721D8823A9F08F30C1F527
:1009100084E10E94792223C0D12CC12C892B19F6A5
:10092000C7010E94772D6C01D7011C92BCCF8EE1CC
:10093000C82ED12CE1CF0E94DF21811110C084E0AC
:1009400090E00E945922C6010E94592290E080E066
:100950000E94592280E00E9425220E94F4210F90DB
:100960000F900F90DF91CF911F910F91FF90EF901B
:10097000DF90CF90BF909F908F90089581E2C9CF74
:1009800083E0C7CFEBE5F3E030E020E090819923EE
:1009900061F09181981309C045E3429FC001439FD4
:1009A000900D1124835A9C4F08952F5F3F4FF59669
:1009B0002830310559F790E080E00895A2E0B0E0DA
:1009C000E4EEF4E00C949B298C01FC018281DADFD7
:1009D0006C01F801E780F084892B09F456C0C70147
:1009E000B0E0A0E0F60140855185628573851CE08A
:1009F00084179507A607B70709F410E0E114F1047E
:100A000009F448C0112369F080912401811101C0CB
:100A100016E0612FC7010E9418232296E9E00C948A
:100A2000B729BE2C0F2DF0E8EF16F10418F08FE770
:100A3000B82E00E06B2D702F89E095E00E94FE2219
:100A4000182F81111DC09E012F5F3F4F4B2D502F3E
:100A500068E875E0C6010E94441916E0803128F468
:100A6000E82FF0E0ED5EFE4F108149815A8169E088
:100A700075E088E895E00E948F2D892B09F018E138
:100A800089819A81E81AF90AB9CF10E0E114F104DA
:100A900009F0BACF812F0E947922BFCF0F931F9305
:100AA000CF938C01FC01828181111EC0C091250170
:100AB000C111C0E1C360F80185819681892B89F15C
:100AC0000E94DF2181110CC081E090E00E94592238
:100AD0008C2F0E94252280E00E9425220E94F42172
:100AE000CF911F910F9108954DDFFC01C7E4892B31
:100AF00011F386A584FD0FC04481558166817781FD
:100B000080859185A285B385481759076A077B07B9
:100B100031F4C3EDD0CF87A590A9892BD1F3C3E5DC
:100B2000CACF8CE00E947922DBCFA3E0B0E0EBE9F2
:100B3000F5E00C9498297C01FC0184809580A680C6
:100B4000B78086A59E012F5F3F4F41E050E0BE0178
:100B50006D5F7F4F83FF36C0C7010E94441910E0CC
:100B600000E0D12CCC24C394811109C089819A81E1
:100B7000019729F48B818A3081F4D11012C0B5011C
:100B8000A401C7010E94F91B882311F010E000E0C6
:100B9000C8012396ECE00C94B4298D3011F4DD20CB
:100BA00029F00F5F1F4F823209F4DC249E012F5F72
:100BB0003F4F41E050E0BE016D5F7F4FC7010E9493
:100BC0004419D2CFC7010E944419182FB501A401BE
:100BD000C7010E94F91B8B8190E001961123C9F295
:100BE00090E080E0D6CFA3E0B0E0E9EFF5E00C9430
:100BF0009A295C01FC01F280FFEFFF1621F0809141
:100C00000F01F81206C00E94EA242396EAE00C9431
:100C1000B6298F2DB7DE8C01009709F4CAC0FC01FC
:100C200086A584FF07C0C801F11002C013DDEDCF17
:100C300087DDEBCF85FF11C0F501258136818381EA
:100C40009481289FA001299F500D389F500D112499
:100C500070E060E0C8010E94F91BF80144815581F1
:100C60006681778180859185A285B3856A017B0144
:100C7000EE24FF24C816D906EA06FB0638F090E0F9
:100C800080E00E94592227E0D22E8AC07C01E41A1B
:100C9000F50AF5018281E114F10409F495C0882375
:100CA00009F494C08E3F09F497C0F80186A585FF2A
:100CB00002C083FF8BC0C80138DF7C018AC09E015F
:100CC0002F5F3F4F41E050E069E075E0C8010E94AE
:100CD0004419C82E80E0CC2009F45DC029813A81F6
:100CE000E21AF30AD82EE114F10409F456C0D11027
:100CF00057C0CC2021F3FFE0FC1508F457C0EC2DC1
:100D0000F0E0ED5EFE4FD080D1104AC0F80186A51C
:100D100083FF46C09E012F5F3F4F41E050E0BE0180
:100D20006D5F7F4FC8010E9444198B818D3059F44B
:100D30009E012F5F3F4F41E050E0BE016D5F7F4F4E
:100D4000C8010E944419F80186A585FF29C0F50154
:100D500083819481019625813681829FA001839FA2
:100D6000500D929F500D112470E060E0C8010E9468
:100D7000F91B16C0275F3A4FF90180810E94252296
:100D8000811180E1D3942D2D30E049815A812417BF
:100D9000350780F3A3CFD12CF6CFDD2009F4ABCFFC
:100DA0008D2D0E9425220E94F4212FCF96E0D92E6E
:100DB000F7CF90E080E00E9459228091240188239F
:100DC000A9F383E0D82EECCF81110DC0F501E580A9
:100DD000F680E114F10439F0F501858196818E15D4
:100DE0009F0508F47C01F8012481358140855185F7
:100DF00062857385C9018E0D9F1DB0E0A0E0841748
:100E00009507A607B70718F07A01E21AF30AC70197
:100E10000E94592230E1D32E811101C0D12CC12C66
:100E200062CF1F93CF93DF93182FCBE5D3E0888158
:100E3000882389F0898181130EC018828BA99CA90F
:100E4000009711F00E94E12C809125018150809340
:100E500025010E940C25E59685E0C330D80739F7B7
:100E6000DF91CF911F910895CF93DF93EBE5F3E0EE
:100E700030E020E0908191111DC095E3929FE00148
:100E8000939FD00D1124FE01E55AFC4F91E0908311
:100E9000818314AA13AA10AA809125018F5F8093E1
:100EA000250181E00E940C25CE01835A9C4FDF91E1
:100EB000CF9108952F5F3F4FF59628303105D1F639
:100EC00090E080E0F4CF0F931F93CF938C01FC014F
:100ED000828190910F01891711F08F3F49F40E9490
:100EE000E7248FEF80930F01CF911F910F91089509
:100EF00049DD0097A9F0FC0126A5C0E024FD03C050
:100F00000E94EE1BC82FF80182818BDFC03160F494
:100F1000EC2FF0E0ED5EFE4F80810E947922E4CF5D
:100F200080912401811102C086E0F7CF84E0F5CFE3
:100F30008091240181110AC060E373E081E00E9486
:100F40000718811103C081E0809324010895A3E074
:100F5000B0E0EDEAF7E00C94A0298C01E9DFF8019C
:100F6000878190858F3F910541F038F06FE10E94B5
:100F700018232396E4E00C94BC298B83BC0189E000
:100F800095E00E94FE22811118C089E095E09A83C5
:100F90008983BE016D5F7F4FCE0101960E9473234E
:100FA00069817A8180E393E00E94721E803140F46F
:100FB000E82FF0E0ED5EFE4F80810E947922D9CFCC
:100FC00086E0FBCFCF93DF93EC01B2DF8091250168
:100FD000882399F08A81D6DC009789F0FC0126A548
:100FE00024FD0FC040E050E0BA010E94F91B80E0F0
:100FF0000E947922DF91CF91089584E0F9CF86E0B5
:10100000F7CF8DE0F5CFEF92FF921F93CF93DF9351
:10101000EC018EDF8A81B6DC7C0114E0009739F0A8
:101020000E94EE1B803160F016E08A81FADE812F8B
:101030000E947922DF91CF911F91FF90EF90089548
:10104000E82FF0E0ED5EFE4F10811111EECFF701B9
:1010500061A972A980E393E00E94721E803120F79B
:10106000E82FF0E0ED5EFE4F1081DFCFADE0B0E0A5
:10107000ECE3F8E00C94A1299E838D836A878D812F
:101080009E819C878B878A858D879E01265F3F4F37
:10109000AE014B5F5F4FBE01635F7F4FCE010B968A
:1010A0000E9434248D852B853C853C832B83898746
:1010B000BE01675F7F4FCE0103960E947323AE018E
:1010C000475F5F4FBE016D5F7F4F83EE90E00E94F0
:1010D000A323182F882371F0BE01675F7F4FCE01D5
:1010E00003960E9473236B817C81123021F180F47E
:1010F0001130C9F048E055E069858B819C810E94E0
:101100006B24882309F44CC02D96E3E00C94BD2990
:101110001330B1F0143071F71886998588858917D6
:10112000A0F081E0F1CF80E393E00E948E2088233D
:10113000B9F186E0E9CF80E393E00E94471FF7CF43
:1011400080E393E00E94721EF2CF282F30E0FB0173
:10115000E20FF31F40814D3301F52F5F3F4F620FC8
:10116000731F7A8369839150981B9F83BE01685FC8
:101170007F4FCE0103960E947323BE01695F7F4FAC
:10118000CE0101960E94732349815A816B817C8133
:1011900080E393E00E94D920CACF8F5F8887BECFBB
:1011A0008A8581116CCFB0CFA2E0B0E0EAEDF8E023
:1011B0000C9495295C01DC011796CD90DC90189772
:1011C00012968C9190910F01891711F08F3F69F45D
:1011D000C6010E94DB248111BBC0F501678189E053
:1011E00095E044DF0E947922B3C0CCDB7C0112E0A1
:1011F0000097F1F1DC019E968C919E9710E085FF9F
:1012000037C018964D915D916D917C911B97D501DA
:101210001596ED91FC91169713962D913C91E29FB6
:10122000C001E39F900DF29F900D1124B0E0A0E06B
:10123000481759076A077B0780F5C7010E94F91B09
:10124000182F10920905F70180849184D501159615
:101250004D915C91169713962D913C91429FC00140
:10126000439F900D529F900D11248816990630F0DF
:1012700055245394912C812C00E059C09E012F5F7E
:101280003F4F41E050E069E075E0C7010E94491A14
:10129000182FFFEF8F1A9F0AD9CFAC01BD01C701EC
:1012A0000E94F91B182FE4CF3601BFEFCB16D104F3
:1012B00021F018F066246A94712CB30189E095E05E
:1012C0000E94FE22082FF5018281811119C0F1E0F0
:1012D0005F1216C08091090590910A058F7D512CEF
:1012E00088248394912C803823E0920749F031E0E0
:1012F00020E08F30914009F030E0832E922E512C67
:10130000E114F10491F0011110C09E012F5F3F4FD5
:10131000A30169E075E0C7010E94491A182F89816D
:101320009A818615970509F016E0C618D708C114EA
:10133000D10409F1011103C0112309F4B5CF809143
:101340002401811101C006E0602FC6010E9418230C
:101350002296EFE00C94B1299E012F5F3F4F41E0B0
:1013600050E069E075E0C7010E94491A182FFFEFAD
:10137000CF1ADF0A2FC0E114F104A1F1D7019E9624
:101380008C9183FF1BC081149104C1F48DE0809384
:1013900009058AE080930A059E012F5F3F4F42E0D6
:1013A00050E069E075E0C7010E94491A182F898151
:1013B0009A8122E0C22ED12C029701F5F70186A571
:1013C00085FF10C010920905F5018781908501966F
:1013D000C80ED91ED50115968D919C918C159D0531
:1013E00008F0BACF011108C006E0103128F4E12F4F
:1013F000F0E0ED5EFE4F0081802FF4CE0CE0DECFFA
:10140000AF92BF92DF92EF92FF920F931F93CF9311
:10141000DF9300D000D000D0CDB7DEB77C011C82B6
:101420001B821E8285DDD70112968C9168E08F3F6A
:1014300009F06FE19E012A5F3F4FAE014D5F5F4FA4
:10144000C7010E944123182F811131C0F701878104
:1014500083508D838CE095E09A838983BE016B5F16
:101460007F4FCE0101960E947323E981FA8190811A
:10147000D70112968C91992311F08F3F79F48093C4
:101480000F018081882321F06D81CF01EFDD182FBE
:10149000612F8FEF90E00E94622409C09432B9F46A
:1014A000E3DC29813A814E81F7016281ADD926962C
:1014B0000FB6F894DEBF0FBECDBFDF91CF911F9165
:1014C0000F91FF90EF90DF90BF90AF9008959E81B5
:1014D000907C3AE0D32E903851F043E1D42E903CEA
:1014E00031F052E1D52E992311F0DD24D39490915F
:1014F0002401992309F45CC0B7DC8C01A980BA806F
:10150000C5010E94772DD801D2969C938E93D197D6
:101510000115110509F44CC02D2DA501B80180E37A
:1015200093E00E940F1881110BC09E81907C61F4A2
:10153000F8014085518562857385C8010E94F91BB9
:1015400026E0D22E803170F5E82FF0E0ED5EFE4F00
:10155000D080D11027C0D80118963C9118971996C1
:101560002C918E8185FF07C0D8019E969C919E97F5
:1015700090629E969C93D11039C0982F9870807C71
:101580005B814C81803409F1911104C0F80186A57A
:10159000886086A7852F942F009711F48FEF90E035
:1015A0006D2D79CFF70182813CDC30E020E0D9CF8E
:1015B0008091240110E000E030E020E091E2D92E9B
:1015C0008111CFCF86E0D82ECCCF911107C0D801A2
:1015D0009E968C919E9788609E968C93852F942FD3
:1015E000F70142814111D8CF0097D1F6832F922F76
:1015F000D7CF8091030560910805811101C064E691
:1016000022EC30E045E784E60E9407260C94A826E9
:101610000895CF93DF938CDC80912501C5E3811180
:1016200009C0DF91CF910895835A9C4F0E94EE1B11
:101630008D2FF7DBEBE5F3E030E020E080818823BD
:1016400071F0C29FC001C39F900D1124FC01E55AA7
:10165000FC4FD18120912401222351F3E5CF2F5F4C
:101660003F4FF5962830310549F7DBCFD2DF0E9496
:10167000F4210E94DF218823E1F30895EBE5F3E0F4
:10168000108215AA1092C5031092FA0310922F042B
:1016900010926404109299041092CE0410922501C5
:1016A00010922401A6DF0C94A8260895EF92FF92D1
:1016B0001F93CF93DF9382E090E00E942F2E7C0156
:1016C00010E0C2E0D0E0CE15DF0590F081E090E0C0
:1016D0000E94272E8117A1F012BC11BC10920305A5
:1016E00012BC11BCDF91CF911F91FF90EF90089534
:1016F000CE01805090400E94272E180F2196E3CFF4
:10170000A70160E070E083E095E00E94172E81E081
:1017100080930305E5CFE3E0F5E082819381890FB3
:101720009481890F9581890F26E030E033832283ED
:10173000818346E050E060E070E0CF010E94342EEB
:1017400012BC11BC08950F931F93FC019A01AB01C9
:10175000225031094109510986819781A085B185BF
:101760000297A109B109281739074A075B0778F4DE
:10177000A0A5B0E00E9488290289138924893589AF
:10178000600F711F821F931F1F910F91089560E0DA
:1017900070E0CB01F9CF0F931F93CF93DF938C01B0
:1017A000DB01FC013D969C012B5E3F4FEB018991D3
:1017B000BE01803261F0853009F485EEAF014F5FE4
:1017C0005F4F80834217530709F052C0F901189602
:1017D0008C9118978032A9F08EE28083BD01685FFA
:1017E0007F4FCF0104963196EB014991BE01403203
:1017F00041F09F012F5F3F4F408328173907D1F5F4
:10180000FC0110821B968C911B97F80180875C96D7
:101810004D915D916D917C915F974083518362837F
:10182000738358968D919C9159979583848356968E
:101830008D919C9157979783868354964D915C9197
:10184000559770E060E0BA01552744275A968D916C
:101850009C91B0E0A0E0842B952BA62BB72B818721
:101860009287A387B487DF91CF911F910F9108953D
:10187000FA019CCFF901B8CF90EE980F2FE9280F0D
:101880002A3100F19B30E8F09FEB980F9A31C8F0B5
:1018900090ED980F9A30A8F087FD13C0813650F470
:1018A0008E3578F48C3220F08E3258F08D3349F03A
:1018B0008FE507C08B3729F0D8F393E8980F923063
:1018C000B8F70895892F0895CF93009799F0FC01F8
:1018D00027A1211103C081E0CF910895C62F82A5D1
:1018E0000E94B72680FDF7CFCC2331F082FF04C0E1
:1018F00089E0F2CF8AE0F0CF80E0EECF009749F0A8
:10190000FC0127A1222329F082A50E94B72681701D
:1019100008958CE008954F925F926F927F92AF92FC
:10192000BF92CF92DF92EF92FF920F931F93CF93CC
:10193000DF93C0912B01D0912C0140902601509053
:10194000270160902801709029014416550666060B
:10195000770629F4C817D90711F481E02FC06A016E
:101960007B015C0180912A0181111DC0C114D10449
:10197000E104F10491F301E0A70196016DE271E049
:10198000F50182A50E948E27811117C0C092260101
:10199000D0922701E0922801F0922901B0922C0107
:1019A000A0922B01DACF01E0A30192016DE271E078
:1019B0008AA50E942728882381F080E0DF91CF91BB
:1019C0001F910F91FF90EF90DF90CF90BF90AF905D
:1019D0007F906F905F904F90089510922A018A85B2
:1019E0009B85AC85BD854A815B816C817D81840F3F
:1019F000951FA61FB71F481659066A067B0608F0F2
:101A0000B5CF19A5123008F4B1CF8A819B81AC8182
:101A1000BD81480E591E6A1E7B1E01E0A301920182
:101A20006DE271E08AA50E9427281150EBCF73CF99
:101A30000895CF92DF92EF92FF920F93CF93DF93AF
:101A4000EC016A017B01F3DF811109C082E0DF91C3
:101A5000CF910F91FF90EF90DF90CF900895CD2818
:101A6000CE28CF2899F401E020E030E0A9016DE212
:101A700071E08AA50E948E278111E8CF109226017D
:101A800010922701109228011092290180912B03B6
:101A900090912C0385359A4AC9F643E050E06AE6F6
:101AA00071E083E691E00E946A2D892B81F045E088
:101AB00050E06AE671E08FE791E00E946A2D892B81
:101AC00041F480915501881F8827881FC0CF80E08E
:101AD000BECF81E0BCCFB0E0A0E0E1E7FDE00C9438
:101AE0009729423051056105710528F461E070E0E5
:101AF00080E090E054C0FC0106811781208531858B
:101B0000401751076207730788F76A017B018C0150
:101B100082849384A484B58487A1823009F446C06A
:101B2000833009F45AC0813009F7EA01CC0FDD1F78
:101B3000C40FD51FCE01892F992786958695B501AB
:101B4000A401480F591F611D711DC80170DF882352
:101B500069F2D695C795FE01F170EA5DFE4F778078
:101B60002196CE01892F99278695B501A401480FAA
:101B7000591F611D711DC8015ADF882309F4B6CFB2
:101B8000D170CA5DDE4F6F81762F672DC0FE0CC00D
:101B900044E0769567954A95E1F790E080E0CDB70F
:101BA000DEB7EDE00C94B3297F70F7CF77276F2D68
:101BB0005E2D4D2D480D591D6A1D7B1DCF0137DF50
:101BC000882309F493CFF601EE0FFF1FEE7FF1702B
:101BD000E35DFE4F60817181E0CF97E07695679578
:101BE000579547959A95D1F7480D591D6A1D7B1D4C
:101BF000CF011DDF882309F479CFF601EE0FFF1F17
:101C0000EE0FFF1FEC7FF170E35DFE4F608171818D
:101C1000828193819F70C3CFB0E0A0E0E2E1FEE05B
:101C20000C949C29EC01088119810F5F1F4FC8019A
:101C30008F709927892B09F04CC08C859D85AE85C6
:101C4000BF850196A11DB11D8C879D87AE87BF877B
:101C5000488559856A857B858A819B81FC01411570
:101C600051056105710559F48081918108171907A3
:101C700080F180E0CDB7DEB7E8E00C94B82920A56C
:101C80002150330BF801A4E0F695E795AA95E1F70A
:101C90002E233F23232BE9F41EDFAB01BC0142308E
:101CA00051056105710528F38A819B81FC01C6807D
:101CB000D780E084F1844C155D056E057F05C8F67C
:101CC000488759876A877B873EDD6C877D878E874B
:101CD0009F871983088381E0CDCFA6E0B0E0E3E7DA
:101CE000FEE00C9494299E838D836A017B01480158
:101CF0005901DC011A964D905D906D907C901D9776
:101D000097968C919797823009F46CC0833009F4D0
:101D100081C08130A1F48A01000F111F040F151F2B
:101D2000C801892F992786958695B301A201480F8E
:101D3000591F611D711DCD017ADE811102C080E045
:101D400046C016950795F801F170882DEA5DFE4FA3
:101D5000A7019601217033274427552729833A8309
:101D60004B835C83C0FE07C087818F7040E1849EF7
:101D700090011124822B87830F5F1F4F81E0809396
:101D80002A01C801892F99278695B301A201480F1E
:101D9000591F611D711D8D819E8149DE882379F255
:101DA0001170F801EA5DFE4F89819A81AB81BC8197
:101DB000892B8A2B8B2B79F044E0B694A7949794C7
:101DC00087944A95D1F7878281E080932A012696ED
:101DD000E0E10C94B0298781807F992D9F70892E36
:101DE000882AF1CF77276F2D5E2D4D2D440D551D7F
:101DF000661D771D8D819E811ADE882309F49FCF91
:101E0000F601EE0FFF1FEE7FF170E35DFE4F1183D1
:101E10000083DACF97E076956795579547959A9521
:101E2000D1F7440D551D661D771D8D819E81FFDD07
:101E3000882309F484CFF601EE0FFF1FEE0FFF1F7A
:101E4000EC7FF170E35DFE4F80829182A282B382CB
:101E5000BBCFA6E0B0E0EFE2FFE00C9494299E83B4
:101E60008D832A013B01DC0116968D919D910D9089
:101E7000BC91A02D89839A83AB83BC834114510408
:101E800061047104A9F4ED81FE81828C938CA48C91
:101E9000B58C81149104A104B10429F08816990627
:101EA000AA06BB0628F1812C912C5401839420C0F2
:101EB0008D819E8110DE6B017C01F2E0CF16D10492
:101EC000E104F10450F4C12CD12C7601C394C70174
:101ED000B6012696E0E10C94B02989819A81AB8104
:101EE000BC81C816D906EA06FB0688F353014201F5
:101EF000750164019FEFC91AD90AE90AF90A8981B3
:101F00009A81AB81BC81C816D906EA06FB0678F037
:101F100092E089169104A104B10420F4C12CD12CC3
:101F20007601D5CF82E0C82ED12CE12CF12CB7015F
:101F3000A6018D819E81CFDD611571058105910519
:101F400061F0613071058105910509F4BCCFC814B9
:101F5000D904EA04FB0471F6E1CF0FEF1FEF2FEF76
:101F60003FE0B701A6018D819E81B7DE882309F489
:101F7000AACF411451046104710401F5AD81BE8101
:101F80005A96CD92DD92ED92FC925D97FD01868D81
:101F9000978DA0A1B1A18F3FFFEF9F07AF07BF07AC
:101FA00009F495CF0197A109B109ED81FE81868FD2
:101FB000978FA0A3B1A381E086A389CF9701860163
:101FC000B301A2018D819E8188DE8111D7CF7BCFA5
:101FD000B0E0A0E0EEEEFFE00C949729EC016A017E
:101FE0007B017724739482E0C816D104E104F104E4
:101FF00048F08E819F81A885B985C816D906EA0662
:10200000FB0610F081E00DC0B701A601CE0163DD33
:102010004B015C0121E082169104A104B10431F46A
:1020200080E0CDB7DEB7EDE00C94B32900E010E01E
:102030009801B701A601CE0150DE882389F38E8D69
:102040009F8DA8A1B9A18F3F2FEF9207A207B207DA
:1020500041F00196A11DB11D8E8F9F8FA8A3B9A33A
:102060007EA275016401BFCF2F923F924F925F9283
:102070006F927F928F929F92AF92BF92DF92EF9278
:10208000FF920F931F93CF93DF93CDB7DEB72C97BB
:102090000FB6F894DEBF0FBECDBF9C878B877A87C3
:1020A0006987DC011296ED90FC90CA0149966DE0BB
:1020B00070E00E9452295B01EB85FC8544805580CD
:1020C00066807780411451046104710409F440C0B2
:1020D0004086518662867386B301A201C70133DB55
:1020E000EB85FC856487758786879787AB85BC857C
:1020F0001D921C9219821A821B821C821D821E82D2
:102100001F821886312C212C10E0EB85FC8544853C
:10211000558566857785C7018ADC811125C088E0F1
:102120002C960FB6F894DEBF0FBECDBFDF91CF91D6
:102130001F910F91FF90EF90DF90BF90AF909F9015
:102140008F907F906F905F904F903F902F90089569
:10215000F70186859785A089B189EB85FC85848701
:102160009587A687B787C2CFAB85BC858D919C919B
:102170008F70992725E0880F991F2A95E1F7FC01B8
:10218000EA5DFE4F2781222311F0253EF1F521E083
:10219000210F111121C0835D9E4FE985FA8591833E
:1021A0008083AB85BC852D903C9011971C968D91BA
:1021B0009D910D90BC91A02D89839A83AB83BC83A4
:1021C000AB85BC8518968D919D910D90BC91A02DED
:1021D0008D839E83AF83B8872A151B0429F5EB8571
:1021E000FC853182208289819A81AB81BC81848780
:1021F0009587A687B7878D819E81AF81B8858087B7
:102200009187A287B38780E08BCF1A151B0409F052
:1022100010E08B859C8500DD811177CF452846280D
:10222000472821F486E07CCF122FF3CFAB85BC8505
:1022300018964D915D916D917C911B97C70109DEB8
:102240004B015C0181149104A104B10459F3B1E084
:102250008B169104A104B10409F461CF40E050E071
:10226000BA01C701E4DB882309F459CFB501A40101
:10227000C70169DA2B013C014092260150922701E7
:102280006092280170922901EDE2F1E080E092E095
:10229000DF019C011D9221503040E1F7D701989653
:1022A000DC90D11019C081E080932A01112331F113
:1022B00049815A816B817C81C701B9DB882309F48C
:1022C0002ECFAB85BC852D923C9289819A81AB81C2
:1022D000BC81EB85FC858BCF01E0A30192016DE20F
:1022E00071E0F70182A50E942728811118CFFFEF26
:1022F0004F1A5F0A6F0A7F0ADA94D3CFAB85BC8589
:102300001D921C928091260190912701A091280195
:10231000B0912901EB85FC8584879587A687B787CF
:1023200080869186A286B3868DE291E0E985FA8562
:102330009183808368CF0F93CF93DF93EC0181E08B
:1023400080932A0140E050E0BA01CE0170DB88237F
:1023500009F45CC08FA1833009F056C08EA1882398
:1023600009F452C010922601109227011092280100
:1023700010922901EDE2F1E080E092E0DF019C01A2
:102380001D9221503040E1F785E59AEA90932C03A5
:1023900080932B0382E592E5A1E6B1E480932D01C1
:1023A00090932E01A0932F01B093300182E792E722
:1023B000A1E4B1E68093110390931203A093130359
:1023C000B09314038E8D9F8DA8A1B9A1809315039E
:1023D00090931603A0931703B09318038A8D9B8DD7
:1023E000AC8DBD8D8093190390931A03A0931B03AA
:1023F000B0931C032AA13BA14CA15DA101E0BF0148
:102400008AA50E9427281EA280E001C088E0DF91F3
:10241000CF910F910895A8E0B0E0E1E1F2E10C94D2
:10242000922998878F835B014A013E832D831A830B
:102430000983FC82EB82DC011296ED90FC90F7019F
:1024400046895789608D718D41155105610571056A
:1024500021F0D4018C918F3241F4F70146855785E4
:102460006089718987A18330C1F4AF81B8851496E2
:102470004D935D936D937C931797FD014087518732
:1024800062877387C7015FD9AF81B8851C966D934A
:102490007D938D939C931F970EC0EF81F8851482D6
:1024A000158216821782108611861286138644873B
:1024B000558766877787EF81F88511821082A98119
:1024C000BA811396FC92EE921297F4013F0181912A
:1024D0008F32E1F3811108C0ED81FE8111821082FB
:1024E0002896E2E10C94AE2911E0AB81BC816D929B
:1024F0007C924BE050E060E270E0C5010E94B62D96
:1025000098E080E0F3013196D3010C91002311F0A3
:102510000F3261F4882309F487C1D5011B961C9200
:10252000D6011D921C923F01412C47C0003208F495
:102530007BC10F3709F478C1003299F00E3209F0EF
:102540008FC0882309F4A9C0813049F4D5012C91AA
:102550002E3209F49FC09BE088E03F01D3CF893041
:10256000D0F30C3509F460C10A3309F45DC1802F42
:10257000877F823209F458C1802F8F7B8C3309F416
:1025800053C10E53023008F44FC13F01BFEF6B1A25
:102590007B0A0081002319F0F3010F3211F7AB81A0
:1025A000BC818D919C91F301E81BF90BCF01019740
:1025B000D6018D939C9344244394013009F430C197
:1025C000912C812C55245394EF81F88544855585B1
:1025D00066857785C7012BDA882309F423C1112387
:1025E00019F1EF81F88580859185A285B385E98110
:1025F000FA8180879187A287B387EF81F8858485E8
:102600009585A685B785E981FA8184879587A68710
:10261000B787AF81B8858D919C919183808341105C
:1026200003C0F60111821082AF81B8858D919C9113
:102630008F70992725E0880F991F2A95E1F7FC01F3
:10264000E35DFE4F1F018A5D9E4FDC0117966C9182
:10265000611129C082E0002309F442CF83E040CF1A
:10266000023209F4E1C00A32A8F00D3208F479CF41
:102670000A3380F0003408F474CF0C3709F4D4C066
:1026800025EA200F233008F46CCF2FE9200F2A31E0
:1026900008F40052891708F064CFD501A80FB11DC6
:1026A0000C938F5F5ACF653E09F480C08385982FC5
:1026B0009F709F3009F053C0442009F449C06F71E6
:1026C0006150FDE06F9F602D112480E791E050E0A4
:1026D000462F450F51100EC0850E911C10E08F81C2
:1026E00098859ADA811170CF4110B4CFF60111822A
:1026F0001082B0CFFC012491F101E20FF11D208185
:1027000031E0350FFC017491F101E70FF11D71818A
:10271000211102C0772301F3AB81BC81ED91FC91C3
:10272000E40FF11D40815FE9540F5A3108F4405223
:102730005FE9520F5A3108F4205255245394241360
:10274000512C01963D3011F0532FC2CF5DE0C4CF24
:10275000F601808191810D9691838083BFCF4420C3
:10276000D9F0552029F1D6018D919C9188159905B4
:1027700021F58BE0D50101900D928A95E1F7F101E9
:102780008485D5011B968C93011119C0AD81BE8142
:102790002D923C9280E0A4CE83FD08C04BE050E037
:1027A000B501CF010E948F2D892B71F311E097CFD6
:1027B000142D542C912C812C92CF152DFBCFF1018F
:1027C000838584FF4BCF4489558970E060E0BA016E
:1027D00055274427828D938DB0E0A0E0482B592BDC
:1027E0006A2B7B2BAF81B88514964D935D936D93C7
:1027F0007C931797FD014087518762877387C701D4
:102800000E94A30BAF81B8851C966D937D938D9329
:102810009C931F97E2E0F0E0ED93FC9310E065CE0F
:1028200084E05ECE88E05CCE01E07ACEA6E0B0E047
:10283000ECE1F4E10C949429182F7E836D83F42E3F
:102840008BE2DB011D928A95E9F7812F82958F70CB
:10285000ED81FE8182A70E94C12680FD95C1FF20E7
:1028600011F082FD93C11F7009F026C140E050E0D5
:10287000BA018D819E81DDD8C12CD12C76018111C8
:1028800068C180913801909139018115924009F019
:1028900063C1209143013091440150E040E0211593
:1028A00031054105510541F420915101309152010A
:1028B0004091530150915401AD81BE8112962D93E8
:1028C0003D934D935C931597A0913D01ED81FE8161
:1028D000A1A7B0E00E94882969837A838B839C83B7
:1028E00080913B0190913C0146015701880E991E51
:1028F000A11CB11C82869386A486B58640913A01BC
:1029000040A740903E0150903F015182408280910B
:10291000400190914101B0E0A0E00097A105B10510
:1029200041F480914D0190914E01A0914F01B091E1
:10293000500124E0569447942A95E1F7712C612CBC
:1029400020913B0130913C01821B930BA109B109FD
:10295000BC01CD0109811A812B813C81601B710B67
:10296000820B930B6419750986099709242F30E0AF
:1029700050E040E00E946629DA01C9010296A11DDB
:10298000B11DED81FE8186839783A087B187873F44
:10299000FFE09F07A105B10508F4E0C0873F9F4F06
:1029A000A105B10508F4EEC083E0AD81BE81979624
:1029B0008C938091590190915A01A0915B01B09143
:1029C0005C01ED81FE8186879787A08BB18B13E038
:1029D000840C951CA61CB71C89819A81AB81BC8193
:1029E000880E991EAA1EBB1EAD81BE8152968D9285
:1029F0009D92AD92BC9255978FEF9FEFDC01ED81D8
:102A0000FE81868F978FA0A3B1A3133009F04EC02B
:102A100080915D0190915E01B701A601480F591F99
:102A2000611D711D42A353A364A375A3CF010E942E
:102A3000170D8823D9F180912B0390912C038535B4
:102A40009A4AA1F580912D0190912E01A0912F011C
:102A5000B091300182359245A146B14439F580915B
:102A6000110390911203A0911303B09114038237C4
:102A70009247A144B146D1F48091190390911A0371
:102A8000A0911B03B0911C03ED81FE81828F938F77
:102A9000A48FB58F8091150390911603A091170311
:102AA000B0911803868F978FA0A3B1A3AD81BE818B
:102AB00097961C9380E09CC001E020E030E0A901E3
:102AC0006DE271E0AD81BE819A968C910E948E2755
:102AD000811142C01530C8F4212F2150330BF90168
:102AE00034E0EE0FFF1F3A95E1F7E551FD4F848189
:102AF000882391F1C084D184E284F384B701A601D4
:102B00008D819E810E94190DBACE1450812C912C7A
:102B100054018091EF028530D9F18F30C9F1809155
:102B2000FF02853009F468C08F3009F465C08091D8
:102B30000F03853009F463C08F3009F460C08091C1
:102B40001F03853019F08F3009F051C0EBE1F3E03D
:102B500021C08F3F09F44BC08BE04AC011E0AD812A
:102B6000BE8197961C9389819A81AB81BC81880D27
:102B7000991DAA1DBB1DED81FE8186879787A08BBD
:102B8000B18B26CF12E0EBCF81E032C089E030C0BC
:102B9000EBEEF2E0C084D184E284F384C80CD91C4B
:102BA000EA1CFB1C81149104A104B10411F4460138
:102BB000570101E0A70196016DE271E0AD81BE8190
:102BC0009A968C910E948E278111C6CF115009F0E0
:102BD000A0CFEBEEF2E08481882321F0853011F064
:102BE0008F3081F47096B3E0EB32FB07A1F78CE0F5
:102BF0002696E0E10C94B029EBEFF2E0CBCFEBE0CE
:102C0000F3E0C8CF4085518562857385C40ED51E1B
:102C1000E61EF71E73CFADE0B0E0E1E1F6E10C9403
:102C200092299D878C874B013A012901DC0112967C
:102C30002D903C901397F801138618968D919D91D5
:102C40000D90BC91A02D8A839B83AC83BD83EC85C2
:102C5000FD850190F081E02DFF83EE83AC85BD857D
:102C60001C968D919D910D90BC91A02D8887998780
:102C7000AA87BB87B22E4BE050E060E270E0C8014B
:102C80000E94B62DF30180818E3269F0EFEFE40DE2
:102C9000F0E03196E60DF71DD42CBB24BA94BD0CA0
:102CA00059F5F6E0BF2E6982730190E0AA24A3943F
:102CB000A90E6801C90ED11C8E2DF9818F1B8B15B1
:102CC000F0F1F801EA0DF11D933008F047C081E4FE
:102CD000D6018C9382E48083E2E0E90FE00FF12FCC
:102CE000F11D83E48083E3E0E90FE00FF12FF11D94
:102CF0009C5F84E4808332C082918E3211F0DB2CA1
:102D0000CCCFF1E028E0FD1560F68D2D90E0841524
:102D1000950548F62B3038F6860D971DDC018C9111
:102D2000803259F0CC24C394C20E7801E20EF11C1B
:102D30000E943C0CF70180832C2DD394E6CFD70161
:102D40008D917D01803239F08E3229F00E943C0C49
:102D5000F60180839A2D963009F0A8CFF801E90F8B
:102D6000F11D8EE780839F5FF801E90FF11D81E37C
:102D70008083F8018081853E11F485E0808370E3D3
:102D8000D72EE1E3CE2EAC85BD851296ED90FC905A
:102D9000139714964D915D916D917C911797411504
:102DA00051056105710509F4EEC0FD0140875187A9
:102DB00062877387C7010E94A30BAC85BD851C96F3
:102DC0006D937D938D939C931F97AC85BD851D92CC
:102DD0001C92EC85FD854485558566857785C70100
:102DE0000E94170D882309F4DAC0AC85BD852D91AA
:102DF0003C912F70332765E0220F331F6A95E1F76E
:102E0000C901835D9E4F2A5D3E4FF9012781222330
:102E1000C9F0253E89F0DC011B962C91322F3F70C2
:102E20003F3051F023FD08C04BE050E0B8010E9454
:102E30008F2D892B09F4B3C08C859D850E940C0EC3
:102E40008111C7CFF801F190055F1F4F8F2D869537
:102E5000F0FC8068F190F80EE017F107B9F7C201B5
:102E60000C966DE070E00E945229E62E8A819B81CB
:102E7000AC81BD81EC85FD8580879187A287B38772
:102E80008E819F819183808388859985AA85BB8562
:102E900084879587A687B787162FDD24D39430E2E1
:102EA000C32E4DE0B42E0FEF5FE0A52EAC85BD859F
:102EB0001C964D915D916D917C911F97C1010E946F
:102EC000170D882309F45DC0AC85BD858D919C915B
:102ED0008F70992725E0880F991F2A95E1F7835D68
:102EE0009E4FF40191838083112309F48EC0D09208
:102EF0002A010190F081E02DDF012C2D1D922A95F1
:102F0000E9F780E41E1180E0D401ED91FC91812B62
:102F1000808311501B9D602D1124E0E7F1E040E01B
:102F2000862F840F90E0D4012D913C9151E0540FF5
:102F30008415950568F44491860D971DDC018C91EC
:102F4000240F311DD9018C933196452F5D3041F707
:102F50004F5F90E080E0242F30E020593E4FF40195
:102F6000A081B1814D3008F43EC01B96AC92019017
:102F7000F081E02DF5868C859D850E940C0E8111D7
:102F800095CF88E020C0F70186859785A089B18913
:102F9000EC85FD8584879587A687B78716CF88E05F
:102FA0008150F801E80FF11D90819032C9F320E0C3
:102FB000F801E80FF11D9081993349F4D0828150D6
:102FC00021E0B1F787E02D96E2E10C94AE292223AF
:102FD00039F09E3729F4C0828823A1F3319701C0CC
:102FE0009F5F9083D0CEF901E80FF91F5491A50F90
:102FF000B11D0C934F5FE491D4016D917C91E60F6C
:10300000F72FF11D01830196AACF80E0DCCF611577
:10301000710511F0FB0117A240E008CC0895A2E36E
:10302000B0E0E5E1F8E10C9492293C014B012A0162
:10303000322E1AAA19AADB0113961C921E9212971D
:10304000622F6E710E94640CB82E8111ADC07C8A13
:103050006B8AFE01BF966F01CE018D967C018E01B9
:103060000F5F1F4F9E012F5C3F4FA201BE016F5D9E
:103070007F4F4C97D0D999A19E3209F4F4C0932D7B
:103080009F71A92E932D9C7109F4DDC0882309F44A
:1030900090C0823009F0F3C04FA558A9BE016F5C03
:1030A0007F4FCE0141960E9434108111E8C02FA5B8
:1030B00038A92115310509F067C0E9A9FAA980E20C
:1030C000DF011D928A95E9F7A9A9BAA98BE0FE0153
:1030D000B19601900D928A95E1F7E9A9FAA98CA51C
:1030E00084876894A3F8A3FE0DC0E9A9FAA9138602
:1030F00080E090E0AFE1B5E086879787A08BB18B49
:103100006894A5F88091260190912701A09128014B
:10311000B0912901F401808F918FA28FB38FE9A91B
:10312000FAA9D4015D96FC93EE935C97AC928489E6
:103130009589B0E0A0E0DC0199278827428D538D66
:1031400070E060E0482B592B6A2B7B2BD4011C9636
:103150004D935D936D937C931F97848D958DA68D74
:10316000B78DF40180879187A287B3871482158277
:103170001682178281E08183738262828A2D8C712C
:1031800099F0C301D8D810C04DA55EA58E010F5D82
:103190001F4FBE016F5C7F4FCE0141963CDD8823FF
:1031A00009F48BCFE8E0BE2E8B2DE296E2E10C9481
:1031B000AE2932FC5BC0E9A9FAA9309709F450C0E6
:1031C000838584FD56C080FD57C033FE8CCF209090
:1031D0002601309027014090280150902901C48891
:1031E000D588F12CE12C7601DD24CC24828D938DC1
:1031F000B0E0A0E0C82AD92AEA2AFB2A158A148A54
:10320000138E128E148E158E168E178E81E080937B
:103210002A01B701A601C3010E94E80F882311F219
:10322000B201A101C3010E94170D882309F4BACF8E
:10323000B1E0CB1AD108E108F108F301C28ED38EB8
:10324000E48EF58E50CF81111AC0E9A9FAA9309702
:10325000C1F0838584FD15C031FE54CF80FF52CF6D
:1032600086E0B82EA1CF54E0B52E9ECF47E0B42E15
:103270009BCF3EE0B32E98CF2FE0B22E95CFB82E45
:1032800093CF92E0B92E90CFB0E0A0E0EAE4F9E16C
:103290000C949229EC015B017A013901CA80DB8030
:1032A000F90111821082C6010E947E0C182F811133
:1032B0001DC0888187FDE9C080FFE9C088859985A8
:1032C000AA85BB854C815D816E817F81841B950BB6
:1032D000A60BB70BA70170E060E084179507A6075F
:1032E000B70708F47C01E114F10431F4812FCDB764
:1032F000DEB7E2E10C94AE294C815D816E817F8165
:10330000DB01CA019170AA27BB27892B8A2B8B2B43
:1033100009F092C0898181508983882309F45DC0B6
:103320002C883D884E885F88FFEF2F1A3F0A4F0A8E
:103330005F0A40E050E0BA018A819B810E948B0CB9
:10334000882309F49FC02C8A3D8A4E8A5F8AC70170
:10335000892F99278695009709F46EC00981802EE0
:10336000912C8815990508F44C01082DA2019101B2
:10337000B501F60182A50E948E27811183C0898143
:103380008F5F881989839401215031098C899D8927
:10339000AE89BF89820F931FA11DB11D8C8B9D8BA0
:1033A000AE8BBF8B982C8824990CA80CB91C8C81EF
:1033B0009D81AE81BF81880D991DA11DB11D8C839A
:1033C0009D83AE83BF83F30180819181880D991D18
:1033D00091838083E818F90886CF452B462B472B2D
:1033E00009F54C855D856E857F8542305105610507
:1033F000710508F447C0F60186819781A085B185E3
:10340000481759076A077B07E8F5488B598B6A8B81
:103410007B8BC6010E94A30B1B012C01F60180A52A
:10342000898387CF488959896A897B89C6010E9427
:103430006B0DAB01BC01D9CF8C819D81917020E0D7
:1034400032E0281B390B47012E153F0508F44901CE
:103450004C895D896E897F898A819B810E948B0C52
:10346000882381F08C819D81AE81BF819170AA27D4
:10347000BB270796BC016A5D7E4FA401C5010E946F
:103480009C2D93CF88818068888318E02FCF16E029
:103490002DCFA3E0B0E0EFE4FAE10C9492299B83F6
:1034A0008A835B017A013901FC01C280D380F90172
:1034B00011821082C6010E947E0C89838111CDC0C9
:1034C000EA81FB81808187FD36C181FF37C180851C
:1034D0009185A285B385AC01BD014E0D5F1D611DB7
:1034E000711D481759076A077B0708F4B6C0EA81BF
:1034F000FB814481558166817781E114F10409F4EF
:1035000097C0DB01CA019170AA27BB27892B8A2BA0
:103510008B2B09F0D3C0EA81FB81818181508183AB
:10352000882309F465C02488358846885788FFEFCA
:103530002F1A3F0A4F0A5F0A40E050E0BA01EA81C1
:10354000FB81828193810E948B0C882309F4EBC05C
:10355000EA81FB81248A358A468A578AC701892FE6
:1035600099278695009709F4A9C00181802E912C96
:103570008815990508F44C01082DA2019101B501A7
:10358000F60182A50E9427288111CDC0EA81FB8126
:1035900081818F5F88198183940121503109848949
:1035A0009589A689B789820F931FA11DB11D848BB0
:1035B000958BA68BB78B982C8824990CA80CB91CDA
:1035C000EA81FB8184819581A681B781880D991D4F
:1035D000A11DB11D84839583A683B783F3018081E8
:1035E0009181880D991D91838083E818F9087FCF18
:1035F000EA81FB81452B462B472BA1F56485758518
:1036000086859785611571058105910599F540E0DD
:1036100050E0BA01C6010E94290FEA81FB8164874C
:10362000758786879787611571058105910511F565
:10363000EA81FB8184819581A681B781408551858E
:1036400062857385481759076A077B0708F464C0C9
:10365000EA81FB8180818062808389812396E2E117
:103660000C94AE294089518962897389C6010E94F0
:10367000290FD9CF613071058105910509F453C037
:10368000F601068117812085318560177107820751
:10369000930708F048C0EA81FB81608B718B828BB5
:1036A000938BAB01BC01C6010E94A30B1B012C0133
:1036B000F60180A5EA81FB8181833ECFEA81FB810F
:1036C00084819581917020E032E0281B390B4701FD
:1036D0002E153F0508F44901EA81FB81448955898B
:1036E00066897789828193810E948B0C8823D9F027
:1036F000EA81FB8184819581A681B7819170AA2797
:10370000BB270796A401B5018A5D9E4F0E949C2DA0
:10371000F1E0F0932A0152CFEA81FB818087918703
:10372000A287B38795CFEA81FB81808180688083FF
:10373000F8E0F98392CF28E029838FCF36E03983F0
:103740008CCF0F931F93CF93DF93EC010A811B81E2
:10375000C8010E947E0C81110DC0988195FF0AC09E
:1037600040E050E0BA018A819B810E948B0C81115C
:1037700006C088E0DF91CF911F910F910895488D89
:10378000598D6A8D7B8DC8010E94170D882389F39E
:10379000EC8DFD8D83858062838788859985AA85D8
:1037A000BB85848F958FA68FB78F8C859D85938FD2
:1037B000828F8C859D85AE85BF85B58BA48B80E07F
:1037C00090E0AFE1B5E0868B978BA08FB18F8881B9
:1037D0008F7D8883C8010E949B11CCCFCF93DF934C
:1037E000EC01AFDF811102C01B821A82DF91CF9101
:1037F0000895A9E0B0E0EFEFFBE10C9492299987DE
:1038000088876A017B01DC0112960D911C91C80129
:103810000E947E0C382E8111B4C0E885F985808124
:1038200087FD5DC184819581A681B7818C159D0539
:10383000AE05BF0509F4A5C040E050E0BA018281A1
:1038400093810E948B0C882309F444C1E885F98593
:1038500080859185A285B3858C159D05AE05BF0534
:1038600028F4208121FD02C06C017D01C114D10426
:10387000E104F10409F426C1D80198968C90912CAA
:10388000B12CA12C29E0880C991CAA1CBB1C2A95E0
:10389000D1F7C701B601A50194010E9466292983C9
:1038A0003A834B835C83262E7D838E839F83E885BA
:1038B000F9854480558066807780C301B2016150EC
:1038C000710981099109A50194010E9466298981E4
:1038D0009A81AB81BC8182179307A407B50709F0D1
:1038E00055C0A885B9851496CD92DD92ED92FC92D3
:1038F0001797C22CDD80EE80FF80F1E0CF1AD1084F
:10390000E108F10899E0F694E794D794C7949A9562
:10391000D1F7A885B98550964D915D916D917C91B7
:103920005397C8010E94A30B8C2C0C2C000C9908F7
:10393000AA08BB08DC01CB01880D991DAA1DBB1D7F
:10394000E885F985848B958BA68BB78BD8019896E3
:103950008C918C198183E885F98584819581A68174
:10396000B7814085518562857385481759076A0775
:103970007B0738F480879187A287B3878081806234
:103980008083832D2996E2E10C94AE2981E0E885BD
:10399000F9858183411451046104710409F473C0F1
:1039A0004C145D046E047F0408F06DC0C501B401C1
:1039B0000E9443296483758386839783C61AD70A36
:1039C000E80AF90A6089718982899389611571050C
:1039D00081059105D1F440E050E0BA01C8010E9490
:1039E000290F613071058105910509F473C0A8851F
:1039F000B9851C966D937D938D939C931F9761154C
:103A000071058105910509F478CFE885F985608B0A
:103A1000718B828B938B8C149D04AE04BF0408F0D1
:103A200042C02081AB01BC01C80121FF37C00E9408
:103A3000290F611571058105910599F162307105B4
:103A40008105910508F446C0D80116964D905D9009
:103A50006D907C9019976415750586059705D0F5CE
:103A6000E885F9854480558066807780480C591C2C
:103A70006A1C7B1C4482558266827782C818D908EA
:103A8000EA08FB08C2CFE885F98514821582168200
:103A90001782648575858685978598CF0E946B0D02
:103AA000C8CF75016401E885F98584819581A68177
:103AB000B7818C0D9D1DAE1DBF1D84839583A6838C
:103AC000B7831BCFE885F985148215821682178289
:103AD00081E040CFA885B9858C9180688C9388E07F
:103AE000382E4FCFA2E2B0E0E8E7FDE10C94962932
:103AF0004C015B013A0160E00E94640C182F8111B7
:103B00003EC0F50193828282CE014D966C01FE018A
:103B10007F967F018E010F5F1F4F9E012F5D3F4FEC
:103B2000A301BE016F5E7F4FC5010E940B12182FCB
:103B3000811125C0E9A1FAA1309709F1838584FF9D
:103B400023C04489558970E060E0BA0155274427B5
:103B5000828D938DB0E0A0E0482B592B6A2B7B2BF4
:103B6000F5014087518762877387C4010E94A30BC8
:103B7000F501648775878687978711821082812F68
:103B8000A296EEE00C94B22912E0F9CFB0E0A0E0EA
:103B9000ECECFDE10C9498298C01EB01FC01C28056
:103BA000D380EA8DFB8D309709F01082C6010E9408
:103BB0007E0C81112BC01D86B12CF12CE12C9DE0D7
:103BC000A92E20E7822E21E0922EF801448555850A
:103BD000668577854115510561057105B1F0C6010E
:103BE0000E94170D882309F47BC0F8016081718160
:103BF0006F70772785E0660F771F8A95E1F7FB01E5
:103C0000EA5DFE4F8781811106C080E0CDB7DEB747
:103C1000ECE00C94B429853E09F441C0635D7E4F0D
:103C20002A8D3B8D2115310509F452C0FB01938586
:103C30009F709F3009F048C0B11031C08F71815022
:103C40008A9D802D1124843108F047C090E040E027
:103C50009401281B390BF901E80FF91FA491A60F55
:103C6000B72FB11D5C91511108C0A491A60FB72FB9
:103C7000B11D11965C91552381F08431F9F0E491E6
:103C8000E60FF72FF11D5081EA8DFB8DE80FF91F2C
:103C900050834F5F01964D30F1F6E40EF11CC801E0
:103CA0000E940C0E811105C0F80114861586168637
:103CB00017868D85882309F488CFA7CF40E0BB24E1
:103CC000B394F12CE12CE9CF2E0D3F1DF9011082A8
:103CD000CE010E94CB0BB12CE2CFBB24B394DFCF3B
:103CE00088E094CFA2E3B0E0E8E7FEE10C949829E5
:103CF0005C014B0161E00E94640C811140C0BC8AF0
:103D0000AB8ACE018D966C01DE019F967D018E01FE
:103D10000F5F1F4F9E012F5C3F4FA401BE016F5DDF
:103D20007F4F4C970E940B12811129C0E9A9FAA973
:103D3000309709F4AAC0238586E020FD20C089A120
:103D40008E3209F4A2C0C488D588F12CE12C76010A
:103D5000DD24CC24828D938DB0E0A0E0C82AD92A3E
:103D6000EA2AFB2A24FF49C0F50186899789A08D9C
:103D7000B18D8C159D05AE05BF0529F480E1E29655
:103D8000ECE00C94B429C98EDA8EEB8EFC8EB70170
:103D9000A601C5010E94A30B6D8F7E8F8F8F98A304
:103DA00082E090E09A8B898B4D8D5E8D6F8D78A12E
:103DB000C5010E94170D811102C088E0E0CF8989FA
:103DC0009A898F70992735E0880F991F3A95E1F706
:103DD000FC01E35DFE4F8A5D9E4FDC0117968C91DE
:103DE000882359F0853E19F0838583FFC7CFCE0124
:103DF00041960E940C0E8111D7CF8DA59EA54996A4
:103E00006DE070E00E9452297EA76DA715EE01E0DB
:103E10008DA59EA59C01215031093EA72DA7892B78
:103E200059F4B701A601C5010E94E80F882329F2C1
:103E3000C5010E949B11A3CF4D855E856F85788952
:103E4000C5010E94170D882309F4B7CF89819A8193
:103E50008F70992725E0880F991F2A95E1F79C011B
:103E6000235D3E4F3AAB29AB8A5D9E4FFC01178321
:103E700000932A018DA59EA5892B51F2CE010196B2
:103E80000E940C0E8111C4CF98CF84E078CF4F925E
:103E90005F926F927F92AF92BF92CF92DF92EF923A
:103EA000FF920F931F93CF93DF93CDB7DEB7E697C3
:103EB0000FB6F894DEBF0FBECDBF5C013B0161E0E1
:103EC0000E94640C811144C0BC8AAB8A9E01215DB2
:103ED0003F4F6901CE018D967C018E010F5F1F4F10
:103EE0002E5F3F4FA301BE016F5D7F4F4C970E9435
:103EF0000B12882309F40EC1823051F589A18E324C
:103F000009F40AC14FA558A9BE016F5C7F4FCE01CD
:103F100041960E94341081111BC08091260190911E
:103F20002701A0912801B09129018BAB9CABADABCF
:103F3000BEAB40E050E0BA01C5010E94290F6B0101
:103F40007C0191E0C916D104E104F104B1F488E0E8
:103F5000E6960FB6F894DEBF0FBECDBFDF91CF91CE
:103F60001F910F91FF90EF90DF90CF90BF90AF9097
:103F70007F906F905F904F900895B701A601C501A3
:103F80000E94A30B2B013C0186E041145104610403
:103F90007104F1F2B301A201C5010E94170D88233B
:103FA000B1F2EDE2F1E080E092E0DF019C011D92D0
:103FB00021503040E1F711E0F50180A5181708F411
:103FC00087C04BE050E060E270E08DE291E00E943B
:103FD000B62D8EE280932D0190E19093380140E060
:103FE00050E06FE175E040934301509344016093CA
:103FF00045017093460190E2EDE2F1E0ADE4B1E0FD
:1040000001900D929A95E1F780934E01D09248016C
:10401000C0924701270166247724509242014092C2
:1040200041018D899E89AF89B88DF50127A1233083
:1040300061F44685578560897189481759076A0771
:104040007B0719F480E090E0DC0190936801809395
:104050006701B0936201A093610181E080932A011E
:104060004BA95CA96DA97EA9C5010E94170D8823E3
:1040700009F46DCF2FA538A921153105D9F5E9A986
:10408000FAA980E2DF011D928A95E9F7A9A9BAA9E8
:104090008BE0FE01B19601900D928A95E1F7E9A9B6
:1040A000FAA98CA5848781E080932A0180E1838727
:1040B00080E090E0AFE1B5E0868B978BA08FB18F69
:1040C000D38EC28E558A448AC5010E949B1140CF6F
:1040D0003FEF431A530A630A730A01E0A3019201F6
:1040E0006DE271E0D5019A968C91B1D781112FCFF5
:1040F0001F5F62CF4DA55EA58E010F5D1F4FBE01F4
:104100006F5C7F4FCE0141960E940B16882309F405
:10411000B6CF1DCF87E01CCF84E01ACFA2E3B0E07A
:10412000E4E9F0E20C9498295C014B0160E00E9404
:10413000640C811120C0BC8AAB8ACE018F966C01C1
:10414000FE01BD967F018E010F5F1F4F9E012F5C08
:104150003F4FA401BE016F5D7F4F4E970E940B122F
:10416000811109C0E9A9FAA9309749F4F501168A25
:10417000178A108E118EE296ECE00C94B429938588
:1041800094FF15C04489558970E060E0BA01552755
:104190004427028D138D30E020E0402B512B622B01
:1041A000732BF501468B578B608F718FE4CF81E1C4
:1041B000E2CFABE4B0E0EFEDF0E20C9496295C01C5
:1041C0004B013A0161E00E94640C8111BCC0B9A6A8
:1041D000A8A6CE018A5B9F4F6C01FE01EE5BFF4FEC
:1041E0007F018E010A5E1F4F9E01265B3F4FA40197
:1041F000BE016A5C7F4F80970E940B128111A3C0A1
:104200002C96EEADFFAD2C9782E0309709F49BC061
:1042100085E13B96DE01119601900D928A95E1F7BA
:10422000CE018C5B9F4F6C019E01285B3F4FA30129
:10423000BE016A5C7F4F4E970E940B12882309F4DF
:10424000ADC0823009F07FC08EA98E3209F4A8C0BB
:1042500026964EAD5FAD2697BE01685B7F4FCE01BF
:1042600086960E94341081116EC026962EAD3FAD09
:1042700026972115310509F054C02A962EAD3FAD81
:104280002A9785E1FE013196D9011B9601900D9286
:104290008A95E1F78BE0FE01F696D90101900D9227
:1042A0008A95E1F72A96EEADFFAD2A9722968FAD5B
:1042B0002297848781E080932A01CE018A5B9F4FF9
:1042C0006C01FE01EE5BFF4F7F018E010A5E1F4F06
:1042D0009E01265B3F4FA401BE016A5C7F4F809721
:1042E0000E940B1228968EAD9FAD289749966DE0DF
:1042F00070E0D8D728967FAF6EAF289715EE01E013
:1043000028968EAD9FAD28979C01215031092896A3
:104310003FAF2EAF2897892BD9F4C5010E949B117E
:1043200012C024964EAD5FAD24978E010A5C1F4FDC
:10433000BE01685B7F4FCE0186960E940B168823D4
:1043400009F49BCF88E0C55BDF4FEEE00C94B22907
:104350004AA15BA16CA17DA1C5010E94170D882314
:1043600089F38E899F898F70992725E0880F991F7F
:104370002A95E1F79C01235D3E4F2C963FAF2EAF6F
:104380002C978A5D9E4FFC01178300932A01CE0172
:1043900046960E940C0E8111B3CFD4CF87E0D3CFC5
:1043A00084E0D1CF44983C9A0000000008954A99D7
:1043B00004C03499FCCF80E008958FEF089589B14F
:1043C0008470089587B1807F87B988B18F6088B97C
:1043D0008AE08A95F1F700C008953C98449A349990
:1043E00002C04A9BFCCF0895F8DFECDF52985A9A3E
:1043F0008AE08A95F1F700C00895D9DF811101C0E4
:10440000D1DF80E008950F931F93CF938C01FC01BF
:104410008081811111C0C6DFC6B1DFDF4A9910C0AB
:104420003499FCCFBFDF86B18295807FCF708C2B13
:10443000F801808380E005C0D0DFB9DF882359F31D
:104440008FEFCF911F910F910895CF93DF93C82FD6
:104450005A98529AC2DF8AE28A95F1F700C098B161
:104460002C2F2F70907F922B98B988B1807FDFE03E
:104470002D27822B87B996DF8AE28A95F1F700C053
:10448000ACDF8AE28A95F1F700C088B1C295CF709F
:10449000807F8C2B88B988B1807FCD27C82BC7B986
:1044A00081DF8AE28A95F1F700C080E0DF91CF9149
:1044B0000895CF93C92FC9DF811102C08C2FC5DFAA
:1044C000CF9108950F931F93CF93DF938C01EB014E
:1044D0004A9909C084E090E0ECDFC801EADFCE0130
:1044E000E8DF80E0B2DF80DFDF91CF911F910F9195
:1044F0000895CF93C82F4A9905C090E080E0D9DF96
:104500008C2FA3DF71DFCF91089552985A9A3C986F
:10451000449A87B1807F87B988B18F6088B9089540
:104520008F929F92AF92BF92DF92EF92FF920F9382
:104530001F93CF93DF93EC018B01D42E7901D90126
:104540001D921D921D921C921397E0E090E0D801FD
:104550008C91E81798F5A881B981AE0FB11DFC9137
:10456000F03239F481E08E0F992319F1E82F80E0C1
:1045700028C080ED8F0F8A30F0F49D15D0F5D7015B
:104580002D913D914D915C91AAE0B0E0C1D64F2FA5
:104590004053550B4A01550FAA08BB08860E971EBB
:1045A000A81EB91ED7018D929D92AD92BC92139711
:1045B00091E0EF5FCCCFFC32E1F4EF5F80E0992334
:1045C000D1F081110AC0288139812E0F311D398324
:1045D0002883D8019C919E1B9C93DF91CF911F91C2
:1045E0000F91FF90EF90DF90BF90AF909F908F90D2
:1045F000089581E0E4CF81E090E0E3CFFF920F9354
:104600001F93CF93DF93EC018C01060F171FFF243C
:10461000F394C017D10729F480E0CDB7DEB7E5E009
:10462000AAC6CE01F992EFDE882399F380E1F5CF97
:10463000A1E0B0E0EDE1F3E27FC66C01F62E10E000
:1046400000E0EE24E3940C151D0519F48F2D51DFC5
:1046500007C0E982CE010196D6DE882321F0BDDEB7
:104660002196E8E085C60F5F1F4FEDCF6DE0FC019E
:1046700087819085DDCF0895B0DEA1DE8823E9F340
:104680000895EF92FF920F931F93CF93C62F7A0155
:104690008901FC01878190858F3F910549F040F0A9
:1046A000C7DF8C2FCF911F910F91FF90EF9008954E
:1046B000BC0189E095E0A2DFC82F811111C0809173
:1046C0000A0590E0982F882720910905820F911DF7
:1046D000F7019183808380910B05F8018083E1CFFE
:1046E0007CDECBE1DECFCF93DF93EC01DB01E88111
:1046F000F9818081803239F02C9121110BC0108218
:10470000DF91CF9108953196F983E8838C918150A0
:104710008C93EDCF215030E0888199816C912115E7
:10472000310521F4FC01E60FF11DE9CFAC01420F88
:10473000531FFA01408121503109403299F7EFEFC0
:10474000E60FEC93E9CFEF92FF920F931F93CF9375
:10475000DF93EC018B017A01BA01C801C4DFFE01CD
:10476000849120E090E069E0882301F1492F50E036
:10477000FA013196269FE00DF11D1124EC0FFD1F6B
:104780007491D7013C91711115C0F801A081B181DC
:10479000A40FB51F931719F03C913032B1F4F80112
:1047A000B183A083D7012C91291B2C93CDB7DEB701
:1047B000E6E0E0C5931309C02F5FFE01269FE00DE0
:1047C000F11D1124849190E0CFCFF801A081B18137
:1047D000A40FB51F3C91432F50E031543A3110F4EF
:1047E000405E5F4F9F5F7417150631F7BDCFA1E0A4
:1047F000B0E0ECEFF3E29AC54C017B016A01BA012B
:10480000C70171DF1982F60100811981101710F0BC
:10481000912C23C0F701A080B180612E712CF5018D
:10482000E60DF71D80818D33E1F4AE014F5F5F4FE0
:10483000B701C40188DF982E882379F0FFEF6F1A43
:104840007F0AA60CB71CF701B182A0821095010F58
:10485000F6010083B601C70146DF892D2196EEE0FF
:1048600081C51F5F1983D1CFB0E0A0E0E9E3F4E296
:1048700061C58C01EB017A01D9011C925881F0E0ED
:10488000E0E09E2FE517C0F4D801AD90BC90BF01C9
:104890006F5F7F4F6501CE0EDF1ED6018C918C328B
:1048A00079F46A0D7B1DD7016D937C9388818150CB
:1048B000891BD9018C93E883CDB7DEB7EAE056C5F2
:1048C000FB01DFCF611104C070E060E0FBCD089513
:1048D000862F0FCE0895A7E0B0E0E0E7F4E22FC501
:1048E0009E838D836F838A0119821A821B821C82A8
:1048F000AE01495F5F4FBE016B5F7F4F8EE891E075
:1049000022DFF82E882369F0BE01695F7F4FCE0158
:104910000596E9DE82E0F81204C00E948B0B80E06D
:104920000FC0AE01495F5F4FBE016B5F7F4F8EE8E6
:1049300091E05DDF8130D9F50115110521F482E2A6
:104940002796E5E018C59E012F5F3F4F43E0BE016B
:10495000695F7F4FCE010596E3DD81112AC0498151
:104960005A816B817C814F3F51056105710509F0CA
:1049700000F530910A06EAE0F6E090E080E0242FAE
:104980008317E8F6A1812A1778F0A381A21760F0B7
:1049900025E0289FF001299FF00D1124E65FF94FD3
:1049A0004283F8014083BBCF01963596E9CF81E081
:1049B000C7CF80E1C5CF8F3F910528F4BC0189E0C6
:1049C00095E01CCE089568E033DE88E0089580E02D
:1049D00090CD08950F931F93CF9380E190E069DD10
:1049E000C0E1811101C0C0E010E000E0C11103C0CE
:1049F0000031110539F48C2F28DDF6DCCF911F91A1
:104A00000F910895F801E358FE4F84911EDD811146
:104A1000C0E10F5F1F4FEACF882331F08091090674
:104A20008260809309060895809109068D7FF9CFF1
:104A3000809109060895FC018081811102C00E94C5
:104A4000090BD2DCBCDC8823E9F30895539A5B9A06
:104A500078940E94560B7CD158DD3D9A07D42BEBFD
:104A600031E040E060E080E0D2D00E943E0B5298FE
:104A70000895CDB7DEB72997DEBFCDBFE7DF1A8235
:104A80001B821D821C821F821E8219861886E12CC1
:104A900085E0D82E93E0C92E2EEFB22E80E0BCDF49
:104AA0008EDC182F811108C081E0B6DF00E087DCC2
:104AB000F82E8823E9F0F2CF8FD0F2CF81E090E09A
:104AC0008C0F9D1F810F911DFC0110839CDCA82E73
:104AD00080912F038E1539F080912F038150823001
:104AE00010F40E943E0BE0902F03A11018C01F5F2E
:104AF000193021F7011114C050910A069981EAE09A
:104B0000F6E09F0180E0581759F02B5F3F4FD90125
:104B100013974C91491709F435C08F5FF4CF5DDCD2
:104B20005CDC4DDC8823E9F310E024C09C01628149
:104B30000196359646132EC0D29EF001D39EF00DFD
:104B40001124E65FF94F248135818A81F9010C9D9A
:104B5000E00DF11D112494910F5F9A3A69F09813BA
:104B6000F5CF319625913491CE010196F901099541
:104B7000FF24F3940F2D9BCF8A3A99F3CE0101962F
:104B800075DDF6CF911104C08A818F3F09F0BA829A
:104B900090E080E0851750F2CE0101966DDDE8CF00
:104BA0001F920F920FB60F9211248F93EF93FF93E2
:104BB00083B78E7F83BFE4E6F0E0808180718083DD
:104BC000E8988FEF80932D03FF91EF918F910F90D5
:104BD0000FBE0F901F901895E9E6F0E0808182608B
:104BE0008083E89A83B7817F8C6083BFF8941092AA
:104BF0002D0383B7816083BF85B7806685BF8F7DB6
:104C000085BF789445983D9A8895F7CB0895E091B3
:104C10000A06AAE0B6E090E0E91310C091E09E0F0A
:104C200090930A0695E0E99FF0011124E65FF94FA1
:104C300081836283438335832483089511965C9135
:104C40001197581305C013965C9113975417A9F345
:104C50009F5F1596E1CF9627092E0294602D6F7005
:104C60006927292F2025220F207E6227202D292722
:104C7000207F2695092E000C221F969596959695D5
:104C80009F7192279827862F08952FB7F8948091C7
:104C90003306909134062FBF08952A9A85D284D284
:104CA00083C20895A4E0B0E0E7E5F6E241C3E82E50
:104CB000D42EC52E962E872E682F80E00E940001EC
:104CC000682D0E940001692D0E9400016C2D0E9438
:104CD00000016D2D0E940001880FF82E6894F0F8F5
:104CE0000AE02A988E2D5AD289829A82CB82DC825F
:104CF00040E064E070E0CE0101965DD28F2D4ED28F
:104D0000C4DFC2965C0150D2182F87FF05C0BDDFFB
:104D10008A199B0997FDF7CF13FF03C0BEDF01502F
:104D200001F7812F2496ECE01FC31F920F920FB65C
:104D30000F9211248F93199909C081E080932F035A
:104D40008F910F900FBE0F901F90189582E0F6CFB5
:104D50002098289A2198299AE8E6F0E080818160DD
:104D60008083EBE6F0E0808182608083089519996A
:104D700004C0189904C080E0089583E0089584E099
:104D80000895A4E0B0E0E6ECF6E2D8C2811151C08B
:104D9000EEDF81FF03C080E0EADF21C081E0EAD1DD
:104DA00003E010E043E0E42EE0922F0310922E0384
:104DB0002A9A3AE0F32E8FEFF1D1FA94F110FBCF5B
:104DC00040E050E0BA0180E46DDFF82E66DF81E05C
:104DD000F7FC05C0F81631F00150110929F72496A7
:104DE000E6E0C8C24AEA51E060E070E088E45ADFD9
:104DF000813009F541E064E070E0CE010196DBD13D
:104E000089819A812B813C8139832A839B838C837E
:104E100044DF89819A81AB81BC81892F9A2FAB2F86
:104E2000BB278F709927AA27BB270197A105B1053A
:104E300019F083E0D4CF31DF30DF27DFC2967C0169
:104E400040E050E0BA0187E72DDF182F26DF113050
:104E500079F440E050E060E070E489E623DF082F59
:104E60001CDF0130D1F411DF8E199F0997FDE8CFC7
:104E70000CDF8C010E5C1F4F40E050E060E070E4FE
:104E800081E410DFF82E09DFFF2071F1FEDE801BC8
:104E9000910B97FDF1CF81E0A2CF0111E9CF40E066
:104EA00050E0BA018AE7FEDE8230E0F419821A820D
:104EB0001B821C8241E064E070E0CE0101967BD150
:104EC00080E490E0A0E0B0E049815A816B817C8170
:104ED00084239523A623B723892B8A2B8B2B11F0B0
:104EE00010932E03DADEC4CF41E050E060E070E0C2
:104EF0008BE7D8DE182FD1DE123008F09ACF40E0D1
:104F000052E060E070E080E5CDDE182FC6DE1111C2
:104F1000C2CF80E025D110922F033DCFA9E0B0E0B1
:104F2000E3E9F7E2FFC12B0169017A010E838111E8
:104F30004FC080912E03811107C099E0CC0CDD1C7D
:104F4000EE1CFF1C9A95D1F7460157013201882DBE
:104F50008C194E81841720F080E02996E2E1FEC191
:104F6000C30184199509092E000CAA0BBB0B9C01E7
:104F7000AD012C0D3D1D4E1D5F1D2A833B834C83CF
:104F80005D83198213013EEF331A80912E03B50120
:104F9000A40180FD04C04A815B816C817D8181E533
:104FA00081DE882331F079DE83E080932F0381E076
:104FB000D4CF6BDEC29699878887F6D08E3F51F0AA
:104FC00064DE48855985841B950B97FDF6CFEBCFA2
:104FD00084E0C3CF5FEF5EBD7986688610E000E0B5
:104FE0000DB407FEFDCF6EB55FEF5EBDE885F985B8
:104FF0006193F987E887C8012EDE8C012885398501
:105000002215330569F70DB407FEFDCF3EB5432FDA
:1050100050E0942F882799878887C6D0E885F9853E
:10502000E82BE017F10739F038DEF981FF5FF983EB
:10503000FA3009F0AACF31DE2FEF821A920AA20AC3
:10504000B20A39813A3009F4B2CF310180CFA7E0FA
:10505000B0E0ECE2F8E266C17A83698369017A0123
:105060000D83811179C0189979C080912E03811127
:1050700007C089E0CC0CDD1CEE1CFF1C8A95D1F723
:105080004601570129813A813F832E83882D8C194F
:10509000BD818B1720F080E02796E2E15FC14E8052
:1050A0005F8089819A81481A590A052C000C66088C
:1050B00077084C0C5D1C6E1C7F1C212CAE81BF81BF
:1050C000BE5FBC83AB8380912E03B501A40180FD3C
:1050D00002C0B301A20188E5E5DD882331F0DDDD02
:1050E00083E080932F0381E0D7CF8EEF57D02A98AB
:1050F000EE81FF81312C90E0DF018D918D018EBD1D
:105100006081832DA8DD382E0DB407FEFDCFF80198
:105110002B813C810217130779F7892F3FD0832D0C
:105120003DD042D08F70853099F0B7DD23943AE0BE
:105130002312C9CFB2DD8FEF881A980AA80AB80ADD
:105140009AE0291681F2AB81BC81BF83AE839ECFEA
:105150002BD08823E9F3EECF84E09ECF82E09CCF72
:10516000811105C081E08DBD81E58CBD08951DBC18
:1051700082E5FBCF95B1937C946395B994B1937C10
:105180009C6294B9811107C081E08DBD81E58CBD21
:105190008DB58EB508951DBC82E5F9CF8EBD0DB4D9
:1051A00007FEFDCF8EB508958FEF8EBD0DB407FEBF
:1051B000FDCF8EB50895680F791F2FEF86179707DB
:1051C00009F4089541110DC0FC0130813EBD0DB4BC
:1051D00007FEFDCF3EB5442311F0FC01308301965C
:1051E000EDCF2EBDF4CF1F920F920FB60F92112468
:1051F0002F933F934F935F936F937F938F939F93DF
:10520000AF93BF93EF93FF93809133069091340651
:10521000019690933406809333060ADC80FF1DC00C
:1052200080913306909134068F709927892B21F451
:1052300088B190E2892788B9FF91EF91BF91AF9132
:105240009F918F917F916F915F914F913F912F919E
:105250000F900FBE0F901F90189590912D03927094
:10526000892311F0459AE8CF4598E6CF82E084BDC6
:1052700085E085BD8DE987BD16BCEEE6F0E0808156
:10528000826080830895DB018F939F9341D0BF910B
:10529000AF91A29F800D911DA39F900DB29F900D85
:1052A00011240895AA1BBB1B51E107C0AA1FBB1FF5
:1052B000A617B70710F0A61BB70B881F991F5A95A2
:1052C000A9F780959095BC01CD010895A1E21A2E11
:1052D000AA1BBB1BFD010DC0AA1FBB1FEE1FFF1F9A
:1052E000A217B307E407F50720F0A21BB30BE40BEA
:1052F000F50B661F771F881F991F1A9469F7609531
:105300007095809590959B01AC01BD01CF010895EA
:1053100040D0A59F900DB49F900DA49F800D911D2E
:10532000112408952F923F924F925F926F927F9235
:105330008F929F92AF92BF92CF92DF92EF92FF92A5
:105340000F931F93CF93DF93CDB7DEB7CA1BDB0B51
:105350000FB6F894DEBF0FBECDBF09942A883988F6
:1053600048885F846E847D848C849B84AA84B984FD
:10537000C884DF80EE80FD800C811B81AA81B98109
:10538000CE0FD11D0FB6F894DEBF0FBECDBFED011D
:105390000895A29FB001B39FC001A39F700D811D0E
:1053A0001124911DB29F700D811D1124911D08952E
:1053B0000CD0EBC0E3D040F0DAD030F021F45F3F06
:1053C00019F0CCC0511115C1CFC0F0D098F399237A
:1053D000C9F35523B1F3951B550BBB27AA276217B9
:1053E0007307840738F09F5F5F4F220F331F441FFE
:1053F000AA1FA9F333D00E2E3AF0E0E830D0915036
:105400005040E695001CCAF729D0FE2F27D0660F22
:10541000771F881FBB1F261737074807AB07B0E861
:1054200009F0BB0B802DBF01FF2793585F4F2AF077
:105430009E3F510568F092C0DCC05F3FECF3983EA0
:10544000DCF3869577956795B795F7959F5FC9F7D4
:10545000880F911D9695879597F90895E1E0660F5D
:10546000771F881FBB1F621773078407BA0720F0D6
:10547000621B730B840BBA0BEE1F88F7E09508953F
:1054800004D06894B111B5C0089598D088F09F57A2
:1054900090F0B92F9927B751A0F0D1F0660F771F80
:1054A000881F991F1AF0BA95C9F712C0B13081F060
:1054B0009FD0B1E008959CC0672F782F8827B85FF0
:1054C00039F0B93FCCF3869577956795B395D9F7C1
:1054D0003EF490958095709561957F4F8F4F9F4FCB
:1054E0000895E89409C097FB3EF4909580957095D7
:1054F00061957F4F8F4F9F4F9923A9F0F92F96E920
:10550000BB279395F695879577956795B795F11194
:10551000F8CFFAF4BB0F11F460FF1BC06F5F7F4F31
:105520008F4F9F4F16C0882311F096E911C0772343
:1055300021F09EE8872F762F05C0662371F096E84C
:10554000862F70E060E02AF09A95660F771F881F1B
:10555000DAF7880F9695879597F9089597F99F67D9
:1055600080E870E060E008959FEF80EC08950024EB
:105570000A941616170618060906089500240A94B8
:1055800012161306140605060895092E0394000C3E
:1055900011F4882352F0BB0F40F4BF2B11F460FFCD
:1055A00004C06F5F7F4F8F4F9F4F089557FD9058F6
:1055B000440F551F59F05F3F71F04795880F97FBD7
:1055C000991F61F09F3F79F0879508951216130691
:1055D0001406551FF2CF4695F1DF08C016161706C0
:1055E0001806991FF1CF86957105610508940895F5
:1055F000E894BB2766277727CB0197F908950AD04F
:1056000029ED3BE54EED5EE345C00EF00BC1ACCF9E
:105610006894A4CFD3DFC8F39923D1F3C6F3DF9303
:10562000CF931F930F93FF92C92FDD2788232AF072
:105630002197660F771F881FDAF720E030E040E8F7
:105640005FEB9FE3883920F0803E30F021968F7722
:1056500085D0E8E6F0E003C081D0E5E9F0E0F0D0E5
:105660008B01BE01EC01FB2E6F5771097595771FF9
:10567000880B990B38DF28E132E741E35FE316D06E
:10568000AF2D9801AE01FF900F911F91CF91DF9147
:1056900076D07BCF0BD079CF6ADF28F06FDF18F0A0
:1056A000952309F05BCF60CF1124A3CF7FDFA0F358
:1056B000959FD1F3950F50E0551F629FF001729FA7
:1056C000BB27F00DB11D639FAA27F00DB11DAA1FC6
:1056D000649F6627B00DA11D661F829F2227B00D13
:1056E000A11D621F739FB00DA11D621F839FA00D9E
:1056F000611D221F749F3327A00D611D231F849FEE
:10570000600D211D822F762F6A2F11249F57504044
:105710008AF0E1F088234AF0EE0FFF1FBB1F661FDF
:10572000771F881F91505040A9F79E3F510570F098
:1057300015CF5FCF5F3FECF3983EDCF3869577950E
:105740006795B795F795E7959F5FC1F7FE2B880F93
:10575000911D9695879597F908955058BB27AA27CC
:105760000ED013CF04DF30F009DF20F031F49F3F7B
:1057700011F41EF4F9CE0EF4E095E7FBEFCEE92F1D
:1057800015DF80F3BA17620773078407950718F0CF
:1057900071F49EF52DCF0EF4E0950B2EBA2FA02DAF
:1057A0000B01B90190010C01CA01A0011124FF27CE
:1057B000591B99F0593F50F4503E68F11A16F040C9
:1057C000A22F232F342F4427585FF3CF46953795C8
:1057D0002795A795F0405395C9F77EF41F16BA0B8D
:1057E000620B730B840BBAF09150A1F0FF0FBB1F3B
:1057F000661F771F881FC2F70EC0BA0F621F731F84
:10580000841F48F4879577956795B795F7959E3FE0
:1058100008F0B3CF9395880F08F09927EE0F97956E
:10582000879508959F3F31F0915020F487957795A3
:105830006795B795880F911D9695879597F9089567
:10584000DF93CF931F930F93FF92EF92DF927B0131
:105850008C01689405C0DA2EEF0128DFFE01E89480
:10586000A5912591359145915591AEF3EF0187DFD3
:10587000FE019701A801DA9479F7DF90EF90FF908D
:105880000F911F91CF91DF9108950F931F93CF93A5
:10589000DF938230910510F482E090E0E0913706CA
:1058A000F091380630E020E0B0E0A0E0309799F4C5
:1058B0002115310509F44AC0281B390B2430310564
:1058C000D8F58A819B816115710589F1FB0193836C
:1058D0008283FE0111C040815181028113814817EA
:1058E0005907E0F04817590799F4109761F012969C
:1058F0000C93129713961C933296CF01DF91CF91A0
:105900001F910F9108950093370610933806F4CF36
:105910002115310551F04217530738F0A901DB0179
:105920009A01BD01DF01F801C1CFEF01F9CF9093DA
:10593000380680933706CDCFFE01E20FF31F819327
:1059400091932250310939832883D7CF209135068E
:1059500030913606232B41F420910201309103014E
:1059600030933606209335062091000130910101D5
:105970002115310541F42DB73EB7409104015091F6
:105980000501241B350BE0913506F0913606E21730
:10599000F307A0F42E1B3F0B2817390778F0AC0152
:1059A0004E5F5F4F2417350748F04E0F5F1F50932F
:1059B000360640933506819391939FCFF0E0E0E067
:1059C0009CCFCF93DF930097E9F0FC0132971382CD
:1059D0001282A0913706B0913806ED0130E020E048
:1059E0001097A1F420813181820F931F20913506F9
:1059F000309136062817390709F061C0F093360652
:105A0000E0933506DF91CF910895EA01CE17DF07C5
:105A1000E8F54A815B819E0141155105B1F7E90125
:105A2000FB83EA8349915991C40FD51FEC17FD07F9
:105A300061F4808191810296840F951FE901998319
:105A40008883828193819B838A83F0E0E0E01296D1
:105A50008D919C9113970097B9F52D913C911197D9
:105A6000CD010296820F931F2091350630913606A4
:105A70002817390739F6309751F5109238061092E9
:105A80003706B0933606A0933506BCCFD383C283C6
:105A900040815181840F951FC817D90761F44E5F6B
:105AA0005F4F88819981480F591F518340838A81B4
:105AB0009B81938382832115310509F0B0CFF09348
:105AC0003806E09337069ECFFD01DC01C0CF13827C
:105AD0001282D7CFFB01DC0104C08D9105908019A3
