:10000000E0C000000C94AA25F9C000000C944B2617
:10001000F5C00000F3C00000F1C00000EFC0000018
:10002000EDC00000EBC00000E9C00000E7C0000028
:10003000E5C00000E3C000000C94A928DFC0000068
:10004000DDC00000DBC00000D9C00000D7C0000048
:10005000D5C00000D3C00000D1C00000CFC0000058
:10006000CDC00000CBC0000008000000BE922449B3
:10007000123EABAAAA2ABECDCCCC4C3E00000080DA
:10008000BEABAAAAAA3E00000000BF000000803F4D
:100090000000000000084178D3BB4387D1133D190D
:1000A0000E3CC3BD4282AD2B3E68EC8276BED98F3A
:1000B000E1A93E4C80EFFFBE01C4FF7F3F0000007E
:1000C000000000EC09013E0703D40504CB0805FB42
:1000D00007078D0506B8070C1205FFFF0AAA0000E6
:1000E000016364000000000000016368646972003D
:1000F0000000026D64000000000000026D6B646986
:10010000720000000364656C000000000003646579
:100110006C657465000003726D6469720000000410
:10012000726E0000000000000472656E616D650073
:1001300000046D76000000000000046D6F7665001D
:1001400000000005637000000000000005636F7090
:1001500079000000000670776400000000000000D5
:100160000000000000000046415433320001030546
:1001700007090E10121416181C1E302E392E332E9D
:1001800031205B4845585449725D000164650000A8
:100190000000000001646576000000000002737436
:1001A0000000000000000273746F72650000000020
:1001B0000000000000000000FFF424FE0323AA005A
:1001C000000011241FBECFEFD8E0DEBFCDBF11E08D
:1001D000A0E0B1E0E6E0FCE502C005900D92A4329B
:1001E000B107D9F726E0A4E2B1E001C01D92A03228
:1001F000B207E1F70E9413250C94012E01CF28E0ED
:1002000039E040E8880F660F08F4842787FB0EF476
:1002100083272A95B9F78F770895EF92FF921F935E
:10022000CF93DF93DC01FB01EF017D019D911191E3
:10023000911105C0111107C081E090E01FC09F33EC
:1002400029F41111F1CF90E080E018C0911761F30B
:100250009A32C9F7BE01C7010196DFDF009761F747
:10026000112361F0BE016F5F7F4FC701D6DF31E020
:1002700020E0892B09F430E0832F922FDF91CF917A
:100280001F91FF90EF9008950F931F93CF93DF93EB
:10029000EC01FC0101900020E9F73197E81BF90B14
:1002A00005E010E00E1B1F0B1016110674F4AF01D1
:1002B0004F5F5F4FBC01800F911F0E945B2DA80113
:1002C00060E270E0CE010E946C2DCE01DF91CF91F3
:1002D0001F910F910895B0E0A0E0E1E7F1E00C94E8
:1002E0004E296B017C01EA01C114D104E104F1043F
:1002F00079F00E94272A0E94B52A0E94FB296F5F8D
:100300007F4F8F4F9F4F663071058105910570F4C7
:100310002AE0AE01C701B6010E948E2DCE01B4DFE6
:10032000CE01CDB7DEB7ECE00C946A294601570147
:100330008AE0B694A794979487948A95D1F7092C6C
:10034000000CAA08BB0861E070E080E090E0811436
:100350009104A104B10461F0C501B4010E94272AEF
:100360000E94B52A0E94FB296F5F7F4F8F4F9F4FDE
:100370006E5F7F4F8F4F9F4F6630710581059105EE
:1003800050F52AE0AE01C501B4010E948E2DFE0198
:1003900001900020E9F731978F010C1B1D0B8EE2B5
:1003A00080830F5F1F4F0C0F1D1FC701B6017370B5
:1003B000882799270E94272A2DEC3CEC4CEC52E42C
:1003C0000E948E290E94F629072E000C880B990B9B
:1003D0002AE0A801A1CF45E050E06FE370E0CE0134
:1003E0000E946C2D1D829CCF0F931F93CF93DF93A0
:1003F00021E2289FE001299FD00D112424960DE0D1
:1004000011E0F80180810E94ED21F80181810E94B4
:10041000ED218C2F0E94ED218D2F0E94ED21DF9187
:10042000CF911F910F910895CF93DF93C6E0D1E054
:1004300089910E94ED2181E0CD30D807C9F7DF9185
:10044000CF910895A6E0B0E0E8E2F2E00C945029E4
:100450007C01CB01BA016901AE014F5F5F4F3BDF09
:10046000B82E192FC7010E9421228FE10E94ED2191
:1004700080EA0E94ED218AEC0E94ED218AE10E942F
:10048000ED21EB2CF12E570185E0A80EB11CF701F0
:1004900081917F010E94ED21EA14FB04C1F780E203
:1004A0000E94ED2182E20E94ED215601F12CE12C07
:1004B0001E2DF60101900020E9F73197EC19FD0996
:1004C000EE16FF0678F082E20E94ED211131C1F4B0
:1004D000802F0E94ED2180E00E94ED212696EAE027
:1004E0000C946C29F50181915F010E94ED21FFEFD1
:1004F000EF1AFF0A81E1E816F104D1F611E1E3CF2A
:1005000080E20E94ED211F5FE1CFA6E0B0E0EBE8C2
:10051000F2E00C9450295C01CB01BA017901AE01E3
:100520004F5F5F4FD8DE6C01FC0101900020E9F7BE
:100530003197E81BF90BD7010D900020E9F71197CF
:10054000CD018E199F098E0F9F1F05960E942122B3
:1005500082E20E94ED2110E0812F90E0F6010190EF
:100560000020E9F73197EC19FD098E179F0718F164
:1005700082E20E94ED218CE20E94ED21D12C8D2D92
:1005800090E0F70101900020E9F73197EE19FF099B
:100590008E179F07C0F08CE20E94ED21802F0E94F1
:1005A000ED21F501808191810197918380832696C9
:1005B000EAE00C946C298C0D9D1DFC0180810E9449
:1005C000ED211F5FC9CF8E0D9F1DFC0180810E9410
:1005D000ED21D394D4CF0F931F93CF93DF93EC01EE
:1005E0008B0161E171E00E94732D892B91F060E134
:1005F00071E0CE010E94732D892B59F00115110570
:1006000031F0BE01C80109DE21E0892B19F020E09C
:1006100001C021E0822FDF91CF911F910F910895AA
:10062000A1E4B0E0E6E1F3E00C9454297A019E01E4
:10063000235E3F4F3C8F2B8FAB01BE016E5C7F4F23
:100640000E943B1D10E000E0882331F0C801CF5B21
:10065000DF4FE6E00C947029BE016F5F7F4FCE0143
:10066000C2960E948F1D8111F1CF8E85882371F370
:100670008B8D9C8DFC012081211102C0CE010E9634
:10068000B701A9DF8111E8CF0F5F1F4FE5CFA1E3CD
:10069000B0E0EDE4F3E00C944A297C014E018DE1D9
:1006A000880E911C9C8E8B8EF70127A530A941E204
:1006B000429FC001439F900D11240B960E9421225E
:1006C000F70187A590A990DECC24C394D12C15E125
:1006D0002701FEE14F0E511CF70187A590A98C154B
:1006E0009D0550F4A1DE80E00E94ED210E94BC2116
:1006F000E196E0E10C946629F401812F11928A952C
:10070000E9F7BE016F5F7F4FC2010E948F1D81110B
:10071000E9CF8E85882331F3AB8CBC8CF5018081C9
:10072000811103C0CE010E965C01898504E484FD2D
:1007300003C006E483FD06E5F70161A972A9C501BE
:100740004ADF8111C9CF3601FFEF6F1A7F0A498155
:100750005A816B817C819501C60174DE6301BCCF37
:10076000A1E3B0E0E6EBF3E00C944A296C015E01F2
:100770008DE1A80EB11CBC8EAB8E15E146019EE149
:10078000890E911CF501812F11928A95E9F7BE011E
:100790006F5F7F4FC4010E948F1D81112EC0EB8CB3
:1007A000FC8CF7018081811103C0CE010E967C0183
:1007B000898504E484FD03C006E483FD06E54980E1
:1007C0005A806B807C80F70180818823C1F0F6011C
:1007D00061A972A9C701FFDE8111D4CF9701B301CE
:1007E000A201C6018F9691DE80E00E94ED210E9459
:1007F000BC21E196E0E10C946629823031F490E06E
:1008000080E00E94212287E0F0CF90E080E00E940B
:10081000212286E0EACF8F929F92BF92CF92DF9201
:10082000EF92FF920F931F93CF93DF9300D01F920D
:10083000CDB7DEB78C01B62EF90146FFA8C00097F0
:1008400009F4A8C0DC019E968C919E9780619E96CB
:100850008C93D9011196BA83A9838181811103C038
:100860008AE281831282FD0101900020E9F731972D
:10087000EA1BFB0BEB83BE016D5F7F4FCE01019640
:100880000E943A23E980FA806FE270E0C7010E947B
:10089000832D4C01FC0101900020E9F73197E81B02
:1008A000F90B329708F463C001960E942D2D6C015C
:1008B000F4011182F70101900020E9F73197EE1958
:1008C000FF09E230F10538F03197EE0DFF1D808110
:1008D0008F3209F41082A601B70180E393E0A0DE15
:1008E000F80190AB87A7C114D10411F0D2AAC1AA14
:1008F000B11049C021E2289F6001299FD00C11242A
:10090000FBE0CF0ED11CB801625E7F4FA70180E3F0
:1009100093E00E943B1D10E0882321F013E08F300C
:1009200009F414E10E94A721811110C0111136C0F1
:1009300084E090E00E942122C6010E94212290E0E2
:1009400080E00E94212280E00E94ED210E94BC21D3
:100950000F900F900F90DF91CF911F910F91FF900B
:10096000EF90DF90CF90BF909F908F900895D12C03
:10097000C12C892B09F09ECFC7010E942D2D6C013F
:10098000D7011C9297CF8BE1C82ED12CBCCFD12C94
:10099000C12CC7CFD12CC12C11E2C4CF812F0E9412
:1009A0003F22D4CFE0910A06AAE0B6E090E0E91336
:1009B00010C091E09E0F90930A0695E0E99FF00128
:1009C0001124E65FF94F8183628343833583248357
:1009D000089511965C911197581305C013965C9178
:1009E00013975417A9F39F5F1596E1CFEBE5F3E05A
:1009F00030E020E09081992361F09181981309C043
:100A000045E3429FC001439F900D1124835A9C4FA0
:100A100008952F5F3F4FF5962830310559F790E044
:100A200080E00895A2E0B0E0E8E1F5E00C944C2904
:100A30008C01FC018281DADF4C01F801078110850D
:100A4000E12C892B11F442E0E42E77247394F12CED
:100A5000B12CA12CD12CC12C0115110509F456C0C3
:100A6000EE2059F080912401811102C086E0F82E19
:100A70006F2DC8010E94DC2212C0602EE12E0038CA
:100A8000110518F03FE7632EE12C662D7E2D89E0DD
:100A900095E00E94C222882331F00E94B52122965F
:100AA000EEE00C946829772021F0C0900B05D090DF
:100AB0000C059E012F5F3F4F462D5E2D68E875E0C7
:100AC000C4010E940D19E82E772021F0A0908A051C
:100AD000B0908B0569807A80CA14DB0469F4A301A5
:100AE00069E075E088E895E00E94452D892B39F48E
:100AF00006191709712CB0CF2CE0F22EF9CF98E12E
:100B0000F92EF6CF8F2D0E943F22C9CF0E94A72138
:100B10008823C1F30E94BC21C2CF0F931F93CF93B0
:100B20008C01FC01828181111BC0C0912501C11182
:100B3000C0E1C3600E94A72181110FC0F801858127
:100B40009681892B51F181E090E00E9421228C2F27
:100B50000E94ED2180E00E94ED210E94BC2120C076
:100B600045DFFC01C7E4892B29F386A584FD0FC06E
:100B7000448155816681778180859185A285B38581
:100B8000481759076A077B0731F4C3EDD3CF87A510
:100B900090A9892BD1F3C3E5CDCF8CE00E943F22F1
:100BA000CF911F910F9108954F925F926F927F9214
:100BB000AF92BF92CF92DF92EF92FF920F931F936B
:100BC000CF93DF9300D01F92CDB7DEB76C01FC014D
:100BD000F280FFEFFF1621F080910F01F81214C090
:100BE0000E94C3240F900F900F90DF91CF911F911F
:100BF0000F91FF90EF90DF90CF90BF90AF907F90DC
:100C00006F905F904F9008958F2DF0DE8C010097CC
:100C100009F406C1FC0186A584FF07C0C801F110D4
:100C200002C035DDDFCF9CDDDDCF85FF11C0F601D1
:100C30002581368183819481289FA001299F500DB1
:100C4000389F500D112470E060E0C8010E94C21B63
:100C5000F80144805580668077808085918584196D
:100C60009509B9F1F6012281222309F464C02E3FCF
:100C700009F461C0F80186A585FF07C0F6018581EA
:100C80009681009709F057C024C09E012F5F3F4F07
:100C900041E050E0BE016D5F7F4F83FF3EC0C80161
:100CA0000E940D19F12CE12CB12CAA24A3948111DE
:100CB00009C089819A81019729F48B818A30A9F42E
:100CC000B11017C0B301A201C8010E94C21B882342
:100CD00011F1D12CC12CC6010E94212220E1F22E5B
:100CE000811101C0F12C80E062C08D3011F4BB2075
:100CF00031F0FFEFEF1AFF0A823209F4BA249E01A5
:100D00002F5F3F4F41E050E0BE016D5F7F4FC80154
:100D10000E940D19CCCFC701B4CFC8010E940D1994
:100D2000F82EB301A201C8010E94C21B8B8190E082
:100D30000196F110CECFF601C580D6808C159D05A9
:100D400050F66C01C8CFF80186A584FD16C0A60137
:100D5000FFEFCF16D10419F010F04FEF50E09E01D5
:100D60002F5F3F4F69E075E0C8010E940D1990E0C8
:100D7000811118C0F12C90E00DC0DA82C982FACF3F
:100D8000275F3A4FF90180810E94ED2190E08111A7
:100D900090E1F3942F2D30E049815A8124173507D3
:100DA00078F380E029813A81C21AD30AF92EC1145E
:100DB000D10459F1F1102BC0882329F2803168F554
:100DC000E82FF0E0ED5EFE4FF080F11020C0F8015A
:100DD00086A583FF1CC09E012F5F3F4F41E050E07E
:100DE000BE016D5F7F4FC8010E940D198B818D3050
:100DF00071F49E012F5F3F4F41E050E0BE016D5FF7
:100E00007F4FC8010E940D1902C0FF20B9F28F2D3B
:100E10000E94ED210E94BC21E5CE96E0F92EF7CF8D
:100E200090E080E00E942122809124018823A9F390
:100E300083E0F82EECCF1F93CF93DF93182FCBE5F1
:100E4000D3E08881882389F0898181130EC01882BC
:100E50008BA99CA9009711F00E94972C80912501E5
:100E60008150809325010E94E524E59685E0C330FA
:100E7000D80739F7DF91CF911F9108950F931F93F2
:100E8000CF938C01FC01828190910F01891711F0A1
:100E90008F3F49F40E94BC248FEF80930F01CF91C4
:100EA0001F910F910895A2DD0097D1F0FC0126A5B6
:100EB000C0E024FD03C00E94B71BC82FF801828147
:100EC000BADFC03190F4EC2FF0E0ED5EFE4FC08150
:100ED0000E94A72181110BC08C2F0E943F22DFCFDF
:100EE00080912401C4E08111F3CFC6E0F1CF0E94CC
:100EF000BC21D5CFCF93DF93EBE5F3E030E020E0EA
:100F0000908191111DC095E3929FE001939FD00DB8
:100F10001124FE01E55AFC4F91E09083818314AACD
:100F200013AA10AA809125018F5F8093250181E08B
:100F30000E94E524CE01835A9C4FDF91CF91089502
:100F40002F5F3F4FF59628303105D1F690E080E0D5
:100F5000F4CF8091240181110AC060E373E081E045
:100F60000E94D017811103C081E08093240108956D
:100F7000A3E0B0E0EEEBF7E00C9456298C01E9DF3A
:100F8000F801878190858F3F910541F038F06FE13E
:100F90000E94DC222396E4E00C9472298B83BC012E
:100FA00089E095E00E94C222182F811119C089E0C2
:100FB00095E09A838983BE016D5F7F4FCE010196D4
:100FC0000E943A2369817A8180E393E00E943B1E6C
:100FD00016E0803128F4E82FF0E0ED5EFE4F10813E
:100FE0000E94A721811104C0812F0E943F22D2CFED
:100FF0000E94BC21CFCF0F931F93CF93DF93EC01BF
:10100000A8DF80912501882341F08A81EFDC8C01E3
:10101000C6E0892B29F0C0E003C010E000E0C4E086
:101020000E94A721811116C0C1110AC0F80186A52E
:1010300084FD0EC040E050E0BA01C8010E94C21B0E
:101040008C2F0E943F22DF91CF911F910F91089525
:10105000CDE0F6CF0E94BC21F6CFADE0B0E0E3E3F7
:10106000F8E00C9457299E838D836A878D819E8139
:101070009C878B878A858D879E01265F3F4FAE01B7
:101080004B5F5F4FBE01635F7F4FCE010B960E94A7
:10109000FB238D852B853C853C832B838987BE0173
:1010A000675F7F4FCE0103960E943A23AE01475FF0
:1010B0005F4FBE016D5F7F4F80EE90E00E946A231C
:1010C000182F882371F0BE01675F7F4FCE01039612
:1010D0000E943A236B817C81123021F180F411301F
:1010E000C9F048E055E069858B819C810E944024CD
:1010F000882309F44CC02D96E3E00C947329133037
:10110000B1F0143071F71886998588858917A0F099
:1011100081E0F1CF80E393E00E9457208823B9F16A
:1011200086E0E9CF80E393E00E94101FF7CF80E3D1
:1011300093E00E943B1EF2CF282F30E0FB01E20F2C
:10114000F31F40814D3301F52F5F3F4F620F731F37
:101150007A8369839150981B9F83BE01685F7F4F9C
:10116000CE0103960E943A23BE01695F7F4FCE01F4
:1011700001960E943A2349815A816B817C8180E3E8
:1011800093E00E94A220CACF8F5F8887BECF8A8556
:1011900081116CCFB0CFA2E0B0E0E1EDF8E00C94AB
:1011A0004E296C01DC011796AD90BC9018971296F1
:1011B0008C9190910F01891711F08F3FC9F4C501EF
:1011C0000E94B024811110C0F601678189E095E08A
:1011D00044DF182F0E94A721811104C0812F0E9493
:1011E0003F2202C00E94BC212296ECE00C946A29A6
:1011F000FDDB8C0152E0E52E0097F1F1DC019E96BB
:101200008C919E97E12C85FF37C018964D915D918A
:101210006D917C911B97D6011596ED91FC911697D7
:1012200013962D913C91E29FC001E39F900DF29F98
:10123000900D1124B0E0A0E0481759076A077B071A
:10124000C0F5C8010E94C21BE82E10920905F801E2
:1012500080849184D60115964D915C9116971396D2
:101260002D913C91429FC001439F900D529F900D44
:1012700011248816990670F0F12CA114B10409F418
:1012800084C0F11002C0EE20D9F00115110509F05B
:101290007FC097C09E012F5F3F4F41E050E069E063
:1012A00075E0C8010E94121AE82EFFEF8F1A9F0AFC
:1012B000D1CFAC01BD01C8010E94C21BE82EDCCF1A
:1012C0004501BFEFAB16B10421F018F088248A94D1
:1012D000912CB40189E095E00E94C222F82E0115FC
:1012E000110599F0811111C09E012F5F3F4FA4019C
:1012F00069E075E0C8010E94121AE82E89819A817E
:101300008815990511F036E0E32EA818B908B5CF75
:101310009E012F5F3F4F41E050E069E075E0C8015A
:101320000E94121AE82EEFEF8E1A9E0A3EC0F801B4
:1013300086A583FF15C08DE0809309058AE0809320
:101340000A059E012F5F3F4F42E050E069E075E0E3
:10135000C8010E94121AE82E89819A81029791F49D
:10136000F1100AC0FFE086E0F82EFE1528F0EE2D01
:10137000F0E0ED5EFE4FF0800E94A721811132CF98
:101380008F2D2DCF9CE0F92EF7CF0115110541F3DC
:10139000F80186A585FF11C010920905D6011796A0
:1013A0008D909C90BFEF8B1A9B0AD60115968D915C
:1013B0009C918815990508F0ABCFA114B10409F4EC
:1013C000B6CF80912401811102C026E0F22E6F2D4C
:1013D000C5010E94DC2208CFA6E0B0E0E2EFF9E010
:1013E0000C9453297C011C821B821E82B2DDD70122
:1013F00012968C9168E08F3F09F06FE19E012A5FA1
:101400003F4FAE014D5F5F4FC7010E940823182F69
:10141000811131C0F701878183508D838CE095E085
:101420009A838983BE016B5F7F4FCE0101960E9434
:101430003A23E981FA819081D70112968C91992300
:1014400011F08F3F79F480930F018081882321F080
:101450006D81CF0102DE182F612F8FEF90E00E9487
:10146000292409C0943259F445DD29813A814E81FD
:10147000F7016281D0D92696E7E00C946F299E810E
:10148000907C5AE0D52E903851F063E1D62E903CF6
:1014900031F072E1D72E992311F0DD24D39490918D
:1014A0002401992309F452C025DD8C01009709F429
:1014B0004DC049815A812D2DBC0180E393E00E94EB
:1014C000D81781110DC09E81907C71F4D8011896B7
:1014D0004D915D916D917C911B97C8010E94C21B3B
:1014E00046E0D42E803158F5E82FF0E0ED5EFE4F57
:1014F000D080D11024C0F801808591852E8125FFF0
:1015000004C0F80136A5306236A7D11016C0322FBC
:101510003870207C203449F1311109C0D70112966E
:101520008C91882321F0F80186A5886086A78B819D
:101530009C81009711F48FEF90E06D2D90CFD70133
:1015400012968C9178DC90E080E0D8CF80912401D5
:1015500010E000E090E0882321F080E031E2D32E1B
:10156000CDCF80E026E0D22EC9CF311107C0D801FF
:101570009E962C919E9728609E962C93F70122812F
:101580002111D5CFDACF8091030560910805811133
:1015900001C064E622EC30E045E784E603DA0C940F
:1015A0005E260895CF93DF93D4DC80912501C5E3B7
:1015B000811109C0DF91CF910895835A9C4F0E94F9
:1015C000B71B8D2F38DCEBE5F3E030E020E08081C5
:1015D000882371F0C29FC001C39F900D1124FC01AC
:1015E000E55AFC4FD18120912401222351F3E5CF0C
:1015F0002F5F3F4FF5962830310549F7DBCFD2DF1B
:101600000E94BC210E94A7218823E1F30895EBE505
:10161000F3E0108215AA1092C5031092FA031092FB
:101620002F0410926404109299041092CE04109228
:10163000250110922401A7DF0C945E260895EF92F5
:10164000FF921F93CF93DF9382E090E00E94E52DFD
:101650007C0110E0C2E0D0E0CE15DF0590F081E023
:1016600090E00E94DD2D8117A1F012BC11BC1092F8
:10167000030512BC11BCDF91CF911F91FF90EF9039
:101680000895CE01805090400E94DD2D180F2196C4
:10169000E3CFA70160E070E083E095E00E94CD2DEC
:1016A00081E080930305E5CFE3E0F5E0828193815B
:1016B000890F9481890F9581890F26E030E033836B
:1016C0002283818346E050E060E070E0CF010E9419
:1016D000EA2D12BC11BC08950F931F93FC019A01CF
:1016E000AB01225031094109510986819781A085BA
:1016F000B1850297A109B109281739074A075B0785
:1017000078F4A0A5B0E00E943E29028913892489BB
:101710003589600F711F821F931F1F910F910895CC
:1017200060E070E0CB01F9CF0F931F93CF93DF936D
:101730008C01DB01FC013D969C012B5E3F4FEB01D0
:101740008991BE01803261F0853009F485EEAF01E8
:101750004F5F5F4F80834217530709F052C0F90172
:1017600018968C9118978032A9F08EE28083BD0183
:10177000685F7F4FCF0104963196EB014991BE011E
:10178000403241F09F012F5F3F4F408328173907B8
:10179000D1F5FC0110821B968C911B97F801808774
:1017A0005C964D915D916D917C915F9740835183E3
:1017B0006283738358968D919C9159979583848306
:1017C00056968D919C9157979783868354964D9109
:1017D0005C91559770E060E0BA01552744275A960E
:1017E0008D919C91B0E0A0E0842B952BA62BB72B7C
:1017F00081879287A387B487DF91CF911F910F9143
:101800000895FA019CCFF901B8CF90EE980F2FE917
:10181000280F2A3100F19B30E8F09FEB980F9A31A6
:10182000C8F090ED980F9A30A8F087FD13C081366C
:1018300050F48E3578F48C3220F08E3258F08D339F
:1018400049F08FE507C08B3729F0D8F393E8980F5C
:101850009230B8F70895892F0895CF93009799F0A3
:10186000FC0127A1211103C081E0CF910895C62F6B
:1018700082A50E946D2680FDF7CFCC2331F082FF38
:1018800004C089E0F2CF8AE0F0CF80E0EECF00978D
:1018900049F0FC0127A1222329F082A50E946D2690
:1018A000817008958CE008954F925F926F927F92BD
:1018B000AF92BF92CF92DF92EF92FF920F931F935E
:1018C000CF93DF93C0912B01D0912C014090260142
:1018D0005090270160902801709029014416550608
:1018E0006606770629F4C817D90711F481E02FC0DE
:1018F0006A017B015C0180912A0181111DC0C11424
:10190000D104E104F10491F301E0A70196016DE235
:1019100071E0F50182A50E944427811117C0C09291
:101920002601D0922701E0922801F0922901B0927D
:101930002C01A0922B01DACF01E0A30192016DE20C
:1019400071E08AA50E94DD27882381F080E0DF9185
:10195000CF911F910F91FF90EF90DF90CF90BF90AC
:10196000AF907F906F905F904F90089510922A01F2
:101970008A859B85AC85BD854A815B816C817D8133
:10198000840F951FA61FB71F481659066A067B06C7
:1019900008F0B5CF19A5123008F4B1CF8A819B8128
:1019A000AC81BD81480E591E6A1E7B1E01E0A30159
:1019B00092016DE271E08AA50E94DD271150EBCF04
:1019C00073CF0895CF92DF92EF92FF920F93CF9350
:1019D000DF93EC016A017B01F3DF811109C082E032
:1019E000DF91CF910F91FF90EF90DF90CF9008950E
:1019F000CD28CE28CF2899F401E020E030E0A901DD
:101A00006DE271E08AA50E9444278111E8CF10920F
:101A1000260110922701109228011092290180912D
:101A20002B0390912C0385359A4AC9F643E050E088
:101A300067E671E083E691E00E94202D892B81F01A
:101A400045E050E067E671E08FE791E00E94202DCD
:101A5000892B41F480915501881F8827881FC0CFAA
:101A600080E0BECF81E0BCCFB0E0A0E0EAE3FDE0E3
:101A70000C944D29423051056105710528F461E04F
:101A800070E080E090E054C0FC0106811781208561
:101A90003185401751076207730788F76A017B0198
:101AA0008C0182849384A484B58487A1823009F454
:101AB00046C0833009F45AC0813009F7EA01CC0FDF
:101AC000DD1FC40FD51FCE01892F992786958695D6
:101AD000B501A401480F591F611D711DC80170DFB8
:101AE000882369F2D695C795FE01F170EA5DFE4F35
:101AF00077802196CE01892F99278695B501A4017B
:101B0000480F591F611D711DC8015ADF882309F450
:101B1000B6CFD170CA5DDE4F6F81762F672DC0FEC4
:101B20000CC044E0769567954A95E1F790E080E037
:101B3000CDB7DEB7EDE00C9469297F70F7CF77273A
:101B40006F2D5E2D4D2D480D591D6A1D7B1DCF013A
:101B500037DF882309F493CFF601EE0FFF1FEE7FE6
:101B6000F170E35DFE4F60817181E0CF97E0769583
:101B70006795579547959A95D1F7480D591D6A1D58
:101B80007B1DCF011DDF882309F479CFF601EE0F0D
:101B9000FF1FEE0FFF1FEC7FF170E35DFE4F6081D2
:101BA0007181828193819F70C3CFB0E0A0E0EBEDA3
:101BB000FDE00C945229EC01088119810F5F1F4F41
:101BC000C8018F709927892B09F04CC08C859D85A1
:101BD000AE85BF850196A11DB11D8C879D87AE87FF
:101BE000BF87488559856A857B858A819B81FC01F1
:101BF000411551056105710559F4808191810817DE
:101C0000190780F180E0CDB7DEB7E8E00C946E29CB
:101C100020A52150330BF801A4E0F695E795AA958D
:101C2000E1F72E233F23232BE9F41EDFAB01BC0198
:101C3000423051056105710528F38A819B81FC01C1
:101C4000C680D780E084F1844C155D056E057F0564
:101C5000C8F6488759876A877B873EDD6C877D8712
:101C60008E879F871983088381E0CDCFA6E0B0E0FF
:101C7000ECE3FEE00C944A299E838D836A017B018C
:101C800048015901DC011A964D905D906D907C9051
:101C90001D9797968C919797823009F46CC083308A
:101CA00009F481C08130A1F48A01000F111F040FD3
:101CB000151FC801892F992786958695B301A20122
:101CC000480F591F611D711DCD017ADE811102C0BF
:101CD00080E046C016950795F801F170882DEA5D01
:101CE000FE4FA701960121703327442755272983EA
:101CF0003A834B835C83C0FE07C087818F7040E1CD
:101D0000849E90011124822B87830F5F1F4F81E0F7
:101D100080932A01C801892F99278695B301A201D2
:101D2000480F591F611D711D8D819E8149DE8823D9
:101D300079F21170F801EA5DFE4F89819A81AB81D9
:101D4000BC81892B8A2B8B2B79F044E0B694A79425
:101D5000979487944A95D1F7878281E080932A01EE
:101D60002696E0E10C9466298781807F992D9F70EB
:101D7000892E882AF1CF77276F2D5E2D4D2D440DAA
:101D8000551D661D771D8D819E811ADE882309F4FD
:101D90009FCFF601EE0FFF1FEE7FF170E35DFE4F68
:101DA00011830083DACF97E076956795579547952D
:101DB0009A95D1F7440D551D661D771D8D819E8125
:101DC000FFDD882309F484CFF601EE0FFF1FEE0F2D
:101DD000FF1FEC7FF170E35DFE4F80829182A28253
:101DE000B382BBCFA6E0B0E0E8EFFEE00C944A2956
:101DF0009E838D832A013B01DC0116968D919D9176
:101E00000D90BC91A02D89839A83AB83BC83411430
:101E1000510461047104A9F4ED81FE81828C938CDC
:101E2000A48CB58C81149104A104B10429F0881606
:101E30009906AA06BB0628F1812C912C54018394A3
:101E400020C08D819E8110DE6B017C01F2E0CF16F7
:101E5000D104E104F10450F4C12CD12C7601C394D7
:101E6000C701B6012696E0E10C94662989819A8122
:101E7000AB81BC81C816D906EA06FB0688F353017C
:101E80004201750164019FEFC91AD90AE90AF90AEA
:101E900089819A81AB81BC81C816D906EA06FB0606
:101EA00078F092E089169104A104B10420F4C12CC9
:101EB000D12C7601D5CF82E0C82ED12CE12CF12C8B
:101EC000B701A6018D819E81CFDD61157105810568
:101ED000910561F0613071058105910509F4BCCF70
:101EE000C814D904EA04FB0471F6E1CF0FEF1FEF29
:101EF0002FEF3FE0B701A6018D819E81B7DE8823D9
:101F000009F4AACF411451046104710401F5AD81B3
:101F1000BE815A96CD92DD92ED92FC925D97FD01C5
:101F2000868D978DA0A1B1A18F3FFFEF9F07AF07CF
:101F3000BF0709F495CF0197A109B109ED81FE8191
:101F4000868F978FA0A3B1A381E086A389CF970145
:101F50008601B301A2018D819E8188DE8111D7CFD8
:101F60007BCFB0E0A0E0E7EBFFE00C944D29EC0163
:101F70006A017B017724739482E0C816D104E104DE
:101F8000F10448F08E819F81A885B985C816D906CD
:101F9000EA06FB0610F081E00DC0B701A601CE01F4
:101FA00063DD4B015C0121E082169104A104B104C0
:101FB00031F480E0CDB7DEB7EDE00C94692900E0A4
:101FC00010E09801B701A601CE0150DE882389F305
:101FD0008E8D9F8DA8A1B9A18F3F2FEF9207A207E9
:101FE000B20741F00196A11DB11D8E8F9F8FA8A34E
:101FF000B9A37EA275016401BFCF2F923F924F9289
:102000005F926F927F928F929F92AF92BF92DF9278
:10201000EF92FF920F931F93CF93DF93CDB7DEB76D
:102020002C970FB6F894DEBF0FBECDBF9C878B8771
:102030007A876987DC011296ED90FC90CA01499677
:102040006DE070E00E9408295B01EB85FC8544800F
:10205000558066807780411451046104710409F44D
:1020600040C04086518662867386B301A201C701D3
:1020700033DBEB85FC856487758786879787AB851F
:10208000BC851D921C9219821A821B821C821D82A1
:102090001E821F821886312C212C10E0EB85FC85D6
:1020A0004485558566857785C7018ADC811125C001
:1020B00088E02C960FB6F894DEBF0FBECDBFDF913F
:1020C000CF911F910F91FF90EF90DF90BF90AF9055
:1020D0009F908F907F906F905F904F903F902F9048
:1020E0000895F70186859785A089B189EB85FC85E0
:1020F00084879587A687B787C2CFAB85BC858D912E
:102100009C918F70992725E0880F991F2A95E1F7F8
:10211000FC01EA5DFE4F2781222311F0253EF1F5F7
:1021200021E0210F111121C0835D9E4FE985FA85C1
:1021300091838083AB85BC852D903C9011971C9634
:102140008D919D910D90BC91A02D89839A83AB8335
:10215000BC83AB85BC8518968D919D910D90BC91EB
:10216000A02D8D839E83AF83B8872A151B0429F584
:10217000EB85FC853182208289819A81AB81BC818B
:1021800084879587A687B7878D819E81AF81B88523
:1021900080879187A287B38780E08BCF1A151B04B5
:1021A00009F010E08B859C8500DD811177CF4528F3
:1021B0004628472821F486E07CCF122FF3CFAB8549
:1021C000BC8518964D915D916D917C911B97C701CF
:1021D00009DE4B015C0181149104A104B10459F39F
:1021E000B1E08B169104A104B10409F461CF40E081
:1021F00050E0BA01C701E4DB882309F459CFB501E7
:10220000A401C70169DA2B013C01409226015092DA
:1022100027016092280170922901EDE2F1E080E04F
:1022200092E0DF019C011D9221503040E1F7D7017F
:102230009896DC90D11019C081E080932A01112377
:1022400031F149815A816B817C81C701B9DB8823D7
:1022500009F42ECFAB85BC852D923C9289819A8161
:10226000AB81BC81EB85FC858BCF01E0A3019201A2
:102270006DE271E0F70182A50E94DD27811118CF80
:10228000FFEF4F1A5F0A6F0A7F0ADA94D3CFAB854C
:10229000BC851D921C928091260190912701A091EE
:1022A0002801B0912901EB85FC8584879587A68755
:1022B000B78780869186A286B3868DE291E0E98514
:1022C000FA859183808368CF0F93CF93DF93EC01DE
:1022D00081E080932A0140E050E0BA01CE0170DB3A
:1022E000882309F45CC08FA1833009F056C08EA109
:1022F000882309F452C010922601109227011092EF
:10230000280110922901EDE2F1E080E092E0DF0186
:102310009C011D9221503040E1F785E59AEA9093A7
:102320002C0380932B0382E592E5A1E6B1E4809330
:102330002D0190932E01A0932F01B093300182E7DD
:1023400092E7A1E4B1E68093110390931203A09366
:102350001303B09314038E8D9F8DA8A1B9A1809310
:10236000150390931603A0931703B09318038A8D57
:102370009B8DAC8DBD8D8093190390931A03A09310
:102380001B03B0931C032AA13BA14CA15DA101E05A
:10239000BF018AA50E94DD271EA280E001C088E05F
:1023A000DF91CF910F910895A8E0B0E0EAEDF1E15F
:1023B0000C94482998878F835B014A013E832D83C3
:1023C0001A830983FC82EB82DC011296ED90FC906B
:1023D000F70146895789608D718D41155105610559
:1023E000710521F0D4018C918F3241F4F7014685BB
:1023F00057856089718987A18330C1F4AF81B88521
:1024000014964D935D936D937C931797FD014087D0
:10241000518762877387C7015FD9AF81B8851C96E2
:102420006D937D938D939C931F970EC0EF81F885DC
:1024300014821582168217821086118612861386E0
:102440004487558766877787EF81F88511821082E8
:10245000A981BA811396FC92EE921297F4013F0182
:1024600081918F32E1F3811108C0ED81FE811182EB
:1024700010822896E2E10C94642911E0AB81BC81C2
:102480006D927C924BE050E060E270E0C5010E94EA
:102490006C2D98E080E0F3013196D3010C9100237C
:1024A00011F00F3261F4882309F487C1D5011B961E
:1024B0001C92D6011D921C923F01412C47C0003254
:1024C00008F47BC10F3709F478C1003299F00E325D
:1024D00009F08FC0882309F4A9C0813049F4D501DF
:1024E0002C912E3209F49FC09BE088E03F01D3CFAE
:1024F0008930D0F30C3509F460C10A3309F45DC1A9
:10250000802F877F823209F458C1802F8F7B8C33D4
:1025100009F453C10E53023008F44FC13F01BFEF1D
:102520006B1A7B0A0081002319F0F3010F3211F7B7
:10253000AB81BC818D919C91F301E81BF90BCF011C
:102540000197D6018D939C9344244394013009F460
:1025500030C1912C812C55245394EF81F88544850A
:10256000558566857785C7012BDA882309F423C151
:10257000112319F1EF81F88580859185A285B385B6
:10258000E981FA8180879187A287B387EF81F885F7
:1025900084859585A685B785E981FA8184879587A5
:1025A000A687B787AF81B8858D919C9191838083F1
:1025B000411003C0F60111821082AF81B8858D9160
:1025C0009C918F70992725E0880F991F2A95E1F734
:1025D000FC01E35DFE4F1F018A5D9E4FDC011796F3
:1025E0006C91611129C082E0002309F442CF83E09D
:1025F00040CF023209F4E1C00A32A8F00D3208F4EB
:1026000079CF0A3380F0003408F474CF0C3709F422
:10261000D4C025EA200F233008F46CCF2FE9200F17
:102620002A3108F40052891708F064CFD501A80FA9
:10263000B11D0C938F5F5ACF653E09F480C083852E
:10264000982F9F709F3009F053C0442009F449C06F
:102650006F716150FDE06F9F602D11248DE691E058
:1026600050E0462F450F51100EC0850E911C10E012
:102670008F8198859ADA811170CF4110B4CFF6011D
:1026800011821082B0CFFC012491F101E20FF11D03
:10269000208131E0350FFC017491F101E70FF11D4C
:1026A0007181211102C0772301F3AB81BC81ED91CF
:1026B000FC91E40FF11D40815FE9540F5A3108F499
:1026C00040525FE9520F5A3108F420525524539476
:1026D0002413512C01963D3011F0532FC2CF5DE0F1
:1026E000C4CFF601808191810D9691838083BFCF05
:1026F0004420D9F0552029F1D6018D919C9188155F
:10270000990521F58BE0D50101900D928A95E1F7AD
:10271000F1018485D5011B968C93011119C0AD81FF
:10272000BE812D923C9280E0A4CE83FD08C04BE098
:1027300050E0B501CF010E94452D892B71F311E0C6
:1027400097CF142D542C912C812C92CF152DFBCF8B
:10275000F101838584FF4BCF4489558970E060E0A7
:10276000BA0155274427828D938DB0E0A0E0482B15
:10277000592B6A2B7B2BAF81B88514964D935D93B3
:102780006D937C931797FD0140875187628773870C
:10279000C7010E946C0BAF81B8851C966D937D9329
:1027A0008D939C931F97E2E0F0E0ED93FC9310E093
:1027B00065CE84E05ECE88E05CCE01E07ACEA6E015
:1027C000B0E0E5EEF3E10C944A29182F7E836D8387
:1027D000F42E8BE2DB011D928A95E9F7812F829519
:1027E0008F70ED81FE8182A70E94772680FD95C1C2
:1027F000FF2011F082FD93C11F7009F026C140E057
:1028000050E0BA018D819E81DDD8C12CD12C76019A
:10281000811168C1809138019091390181159240F0
:1028200009F063C1209143013091440150E040E040
:10283000211531054105510541F420915101309197
:1028400052014091530150915401AD81BE811296C5
:102850002D933D934D935C931597A0913D01ED8190
:10286000FE81A1A7B0E00E943E2969837A838B8311
:102870009C8380913B0190913C0146015701880E59
:10288000991EA11CB11C82869386A486B5864091B0
:102890003A0140A740903E0150903F015182408252
:1028A0008091400190914101B0E0A0E00097A10526
:1028B000B10541F480914D0190914E01A0914F01DD
:1028C000B091500124E0569447942A95E1F7712C79
:1028D000612C20913B0130913C01821B930BA1099B
:1028E000B109BC01CD0109811A812B813C81601B9A
:1028F000710B820B930B6419750986099709242FB4
:1029000030E050E040E00E941C29DA01C901029643
:10291000A11DB11DED81FE8186839783A087B187BC
:10292000873FFFE09F07A105B10508F4E0C0873F9E
:102930009F4FA105B10508F4EEC083E0AD81BE81D3
:1029400097968C938091590190915A01A0915B01C7
:10295000B0915C01ED81FE8186879787A08BB18B5A
:1029600013E0840C951CA61CB71C89819A81AB814D
:10297000BC81880E991EAA1EBB1EAD81BE815296D7
:102980008D929D92AD92BC9255978FEF9FEFDC0197
:10299000ED81FE81868F978FA0A3B1A3133009F03C
:1029A0004EC080915D0190915E01B701A601480F74
:1029B000591F611D711D42A353A364A375A3CF01C9
:1029C0000E94E00C8823D9F180912B0390912C0375
:1029D00085359A4AA1F580912D0190912E01A09103
:1029E0002F01B091300182359245A146B14439F5AD
:1029F0008091110390911203A0911303B0911403DD
:102A000082379247A144B146D1F480911903909145
:102A10001A03A0911B03B0911C03ED81FE81828FEC
:102A2000938FA48FB58F8091150390911603A09179
:102A30001703B0911803868F978FA0A3B1A3AD8120
:102A4000BE8197961C9380E09CC001E020E030E0BE
:102A5000A9016DE271E0AD81BE819A968C910E94D0
:102A60004427811142C01530C8F4212F2150330B67
:102A7000F90134E0EE0FFF1F3A95E1F7E551FD4F04
:102A80008481882391F1C084D184E284F384B701E6
:102A9000A6018D819E810E94E20CBACE1450812C39
:102AA000912C54018091EF028530D9F18F30C9F11A
:102AB0008091FF02853009F468C08F3009F465C049
:102AC00080910F03853009F463C08F3009F460C032
:102AD00080911F03853019F08F3009F051C0EBE170
:102AE000F3E021C08F3F09F44BC08BE04AC011E0F6
:102AF000AD81BE8197961C9389819A81AB81BC81FF
:102B0000880D991DAA1DBB1DED81FE8186879787C3
:102B1000A08BB18B26CF12E0EBCF81E032C089E0F1
:102B200030C0EBEEF2E0C084D184E284F384C80CC0
:102B3000D91CEA1CFB1C81149104A104B10411F4FA
:102B40004601570101E0A70196016DE271E0AD81F8
:102B5000BE819A968C910E9444278111C6CF115054
:102B600009F0A0CFEBEEF2E08481882321F08530DC
:102B700011F08F3081F47096B3E0EB32FB07A1F7D0
:102B80008CE02696E0E10C946629EBEFF2E0CBCFE7
:102B9000EBE0F3E0C8CF4085518562857385C40EB4
:102BA000D51EE61EF71E73CFADE0B0E0EAEDF5E10D
:102BB0000C9448299D878C874B013A012901DC013F
:102BC00012962D903C901397F801138618968D91CC
:102BD0009D910D90BC91A02D8A839B83AC83BD8376
:102BE000EC85FD850190F081E02DFF83EE83AC85BF
:102BF000BD851C968D919D910D90BC91A02D8887CF
:102C00009987AA87BB87B22E4BE050E060E270E064
:102C1000C8010E946C2DF30180818E3269F0EFEFC4
:102C2000E40DF0E03196E60DF71DD42CBB24BA94E8
:102C3000BD0C59F5F6E0BF2E6982730190E0AA241D
:102C4000A394A90E6801C90ED11C8E2DF9818F1B8A
:102C50008B15F0F1F801EA0DF11D933008F047C033
:102C600081E4D6018C9382E48083E2E0E90FE00FF7
:102C7000F12FF11D83E48083E3E0E90FE00FF12FF2
:102C8000F11D9C5F84E4808332C082918E3211F00A
:102C9000DB2CCCCFF1E028E0FD1560F68D2D90E027
:102CA0008415950548F62B3038F6860D971DDC0106
:102CB0008C91803259F0CC24C394C20E7801E20E7C
:102CC000F11C0E94050CF70180832C2DD394E6CFD4
:102CD000D7018D917D01803239F08E3229F00E942A
:102CE000050CF60180839A2D963009F0A8CFF801E3
:102CF000E90FF11D8EE780839F5FF801E90FF11D59
:102D000081E38083F8018081853E11F485E0808332
:102D100070E3D72EE1E3CE2EAC85BD851296ED9003
:102D2000FC90139714964D915D916D917C9117973E
:102D3000411551056105710509F4EEC0FD0140879B
:102D4000518762877387C7010E946C0BAC85BD8574
:102D50001C966D937D938D939C931F97AC85BD8539
:102D60001D921C92EC85FD85448555856685778589
:102D7000C7010E94E00C882309F4DAC0AC85BD8548
:102D80002D913C912F70332765E0220F331F6A95F8
:102D9000E1F7C901835D9E4F2A5D3E4FF90127810E
:102DA0002223C9F0253E89F0DC011B962C91322F9D
:102DB0003F703F3051F023FD08C04BE050E0B801B8
:102DC0000E94452D892B09F4B3C08C859D850E94F6
:102DD000D50D8111C7CFF801F190055F1F4F8F2DE1
:102DE0008695F0FC8068F190F80EE017F107B9F7CE
:102DF000C2010C966DE070E00E940829E62E8A81DF
:102E00009B81AC81BD81EC85FD8580879187A28700
:102E1000B3878E819F819183808388859985AA85D8
:102E2000BB8584879587A687B787162FDD24D39423
:102E300030E2C32E4DE0B42E0FEF5FE0A52EAC853F
:102E4000BD851C964D915D916D917C911F97C1013F
:102E50000E94E00C882309F45DC0AC85BD858D918E
:102E60009C918F70992725E0880F991F2A95E1F78B
:102E7000835D9E4FF40191838083112309F48EC0FA
:102E8000D0922A010190F081E02DDF012C2D1D92BE
:102E90002A95E9F780E41E1180E0D401ED91FC91C0
:102EA000812B808311501B9D602D1124EDE6F1E0F4
:102EB00040E0862F840F90E0D4012D913C9151E0A9
:102EC000540F8415950568F44491860D971DDC0117
:102ED0008C91240F311DD9018C933196452F5D3093
:102EE00041F74F5F90E080E0242F30E023593E4FC0
:102EF000F401A081B1814D3008F43EC01B96AC9224
:102F00000190F081E02DF5868C859D850E94D50D80
:102F1000811195CF88E020C0F70186859785A0892B
:102F2000B189EC85FD8584879587A687B78716CFFD
:102F300088E08150F801E80FF11D90819032C9F3CB
:102F400020E0F801E80FF11D9081993349F4D08217
:102F5000815021E0B1F787E02D96E2E10C946429DD
:102F6000222339F09E3729F4C0828823A1F33197B8
:102F700001C09F5F9083D0CEF901E80FF91F5491F3
:102F8000A50FB11D0C934F5FE491D4016D917C911D
:102F9000E60FF72FF11D01830196AACF80E0DCCF69
:102FA0006115710511F0FB0117A240E008CC0895EE
:102FB000A2E3B0E0EEEDF7E10C9448293C014B01AF
:102FC0002A01322E1AAA19AADB0113961C921E920C
:102FD0001297622F6E710E942D0CB82E8111ADC018
:102FE0007C8A6B8AFE01BF966F01CE018D967C01B3
:102FF0008E010F5F1F4F9E012F5C3F4FA201BE014C
:103000006F5D7F4F4C97D0D999A19E3209F4F4C0DF
:10301000932D9F71A92E932D9C7109F4DDC08823F7
:1030200009F490C0823009F0F3C04FA558A9BE0141
:103030006F5C7F4FCE0141960E94FD0F8111E8C069
:103040002FA538A92115310509F067C0E9A9FAA90A
:1030500080E2DF011D928A95E9F7A9A9BAA98BE060
:10306000FE01B19601900D928A95E1F7E9A9FAA9BE
:103070008CA584876894A3F8A3FE0DC0E9A9FAA9DA
:10308000138680E090E0AFE1B5E086879787A08B5C
:10309000B18B6894A5F88091260190912701A091A9
:1030A0002801B0912901F401808F918FA28FB38FF5
:1030B000E9A9FAA9D4015D96FC93EE935C97AC92D2
:1030C00084899589B0E0A0E0DC0199278827428DAA
:1030D000538D70E060E0482B592B6A2B7B2BD40179
:1030E0001C964D935D936D937C931F97848D958D66
:1030F000A68DB78DF40180879187A287B38714824C
:1031000015821682178281E08183738262828A2D02
:103110008C7199F0C301D8D810C04DA55EA58E0161
:103120000F5D1F4FBE016F5C7F4FCE0141963CDDAE
:10313000882309F48BCFE8E0BE2E8B2DE296E2E1E6
:103140000C94642932FC5BC0E9A9FAA9309709F410
:1031500050C0838584FD56C080FD57C033FE8CCFA0
:10316000209026013090270140902801509029019D
:10317000C488D588F12CE12C7601DD24CC24828D05
:10318000938DB0E0A0E0C82AD92AEA2AFB2A158A42
:10319000148A138E128E148E158E168E178E81E061
:1031A00080932A01B701A601C3010E94B10F8823B1
:1031B00011F2B201A101C3010E94E00C882309F4BD
:1031C000BACFB1E0CB1AD108E108F108F301C28E01
:1031D000D38EE48EF58E50CF81111AC0E9A9FAA9D9
:1031E0003097C1F0838584FD15C031FE54CF80FF38
:1031F00052CF86E0B82EA1CF54E0B52E9ECF47E047
:10320000B42E9BCF3EE0B32E98CF2FE0B22E95CFB9
:10321000B82E93CF92E0B92E90CFB0E0A0E0E3E1DA
:10322000F9E10C944829EC015B017A013901CA806B
:10323000DB80F90111821082C6010E94470C182F11
:1032400081111DC0888187FDE9C080FFE9C08885A4
:103250009985AA85BB854C815D816E817F81841BA8
:10326000950BA60BB70BA70170E060E084179507DC
:10327000A607B70708F47C01E114F10431F4812FAB
:10328000CDB7DEB7E2E10C9464294C815D816E819B
:103290007F81DB01CA019170AA27BB27892B8A2B6A
:1032A0008B2B09F092C0898181508983882309F48E
:1032B0005DC02C883D884E885F88FFEF2F1A3F0A3B
:1032C0004F0A5F0A40E050E0BA018A819B810E9468
:1032D000540C882309F49FC02C8A3D8A4E8A5F8A49
:1032E000C701892F99278695009709F46EC0098137
:1032F000802E912C8815990508F44C01082DA20107
:103300009101B501F60182A50E944427811183C075
:1033100089818F5F881989839401215031098C89B3
:103320009D89AE89BF89820F931FA11DB11D8C8B12
:103330009D8BAE8BBF8B982C8824990CA80CB91C44
:103340008C819D81AE81BF81880D991DA11DB11D0C
:103350008C839D83AE83BF83F30180819181880D2F
:10336000991D91838083E818F90886CF452B462B59
:10337000472B09F54C855D856E857F85423051056B
:103380006105710508F447C0F60186819781A08523
:10339000B185481759076A077B07E8F5488B598BB1
:1033A0006A8B7B8BC6010E946C0B1B012C01F60102
:1033B00080A5898387CF488959896A897B89C60115
:1033C0000E94340DAB01BC01D9CF8C819D819170DD
:1033D00020E032E0281B390B47012E153F0508F489
:1033E00049014C895D896E897F898A819B810E9410
:1033F000540C882381F08C819D81AE81BF819170B6
:10340000AA27BB270796BC016A5D7E4FA401C501B0
:103410000E94522D93CF88818068888318E02FCF37
:1034200016E02DCFA3E0B0E0E8E1FAE10C944829E2
:103430009B838A835B017A013901FC01C280D380BE
:10344000F90111821082C6010E94470C8983811103
:10345000CDC0EA81FB81808187FD36C181FF37C104
:1034600080859185A285B385AC01BD014E0D5F1DA0
:10347000611D711D481759076A077B0708F4B6C01C
:10348000EA81FB814481558166817781E114F104F1
:1034900009F497C0DB01CA019170AA27BB27892BC9
:1034A0008A2B8B2B09F0D3C0EA81FB81818181506B
:1034B0008183882309F465C0248835884688578825
:1034C000FFEF2F1A3F0A4F0A5F0A40E050E0BA01AF
:1034D000EA81FB81828193810E94540C882309F444
:1034E000EBC0EA81FB81248A358A468A578AC70164
:1034F000892F99278695009709F4A9C00181802E0C
:10350000912C8815990508F44C01082DA201910110
:10351000B501F60182A50E94DD278111CDC0EA81A7
:10352000FB8181818F5F881981839401215031094A
:1035300084899589A689B789820F931FA11DB11D22
:10354000848B958BA68BB78B982C8824990CA80C10
:10355000B91CEA81FB8184819581A681B781880DA0
:10356000991DA11DB11D84839583A683B783F301A3
:1035700080819181880D991D91838083E818F908D5
:103580007FCFEA81FB81452B462B472BA1F5648534
:10359000758586859785611571058105910599F574
:1035A00040E050E0BA01C6010E94F20EEA81FB81C0
:1035B00064877587868797876115710581059105F1
:1035C00011F5EA81FB8184819581A681B7814085CF
:1035D000518562857385481759076A077B0708F488
:1035E00064C0EA81FB818081806280838981239627
:1035F000E2E10C9464294089518962897389C6018A
:103600000E94F20ED9CF613071058105910509F450
:1036100053C0F60106811781208531856017710737
:103620008207930708F048C0EA81FB81608B718BA9
:10363000828B938BAB01BC01C6010E946C0B1B01FA
:103640002C01F60180A5EA81FB8181833ECFEA81CE
:10365000FB8184819581917020E032E0281B390B39
:1036600047012E153F0508F44901EA81FB81448991
:10367000558966897789828193810E94540C8823B9
:10368000D9F0EA81FB8184819581A681B78191700F
:10369000AA27BB270796A401B5018A5D9E4F0E9409
:1036A000522DF1E0F0932A0152CFEA81FB8180870D
:1036B0009187A287B38795CFEA81FB81808180685B
:1036C0008083F8E0F98392CF28E029838FCF36E01A
:1036D00039838CCF0F931F93CF93DF93EC010A8133
:1036E0001B81C8010E94470C81110DC0988195FF74
:1036F0000AC040E050E0BA018A819B810E94540CCC
:10370000811106C088E0DF91CF911F910F9108953C
:10371000488D598D6A8D7B8DC8010E94E00C8823ED
:1037200089F3EC8DFD8D83858062838788859985FB
:10373000AA85BB85848F958FA68FB78F8C859D8535
:10374000938F828F8C859D85AE85BF85B58BA48B2D
:1037500080E090E0AFE1B5E0868B978BA08FB18FD2
:1037600088818F7D8883C8010E946411CCCFCF935C
:10377000DF93EC01AFDF811102C01B821A82DF915F
:10378000CF910895A9E0B0E0E8ECFBE10C94482962
:10379000998788876A017B01DC0112960D911C9143
:1037A000C8010E94470C382E8111B4C0E885F98504
:1037B000808187FD5DC184819581A681B7818C154B
:1037C0009D05AE05BF0509F4A5C040E050E0BA0173
:1037D000828193810E94540C882309F444C1E885B6
:1037E000F98580859185A285B3858C159D05AE05EB
:1037F000BF0528F4208121FD02C06C017D01C114A8
:10380000D104E104F10409F426C1D80198968C9002
:10381000912CB12CA12C29E0880C991CAA1CBB1C52
:103820002A95D1F7C701B601A50194010E941C2970
:1038300029833A834B835C83262E7D838E839F83EB
:10384000E885F9854480558066807780C301B201A0
:103850006150710981099109A50194010E941C29F7
:1038600089819A81AB81BC8182179307A407B50730
:1038700009F055C0A885B9851496CD92DD92ED92D8
:10388000FC921797C22CDD80EE80FF80F1E0CF1A0A
:10389000D108E108F10899E0F694E794D794C79429
:1038A0009A95D1F7A885B98550964D915D916D9106
:1038B0007C915397C8010E946C0B8C2C0C2C000C33
:1038C0009908AA08BB08DC01CB01880D991DAA1D27
:1038D000BB1DE885F985848B958BA68BB78BD801AA
:1038E00098968C918C198183E885F98584819581DE
:1038F000A681B78140855185628573854817590730
:103900006A077B0738F480879187A287B387808115
:1039100080628083832D2996E2E10C94642981E002
:10392000E885F9858183411451046104710409F427
:1039300073C04C145D046E047F0408F06DC0C501B3
:10394000B4010E94F9286483758386839783C61A1D
:10395000D70AE80AF90A6089718982899389611511
:10396000710581059105D1F440E050E0BA01C8012C
:103970000E94F20E613071058105910509F473C052
:10398000A885B9851C966D937D938D939C931F9705
:10399000611571058105910509F478CFE885F985F0
:1039A000608B718B828B938B8C149D04AE04BF044F
:1039B00008F042C02081AB01BC01C80121FF37C023
:1039C0000E94F20E611571058105910599F1623031
:1039D00071058105910508F446C0D80116964D90F1
:1039E0005D906D907C901997641575058605970517
:1039F000D0F5E885F9854480558066807780480C4D
:103A0000591C6A1C7B1C4482558266827782C818C6
:103A1000D908EA08FB08C2CFE885F9851482158227
:103A200016821782648575858685978598CF0E9452
:103A3000340DC8CF75016401E885F98584819581CD
:103A4000A681B7818C0D9D1DAE1DBF1D84839583FE
:103A5000A683B7831BCFE885F98514821582168269
:103A6000178281E040CFA885B9858C9180688C93BE
:103A700088E0382E4FCFA2E2B0E0E1E4FDE10C9403
:103A80004C294C015B013A0160E00E942D0C182F7B
:103A900081113EC0F50193828282CE014D966C0168
:103AA000FE017F967F018E010F5F1F4F9E012F5DEC
:103AB0003F4FA301BE016F5E7F4FC5010E94D4112D
:103AC000182F811125C0E9A1FAA1309709F183854A
:103AD00084FF23C04489558970E060E0BA0155270E
:103AE0004427828D938DB0E0A0E0482B592B6A2BA0
:103AF0007B2BF5014087518762877387C4010E9441
:103B00006C0BF50164877587868797871182108211
:103B1000812FA296EEE00C94682912E0F9CFB0E074
:103B2000A0E0E5E9FDE10C944E298C01EB01FC01DC
:103B3000C280D380EA8DFB8D309709F01082C601D8
:103B40000E94470C81112BC01D86B12CF12CE12C59
:103B50009DE0A92E2DE6822E21E0922EF8014485CB
:103B60005585668577854115510561057105B1F06B
:103B7000C6010E94E00C882309F47BC0F801608133
:103B800071816F70772785E0660F771F8A95E1F75F
:103B9000FB01EA5DFE4F8781811106C080E0CDB751
:103BA000DEB7ECE00C946A29853E09F441C0635D00
:103BB0007E4F2A8D3B8D2115310509F452C0FB0142
:103BC00093859F709F3009F048C0B11031C08F714C
:103BD00081508A9D802D1124843108F047C090E0E7
:103BE00040E09401281B390BF901E80FF91FA4915B
:103BF000A60FB72FB11D5C91511108C0A491A60F5B
:103C0000B72FB11D11965C91552381F08431F9F0E5
:103C1000E491E60FF72FF11D5081EA8DFB8DE80F3F
:103C2000F91F50834F5F01964D30F1F6E40EF11C01
:103C3000C8010E94D50D811105C0F80114861586B2
:103C4000168617868D85882309F488CFA7CF40E094
:103C5000BB24B394F12CE12CE9CF2E0D3F1DF901CB
:103C60001082CE010E94940BB12CE2CFBB24B394FE
:103C7000DFCF88E094CFA2E3B0E0E1E4FEE10C9472
:103C80004E295C014B0161E00E942D0C811140C066
:103C9000BC8AAB8ACE018D966C01DE019F967D01B8
:103CA0008E010F5F1F4F9E012F5C3F4FA401BE018D
:103CB0006F5D7F4F4C970E94D411811129C0E9A9F3
:103CC000FAA9309709F4AAC0238586E020FD20C018
:103CD00089A18E3209F4A2C0C488D588F12CE12CC8
:103CE0007601DD24CC24828D938DB0E0A0E0C82A3B
:103CF000D92AEA2AFB2A24FF49C0F5018689978937
:103D0000A08DB18D8C159D05AE05BF0529F480E110
:103D1000E296ECE00C946A29C98EDA8EEB8EFC8E6A
:103D2000B701A601C5010E946C0B6D8F7E8F8F8F2E
:103D300098A382E090E09A8B898B4D8D5E8D6F8D7C
:103D400078A1C5010E94E00C811102C088E0E0CF9B
:103D500089899A898F70992735E0880F991F3A953C
:103D6000E1F7FC01E35DFE4F8A5D9E4FDC01179693
:103D70008C91882359F0853E19F0838583FFC7CF46
:103D8000CE0141960E94D50D8111D7CF8DA59EA55C
:103D900049966DE070E00E9408297EA76DA715EE98
:103DA00001E08DA59EA59C01215031093EA72DA7BC
:103DB000892B59F4B701A601C5010E94B10F8823D0
:103DC00029F2C5010E946411A3CF4D855E856F85E0
:103DD0007889C5010E94E00C882309F4B7CF898156
:103DE0009A818F70992725E0880F991F2A95E1F70E
:103DF0009C01235D3E4F3AAB29AB8A5D9E4FFC018F
:103E0000178300932A018DA59EA5892B51F2CE011F
:103E100001960E94D50D8111C4CF98CF84E078CF50
:103E20004F925F926F927F92AF92BF92CF92DF924A
:103E3000EF92FF920F931F93CF93DF93CDB7DEB72F
:103E4000E6970FB6F894DEBF0FBECDBF5C013B0115
:103E500061E00E942D0C811144C0BC8AAB8A9E0196
:103E6000215D3F4F6901CE018D967C018E010F5F70
:103E70001F4F2E5F3F4FA301BE016F5D7F4F4C97D9
:103E80000E94D411882309F40EC1823051F589A112
:103E90008E3209F40AC14FA558A9BE016F5C7F4F4D
:103EA000CE0141960E94FD0F81111BC08091260119
:103EB00090912701A0912801B09129018BAB9CAB77
:103EC000ADABBEAB40E050E0BA01C5010E94F20EBE
:103ED0006B017C0191E0C916D104E104F104B1F455
:103EE00088E0E6960FB6F894DEBF0FBECDBFDF9137
:103EF000CF911F910F91FF90EF90DF90CF90BF90E7
:103F0000AF907F906F905F904F900895B701A6019A
:103F1000C5010E946C0B2B013C0186E04114510449
:103F200061047104F1F2B301A201C5010E94E00C29
:103F30008823B1F2EDE2F1E080E092E0DF019C0144
:103F40001D9221503040E1F711E0F50180A51817CE
:103F500008F487C04BE050E060E270E08DE291E051
:103F60000E946C2D8EE280932D0190E19093380198
:103F700040E050E06FE175E040934301509344010D
:103F8000609345017093460190E2EDE2F1E0ADE40B
:103F9000B1E001900D929A95E1F780934E01D09295
:103FA0004801C092470127016624772450924201BC
:103FB000409241018D899E89AF89B88DF50127A175
:103FC000233061F446855785608971894817590700
:103FD0006A077B0719F480E090E0DC0190936801A8
:103FE00080936701B0936201A093610181E08093A7
:103FF0002A014BA95CA96DA97EA9C5010E94E00C0C
:10400000882309F46DCF2FA538A921153105D9F5DD
:10401000E9A9FAA980E2DF011D928A95E9F7A9A929
:10402000BAA98BE0FE01B19601900D928A95E1F755
:10403000E9A9FAA98CA5848781E080932A0180E10F
:10404000838780E090E0AFE1B5E0868B978BA08F0F
:10405000B18FD38EC28E558A448AC5010E946411E5
:1040600040CF3FEF431A530A630A730A01E0A301EA
:1040700092016DE271E0D5019A968C919ED78111E3
:104080002FCF1F5F62CF4DA55EA58E010F5D1F4F25
:10409000BE016F5C7F4FCE0141960E94D4158823EC
:1040A00009F4B6CF1DCF87E01CCF84E01ACFA2E37E
:1040B000B0E0EDE5F0E20C944E295C014B0160E0CC
:1040C0000E942D0C811120C0BC8AAB8ACE018F9634
:1040D0006C01FE01BD967F018E010F5F1F4F9E0197
:1040E0002F5C3F4FA401BE016F5D7F4F4E970E9432
:1040F000D411811109C0E9A9FAA9309749F4F50151
:10410000168A178A108E118EE296ECE00C946A29BA
:10411000938594FF15C04489558970E060E0BA0129
:1041200055274427028D138D30E020E0402B512B82
:10413000622B732BF501468B578B608F718FE4CF09
:1041400081E1E2CFABE4B0E0E8EAF0E20C944C2984
:104150005C014B013A0161E00E942D0C8111BCC051
:10416000B9A6A8A6CE018A5B9F4F6C01FE01EE5B4B
:10417000FF4F7F018E010A5E1F4F9E01265B3F4F5E
:10418000A401BE016A5C7F4F80970E94D411811107
:10419000A3C02C96EEADFFAD2C9782E0309709F4CA
:1041A0009BC085E13B96DE01119601900D928A95A8
:1041B000E1F7CE018C5B9F4F6C019E01285B3F4F66
:1041C000A301BE016A5C7F4F4E970E94D4118823E1
:1041D00009F4ACC0823009F07FC08EA98E3209F498
:1041E000A7C026964EAD5FAD2697BE01685B7F4F98
:1041F000CE0186960E94FD0F81116EC026962EADCF
:104200003FAD26972115310509F054C02A962EADF1
:104210003FAD2A9785E1FE013196D9011B960190A9
:104220000D928A95E1F78BE0FE01F696D901019097
:104230000D928A95E1F72A96EEADFFAD2A97229668
:104240008FAD2297848781E080932A01CE018A5B1B
:104250009F4F6C01FE01EE5BFF4F7F018E010A5EF6
:104260001F4F9E01265B3F4FA401BE016A5C7F4F3A
:1042700080970E94D41128968EAD9FAD28974996BD
:104280006DE070E0C5D728967FAF6EAF289715EE2A
:1042900001E028968EAD9FAD28979C0121503109F1
:1042A00028963FAF2EAF2897892BD1F4C5010E94E5
:1042B000641112C024964EAD5FAD24978E010A5C46
:1042C0001F4FBE01685B7F4FCE0186960E94D415BA
:1042D000882309F49BCF88E0C55BDF4FEEE0F8C789
:1042E0004AA15BA16CA17DA1C5010E94E00C8823BD
:1042F00091F38E899F898F70992725E0880F991FE8
:104300002A95E1F79C01235D3E4F2C963FAF2EAFDF
:104310002C978A5D9E4FFC01178300932A01CE01E2
:1043200046960E94D50D8111B4CFD5CF87E0D4CF6A
:1043300084E0D2CF44983C9A0000000008954A9946
:1043400004C03499FCCF80E008958FEF089589B1BF
:104350008470089587B1807F87B988B18F6088B9EC
:104360008AE08A95F1F700C008953C98449A349900
:1043700002C04A9BFCCF0895F8DFECDF52985A9AAE
:104380008AE08A95F1F700C00895D9DF811101C054
:10439000D1DF80E008950F931F93CF938C01FC0130
:1043A0008081811111C0C6DFC6B1DFDF4A9910C01C
:1043B0003499FCCFBFDF86B18295807FCF708C2B84
:1043C000F801808380E005C0D0DFB9DF882359F38E
:1043D0008FEFCF911F910F910895CF93DF93C82F47
:1043E0005A98529AC2DF8AE28A95F1F700C098B1D2
:1043F0002C2F2F70907F922B98B988B1807FDFE0AF
:104400002D27822B87B996DF8AE28A95F1F700C0C3
:10441000ACDF8AE28A95F1F700C088B1C295CF700F
:10442000807F8C2B88B988B1807FCD27C82BC7B9F6
:1044300081DF8AE28A95F1F700C080E0DF91CF91B9
:104440000895CF93C92FC9DF811102C08C2FC5DF1A
:10445000CF9108950F931F93CF93DF938C01EB01BE
:1044600084E090E0EEDFC801ECDFCE01EADF80E01F
:10447000B4DF82DFDF91CF911F910F910895CF9329
:10448000C82F90E080E0DDDF8C2FA7DF75DFCF91B4
:10449000089552985A9A3C98449A87B1807F87B978
:1044A00088B18F6088B908958F929F92AF92BF9222
:1044B000DF92EF92FF920F931F93CF93DF93EC0164
:1044C0008B01D42E7901D9011D921D921D921C924F
:1044D0001397E0E090E0D8018C91E81798F5A88157
:1044E000B981AE0FB11DFC91F03239F481E08E0F2D
:1044F000992319F1E82F80E028C080ED8F0F8A30D2
:10450000F0F49D15D0F5D7012D913D914D915C9121
:10451000AAE0B0E0B3D64F2F4053550B4A01550FD8
:10452000AA08BB08860E971EA81EB91ED7018D9239
:104530009D92AD92BC92139791E0EF5FCCCFFC328D
:10454000E1F4EF5F80E09923D1F081110AC0288166
:1045500039812E0F311D39832883D8019C919E1BF0
:104560009C93DF91CF911F910F91FF90EF90DF907F
:10457000BF90AF909F908F90089581E0E4CF81E04D
:1045800090E0E3CFFF920F931F93CF93DF93EC0163
:104590008C01060F171FFF24F394C017D10729F4CD
:1045A00080E0CDB7DEB7E5E09CC6CE01F992F3DE40
:1045B000882399F380E1F5CFA1E0B0E0E1EEF2E2EB
:1045C00071C66C01F62E10E000E0EE24E3940C15A9
:1045D0001D0531F4BCDE81110AC08F2D50DF07C0EC
:1045E000E982CE010196D7DE882321F0BEDE219636
:1045F000E8E074C60F5F1F4FEACF6DE0FC018781D2
:104600009085DACF0895B1DEA2DE8823E9F308951C
:10461000EF92FF920F931F93CF93C62F7A018901D8
:10462000FC01878190858F3F910549F040F0C4DF00
:104630008C2FCF911F910F91FF90EF900895BC01A7
:1046400089E095E09FDFC82F811111C080910A0594
:1046500090E0982F882720910905820F911DF7017E
:104660009183808380910B05F8018083E1CF7DDE0B
:10467000CBE1DECFCF93DF93EC01DB01E881F98161
:104680008081803239F02C9121110BC01082DF9192
:10469000CF9108953196F983E8838C9181508C9362
:1046A000EDCF215030E0888199816C912115310541
:1046B00021F4FC01E60FF11DE9CFAC01420F531FBD
:1046C000FA01408121503109403299F7EFEFE60FAE
:1046D000EC93E9CFEF92FF920F931F93CF93DF9369
:1046E000EC018B017A01BA01C801C4DFFE0184919B
:1046F00020E090E069E0882301F1492F50E0FA01C1
:104700003196269FE00DF11D1124EC0FFD1F7491D1
:10471000D7013C91711115C0F801A081B181A40F9E
:10472000B51F931719F03C913032B1F4F801B18301
:10473000A083D7012C91291B2C93CDB7DEB7E6E0DF
:10474000CFC5931309C02F5FFE01269FE00DF11D19
:104750001124849190E0CFCFF801A081B181A40F02
:10476000B51F3C91432F50E031543A3110F4405E74
:104770005F4F9F5F7417150631F7BDCFA1E0B0E022
:10478000E3ECF3E289C54C017B016A01BA01C70180
:1047900071DF1982F60100811981101710F0912C38
:1047A00023C0F701A080B180612E712CF501E60DC8
:1047B000F71D80818D33E1F4AE014F5F5F4FB7018C
:1047C000C40188DF982E882379F0FFEF6F1A7F0AE3
:1047D000A60CB71CF701B182A0821095010FF6015B
:1047E0000083B601C70146DF892D2196EEE070C532
:1047F0001F5F1983D1CFB0E0A0E0E0E0F4E250C544
:104800008C01EB017A01D9011C925881F0E0E0E0C3
:104810009E2FE517C0F4D801AD90BC90BF016F5F2B
:104820007F4F6501CE0EDF1ED6018C918C3279F45C
:104830006A0D7B1DD7016D937C9388818150891B04
:10484000D9018C93E883CDB7DEB7EAE045C5FB011B
:10485000DFCF0F931F93CF938C01C62F78DD81118B
:104860000DC0C11108C070E060E0C801F3DDCF9158
:104870001F910F9108958C2F02DEF9CF7DDDF7CFC8
:10488000A7E0B0E0E5E4F4E210C59E838D836F837A
:104890008A0119821A821B821C82AE01495F5F4F16
:1048A000BE016B5F7F4F8BE891E014DFF82E882309
:1048B00069F0BE01695F7F4FCE010596DBDE82E0C5
:1048C000F81204C00E94540B80E00FC0AE01495F93
:1048D0005F4FBE016B5F7F4F8BE891E04FDF813010
:1048E000D9F50115110521F482E22796E5E0F9C416
:1048F0009E012F5F3F4F43E0BE01695F7F4FCE01B6
:104900000596D2DD81112AC049815A816B817C8153
:104910004F3F51056105710509F000F530910A0618
:10492000EAE0F6E090E080E0242F8317E8F6A1812A
:104930002A1778F0A381A21760F025E0289FF001E4
:10494000299FF00D1124E65FF94F4283F80140835F
:10495000BBCF01963596E9CF81E0C7CF80E1C5CFC7
:104960008F3F910528F4BC0189E095E00BCE0895B6
:1049700068E022DE88E00895EADC811102C07FCD84
:104980000895FACC08950F931F93CF9380E190E0A0
:1049900058DDC0E1811101C0C0E010E000E0C111AC
:1049A00003C00031110539F48C2F17DDE5DCCF9100
:1049B0001F910F910895F801E658FE4F84910DDD87
:1049C0008111C0E10F5F1F4FEACF882331F0809142
:1049D00009068260809309060895809109068D7FFB
:1049E000F9CF809109060895FC018081811102C0F0
:1049F0000E94D20AC1DCABDC8823E9F30895539A04
:104A00005B9A78940E941F0B59D143DD3D9AE4D301
:104A100028EB31E040E060E080E00E94D2040E9498
:104A2000070B52980895CDB7DEB72997DEBFCDBFEB
:104A3000E6DF1A821B821D821C821F821E8219865B
:104A40001886E12C85E0D82E93E0C92E2EEFB22EE9
:104A500080E0BBDF7CDC182F811108C081E0B5DF6E
:104A600000E075DCF82E8823E9F0F2CF8FD0F2CF8A
:104A700081E090E08C0F9D1F810F911DFC01108340
:104A80008ADCA82E80912F038E1539F080912F0398
:104A90008150823010F40E94070BE0902F03A11088
:104AA00018C01F5F193021F7011114C050910A0678
:104AB0009981EAE0F6E09F0180E0581759F02B5FFA
:104AC0003F4FD90113974C91491709F435C08F5FB7
:104AD000F4CF4BDC4ADC3BDC8823E9F310E024C054
:104AE0009C0162810196359646132EC0D29EF0013C
:104AF000D39EF00D1124E65FF94F248135818A8120
:104B0000F9010C9DE00DF11D112494910F5F9A3A6B
:104B100069F09813F5CF319625913491CE01019625
:104B2000F9010995FF24F3940F2D9BCF8A3A99F34D
:104B3000CE01019662DDF6CF911104C08A818F3FCC
:104B400009F0BA8290E080E0851750F2CE0101961C
:104B50005ADDE8CF1F920F920FB60F9211248F9358
:104B6000EF93FF9383B78E7F83BFE4E6F0E080810D
:104B700080718083E8988FEF80932D03FF91EF91F0
:104B80008F910F900FBE0F901F901895E9E6F0E0FF
:104B9000808182608083E89A83B7817F8C6083BF45
:104BA000F89410922D0383B7816083BF85B7806628
:104BB00085BF8F7D85BF789445983D9A8895E5CBD4
:104BC00008959627092E0294602D6F706927292F6A
:104BD0002025220F207E6227202D2927207F269541
:104BE000092E000C221F9695969596959F719227F7
:104BF0009827862F08952FB7F89480911A069091E0
:104C00001B062FBF08952A9A85D284D283C20895A5
:104C1000A4E0B0E0EDE0F6E241C3E82ED42EC52ECC
:104C2000962E872E682F80E00E94FF00682D0E943C
:104C3000FF00692D0E94FF006C2D0E94FF006D2D6A
:104C40000E94FF00880FF82E6894F0F80AE02A9876
:104C50008E2D5AD289829A82CB82DC8240E064E037
:104C600070E0CE0101965DD28F2D4ED2C4DFC29688
:104C70005C0150D2182F87FF05C0BDDF8A199B0940
:104C800097FDF7CF13FF03C0BEDF015001F7812F5F
:104C90002496ECE01FC31F920F920FB60F921124BF
:104CA0008F93199909C081E080932F038F910F9002
:104CB0000FBE0F901F90189582E0F6CF2098289A8B
:104CC0002198299AE8E6F0E0808181608083EBE614
:104CD000F0E08081826080830895199904C018995A
:104CE00004C080E0089583E0089584E00895A4E07E
:104CF000B0E0ECE7F6E2D8C2811151C0EEDF81FFEF
:104D000003C080E0EADF21C081E0EAD103E010E0E7
:104D100043E0E42EE0922F0310922E032A9A3AE009
:104D2000F32E8FEFF1D1FA94F110FBCF40E050E079
:104D3000BA0180E46DDFF82E66DF81E0F7FC05C084
:104D4000F81631F00150110929F72496E6E0C8C29F
:104D50004AEA51E060E070E088E45ADF813009F50A
:104D600041E064E070E0CE010196DBD189819A8157
:104D70002B813C8139832A839B838C8344DF898107
:104D80009A81AB81BC81892F9A2FAB2FBB278F7063
:104D90009927AA27BB270197A105B10519F083E040
:104DA000D4CF31DF30DF27DFC2967C0140E050E016
:104DB000BA0187E72DDF182F26DF113079F440E0A4
:104DC00050E060E070E489E623DF082F1CDF01304B
:104DD000D1F411DF8E199F0997FDE8CF0CDF8C010C
:104DE0000E5C1F4F40E050E060E070E481E410DFB3
:104DF000F82E09DFFF2071F1FEDE801B910B97FD7D
:104E0000F1CF81E0A2CF0111E9CF40E050E0BA013B
:104E10008AE7FEDE8230E0F419821A821B821C824D
:104E200041E064E070E0CE0101967BD180E490E047
:104E3000A0E0B0E049815A816B817C818423952375
:104E4000A623B723892B8A2B8B2B11F010932E03CB
:104E5000DADEC4CF41E050E060E070E08BE7D8DEFE
:104E6000182FD1DE123008F09ACF40E052E060E017
:104E700070E080E5CDDE182FC6DE1111C2CF80E0D4
:104E800025D110922F033DCFA9E0B0E0E9E4F7E28D
:104E9000FFC12B0169017A010E8381114FC08091FE
:104EA0002E03811107C099E0CC0CDD1CEE1CFF1C09
:104EB0009A95D1F7460157013201882D8C194E8100
:104EC000841720F080E02996E2E1FEC1C301841935
:104ED0009509092E000CAA0BBB0B9C01AD012C0DF2
:104EE0003D1D4E1D5F1D2A833B834C835D831982CC
:104EF00013013EEF331A80912E03B501A40180FD0A
:104F000004C04A815B816C817D8181E581DE8823DB
:104F100031F079DE83E080932F0381E0D4CF6BDE24
:104F2000C29699878887F6D08E3F51F064DE488517
:104F30005985841B950B97FDF6CFEBCF84E0C3CF4B
:104F40005FEF5EBD7986688610E000E00DB407FE75
:104F5000FDCF6EB55FEF5EBDE885F9856193F9879A
:104F6000E887C8012EDE8C01288539852215330596
:104F700069F70DB407FEFDCF3EB5432F50E0942FE7
:104F8000882799878887C6D0E885F985E82BE017B8
:104F9000F10739F038DEF981FF5FF983FA3009F063
:104FA000AACF31DE2FEF821A920AA20AB20A398101
:104FB0003A3009F4B2CF310180CFA7E0B0E0E2EEA1
:104FC000F7E266C17A83698369017A010D838111F1
:104FD00079C0189979C080912E03811107C089E0AA
:104FE000CC0CDD1CEE1CFF1C8A95D1F74601570145
:104FF00029813A813F832E83882D8C19BD818B179F
:1050000020F080E02796E2E15FC14E805F808981D9
:105010009A81481A590A052C000C660877084C0C2E
:105020005D1C6E1C7F1C212CAE81BF81BE5FBC83CA
:10503000AB8380912E03B501A40180FD02C0B301B2
:10504000A20188E5E5DD882331F0DDDD83E0809392
:105050002F0381E0D7CF8EEF57D02A98EE81FF81C2
:10506000312C90E0DF018D918D018EBD6081832D0B
:10507000A8DD382E0DB407FEFDCFF8012B813C8151
:105080000217130779F7892F3FD0832D3DD042D0E7
:105090008F70853099F0B7DD23943AE02312C9CFA1
:1050A000B2DD8FEF881A980AA80AB80A9AE0291682
:1050B00081F2AB81BC81BF83AE839ECF2BD088238E
:1050C000E9F3EECF84E09ECF82E09CCF811105C052
:1050D00081E08DBD81E58CBD08951DBC82E5FBCFCF
:1050E00095B1937C946395B994B1937C9C6294B987
:1050F000811107C081E08DBD81E58CBD8DB58EB578
:1051000008951DBC82E5F9CF8EBD0DB407FEFDCF1D
:105110008EB508958FEF8EBD0DB407FEFDCF8EB511
:105120000895680F791F2FEF8617970709F40895E0
:1051300041110DC0FC0130813EBD0DB407FEFDCF15
:105140003EB5442311F0FC0130830196EDCF2EBD16
:10515000F4CF1F920F920FB60F9211242F933F930B
:105160004F935F936F937F938F939F93AF93BF936F
:10517000EF93FF9380911A0690911B0601969093EE
:105180001B0680931A062DDC80FF1DC080911A0635
:1051900090911B068F709927892B21F488B190E29A
:1051A000892788B9FF91EF91BF91AF919F918F911E
:1051B0007F916F915F914F913F912F910F900FBE13
:1051C0000F901F90189590912D039270892311F0E4
:1051D000459AE8CF4598E6CF82E084BD85E085BD5D
:1051E0008DE987BD16BCEEE6F0E0808182608083A9
:1051F0000895DB018F939F9341D0BF91AF91A29F00
:10520000800D911DA39F900DB29F900D11240895C4
:10521000AA1BBB1B51E107C0AA1FBB1FA617B707DC
:1052200010F0A61BB70B881F991F5A95A9F78095F8
:105230009095BC01CD010895A1E21A2EAA1BBB1BBB
:10524000FD010DC0AA1FBB1FEE1FFF1FA217B30752
:10525000E407F50720F0A21BB30BE40BF50B661F68
:10526000771F881F991F1A9469F76095709580952C
:1052700090959B01AC01BD01CF01089540D0A59F41
:10528000900DB49F900DA49F800D911D1124089541
:105290002F923F924F925F926F927F928F929F9246
:1052A000AF92BF92CF92DF92EF92FF920F931F9334
:1052B000CF93DF93CDB7DEB7CA1BDB0B0FB6F894E5
:1052C000DEBF0FBECDBF09942A88398848885F8425
:1052D0006E847D848C849B84AA84B984C884DF8096
:1052E000EE80FD800C811B81AA81B981CE0FD11D7A
:1052F0000FB6F894DEBF0FBECDBFED010895A29F9B
:10530000B001B39FC001A39F700D811D1124911D99
:10531000B29F700D811D1124911D08950CD0EBC01A
:10532000E3D040F0DAD030F021F45F3F19F0CCC088
:10533000511115C1CFC0F0D098F39923C9F355236B
:10534000B1F3951B550BBB27AA2762177307840778
:1053500038F09F5F5F4F220F331F441FAA1FA9F32E
:1053600033D00E2E3AF0E0E830D091505040E69520
:10537000001CCAF729D0FE2F27D0660F771F881F81
:10538000BB1F261737074807AB07B0E809F0BB0B70
:10539000802DBF01FF2793585F4F2AF09E3F510594
:1053A00068F092C0DCC05F3FECF3983EDCF386957A
:1053B00077956795B795F7959F5FC9F7880F911D0A
:1053C0009695879597F90895E1E0660F771F881FF6
:1053D000BB1F621773078407BA0720F0621B730BA9
:1053E000840BBA0BEE1F88F7E095089504D06894FB
:1053F000B111B5C0089598D088F09F5790F0B92F9B
:105400009927B751A0F0D1F0660F771F881F991F19
:105410001AF0BA95C9F712C0B13081F09FD0B1E04F
:1054200008959CC0672F782F8827B85F39F0B93F5F
:10543000CCF3869577956795B395D9F73EF490951B
:105440008095709561957F4F8F4F9F4F0895E89499
:1054500009C097FB3EF490958095709561957F4FBC
:105460008F4F9F4F9923A9F0F92F96E9BB2793956A
:10547000F695879577956795B795F111F8CFFAF47A
:10548000BB0F11F460FF1BC06F5F7F4F8F4F9F4FAB
:1054900016C0882311F096E911C0772321F09EE809
:1054A000872F762F05C0662371F096E8862F70E06F
:1054B00060E02AF09A95660F771F881FDAF7880F49
:1054C0009695879597F9089597F99F6780E870E01A
:1054D00060E008959FEF80EC089500240A9416166A
:1054E000170618060906089500240A9412161306D2
:1054F000140605060895092E0394000C11F4882360
:1055000052F0BB0F40F4BF2B11F460FF04C06F5F7B
:105510007F4F8F4F9F4F089557FD9058440F551F51
:1055200059F05F3F71F04795880F97FB991F61F025
:105530009F3F79F087950895121613061406551F9C
:10554000F2CF4695F1DF08C0161617061806991F08
:10555000F1CF86957105610508940895E894BB27FD
:1055600066277727CB0197F908950AD029ED3BE507
:105570004EED5EE345C00EF00BC1ACCF6894A4CFF6
:10558000D3DFC8F39923D1F3C6F3DF93CF931F93EF
:105590000F93FF92C92FDD2788232AF02197660FEA
:1055A000771F881FDAF720E030E040E85FEB9FE3E9
:1055B000883920F0803E30F021968F7785D0E8E65C
:1055C000F0E003C081D0E5E9F0E0F0D08B01BE014E
:1055D000EC01FB2E6F5771097595771F880B990B9E
:1055E00038DF28E132E741E35FE316D0AF2D9801C1
:1055F000AE01FF900F911F91CF91DF9176D07BCFBD
:105600000BD079CF6ADF28F06FDF18F0952309F00F
:105610005BCF60CF1124A3CF7FDFA0F3959FD1F3A1
:10562000950F50E0551F629FF001729FBB27F00D50
:10563000B11D639FAA27F00DB11DAA1F649F6627A5
:10564000B00DA11D661F829F2227B00DA11D621FF4
:10565000739FB00DA11D621F839FA00D611D221FAE
:10566000749F3327A00D611D231F849F600D211D92
:10567000822F762F6A2F11249F5750408AF0E1F035
:1056800088234AF0EE0FFF1FBB1F661F771F881F7E
:1056900091505040A9F79E3F510570F015CF5FCF54
:1056A0005F3FECF3983EDCF3869577956795B79569
:1056B000F795E7959F5FC1F7FE2B880F911D969593
:1056C000879597F908955058BB27AA270ED013CF76
:1056D00004DF30F009DF20F031F49F3F11F41EF4B5
:1056E000F9CE0EF4E095E7FBEFCEE92F15DF80F35E
:1056F000BA17620773078407950718F071F49EF5CF
:105700002DCF0EF4E0950B2EBA2FA02D0B01B90171
:1057100090010C01CA01A0011124FF27591B99F027
:10572000593F50F4503E68F11A16F040A22F232F33
:10573000342F4427585FF3CF469537952795A79583
:10574000F0405395C9F77EF41F16BA0B620B730B2A
:10575000840BBAF09150A1F0FF0FBB1F661F771F9B
:10576000881FC2F70EC0BA0F621F731F841F48F450
:10577000879577956795B795F7959E3F08F0B3CFD6
:105780009395880F08F09927EE0F979587950895C0
:105790009F3F31F0915020F4879577956795B795A5
:1057A000880F911D9695879597F90895DF93CF936C
:1057B0001F930F93FF92EF92DF927B018C0168940D
:1057C00005C0DA2EEF0128DFFE01E894A5912591AE
:1057D000359145915591AEF3EF0187DFFE019701B9
:1057E000A801DA9479F7DF90EF90FF900F911F9165
:1057F000CF91DF9108950F931F93CF93DF93823062
:10580000910510F482E090E0E0911E06F0911F06F1
:1058100030E020E0B0E0A0E0309799F421153105A8
:1058200009F44AC0281B390B24303105D8F58A8188
:105830009B816115710589F1FB0193838283FE01D0
:1058400011C0408151810281138148175907E0F04E
:105850004817590799F4109761F012960C93129714
:1058600013961C933296CF01DF91CF911F910F9128
:10587000089500931E0610931F06F4CF21153105DD
:1058800051F04217530738F0A901DB019A01BD011D
:10589000DF01F801C1CFEF01F9CF90931F0680938C
:1058A0001E06CDCFFE01E20FF31F8193919322508C
:1058B000310939832883D7CF20911C0630911D06EA
:1058C000232B41F4209102013091030130931D06F6
:1058D00020931C0620910001309101012115310512
:1058E00041F42DB73EB74091040150910501241BAE
:1058F000350BE0911C06F0911D06E217F307A0F4AA
:105900002E1B3F0B2817390778F0AC014E5F5F4F15
:105910002417350748F04E0F5F1F50931D06409324
:105920001C06819391939FCFF0E0E0E09CCFCF9352
:10593000DF930097E9F0FC01329713821282A09165
:105940001E06B0911F06ED0130E020E01097A1F493
:1059500020813181820F931F20911C0630911D06FA
:105960002817390709F061C0F0931D06E0931C0663
:10597000DF91CF910895EA01CE17DF07E8F54A815C
:105980005B819E0141155105B1F7E901FB83EA8373
:1059900049915991C40FD51FEC17FD0761F480811F
:1059A00091810296840F951FE901998388838281F2
:1059B00093819B838A83F0E0E0E012968D919C9125
:1059C00013970097B9F52D913C911197CD0102964F
:1059D000820F931F20911C0630911D06281739074E
:1059E00039F6309751F510921F0610921E06B093AB
:1059F0001D06A0931C06BCCFD383C2834081518176
:105A0000840F951FC817D90761F44E5F5F4F8881D7
:105A10009981480F591F518340838A819B819383C9
:105A200082832115310509F0B0CFF0931F06E09372
:105A30001E069ECFFD01DC01C0CF13821282D7CF9C
:105A4000FB01DC0104C08D910590801921F44150C7
:105A50005040C8F7881B990B08950F931F93CF935D
:105A6000DF938C01FC0101900020E9F7CF01801B3E
:105A7000910BC1DEEC01009711F0B8013DD0CE01D1
:105A8000DF91CF911F910F910895FB01DC0104C0BC
:105A90008D910190801921F441505040C8F7881B26
:105AA000990B0895FB01DC0102C001900D92415059
:105AB0005040D8F708956817790768F4FB01DC01B6
:105AC000E40FF51FA40FB51F02C002900E924150C3
:105AD0005040D8F70895E6CFDC0101C06D934150E6
