:100000007EC100000C94032A97C100000C94E52CDB
:1000100093C1000091C100008FC100008DC100009C
:100020008BC1000089C1000087C1000085C10000AC
:1000300083C1000081C100000C94E5337DC1000044
:100040007BC1000079C1000077C100000C943234FC
:1000500073C1000071C100006FC100006DC10000DC
:100060006BC1000069C1000008000000BE92244975
:10007000123EABAAAA2ABECDCCCC4C3E00000080DA
:10008000BEABAAAAAA3E00000000BF000000803F4D
:100090000000000000084178D3BB4387D1133D190D
:1000A0000E3CC3BD4282AD2B3E68EC8276BED98F3A
:1000B000E1A93E4C80EFFFBE01C4FF7F3F0000007E
:1000C0000000005C06015D0703BA06045D05FF55EC
:1000D00007AA000000E40C01470A02E70A03D70858
:1000E00004B80B05C60A073208068B0A0CC207FFC4
:1000F0001B0EAA0000016364000000000000016301
:1001000068646972000000026D6400000000000075
:10011000026D6B6469720000000364656C0000008E
:1001200000000364656C657465000003726D6469AA
:100130007200000004726E0000000000000472658E
:100140006E616D650000046D760000000000000423
:100150006D6F766500000000056370000000000010
:100160000005636F7079000000000670776400007E
:100170000000000000000000000000004641543371
:10018000320001030507090E10121416181C1E3048
:100190002E392E332E345052205B48455854497224
:1001A000202841726475696E6F295D0001646500E5
:1001B000000000000001646576000000000002738A
:1001C000740000000000000273746F72650000008C
:1001D000000000000000000000FF3329FE0127AAF4
:1001E000000000082B01F72A047B2B03742AFF6D03
:1001F0002AAA000001630000000000000001720054
:100200000000000000000373000000000000000276
:100210006C00000000000000000000000000000072
:10022000000000000100780300FE30012F3203B50A
:100230003004C13107002F0F2032FF2732AA0000FF
:100240000B2E747700000000000C2E6E750000006D
:1002500000000D2E636800000000000E2E65630094
:10026000000000000F2E63720000000000102E6CD2
:100270006600000000000000000000000000000117
:100280006200000000000000012E6261000000001A
:1002900000026400000000000000022E6461000003
:1002A000000000037000000000000000032E7061D9
:1002B0000000000000046300000000000000056E64
:1002C00000000000000000067300000000000000B5
:1002D0000765000000000000000872000000000038
:1002E00000000974000000000000000A6F00000018
:1002F00000000000000000000000000000001124C9
:100300001FBECFEFD8E0DEBFCDBF11E0A0E0B1E06F
:10031000E6E9F3E702C005900D92A432B107D9F7E0
:1003200027E0A4E2B1E001C01D92A036B207E1F7D8
:100330000E9457290C94C93963CE28E039E040E87F
:10034000880F660F08F4842787FB0EF483272A950D
:10035000B9F78F770895EF92FF921F93CF93DF93B2
:10036000DC01FB01EF017D019D911191911105C00F
:10037000111107C081E090E01FC09F3329F41111D3
:10038000F1CF90E080E018C0911761F39A32C9F77D
:10039000BE01C7010196DFDF009761F7112361F00D
:1003A000BE016F5F7F4FC701D6DF31E020E0892BB0
:1003B00009F430E0832F922FDF91CF911F91FF90AE
:1003C000EF9008950F931F93CF93DF93EC01FC01FF
:1003D00001900020E9F73197E81BF90B05E010E0E8
:1003E0000E1B1F0B1016110674F4AF014F5F5F4F09
:1003F000BC01800F911F0E942339A80160E270E0C8
:10040000CE010E943439CE01DF91CF911F910F911F
:100410000895B0E0A0E0EFE0F2E00C940D356B0140
:100420007C01EA01C114D104E104F10479F00E94D5
:100430004B360E94D9360E941F366F5F7F4F8F4F19
:100440009F4F663071058105910570F42AE0AE0179
:10045000C701B6010E945639CE01B4DFCE01CDB737
:10046000DEB7ECE00C942935460157018AE0B694DA
:10047000A794979487948A95D1F7092C000CAA0821
:10048000BB0861E070E080E090E081149104A10479
:10049000B10461F0C501B4010E944B360E94D93607
:1004A0000E941F366F5F7F4F8F4F9F4F6E5F7F4F52
:1004B0008F4F9F4F663071058105910550F52AE0F9
:1004C000AE01C501B4010E945639FE010190002021
:1004D000E9F731978F010C1B1D0B8EE280830F5FB4
:1004E0001F4F0C0F1D1FC701B60173708827992776
:1004F0000E944B362DEC3CEC4CEC52E40E94B235A1
:100500000E941A36072E000C880B990B2AE0A801CE
:10051000A1CF45E050E06FE370E0CE010E94343996
:100520001D829CCF0F931F93CF93DF9321E2289FCF
:10053000E001299FD00D112424960DE011E0F8016F
:1005400080810E94E625F80181810E94E6258C2F9A
:100550000E94E6258D2F0E94E625DF91CF911F9105
:100560000F910895CF93DF93C6E0D1E089910E9467
:10057000E62581E0CD30D807C9F7DF91CF91089506
:10058000A6E0B0E0E6ECF2E00C940F356C01CB0194
:10059000BA01F22E132FAE014F5F5F4F3ADF5C01BD
:1005A000C6010E941A268FE10E94E62580EA0E9479
:1005B000E6258AEC0E94E6258AE10E94E62565018F
:1005C00085E0A80EB11CF60181916F010E94E6251D
:1005D000CA14DB04C1F780E20E94E62582E20E9491
:1005E000E625CF2CD12E10E0011741F0F6018191C4
:1005F0006F010E94E6251F5F1031B1F782E20E9471
:10060000E62580E20E94E6251F5F1131D1F78E2D8D
:100610000E94E62580E00E94E6252696EAE00C94FA
:100620002B35A6E0B0E0E7E1F3E00C940D355C017A
:10063000CB01BA01922EF32EAE014F5F5F4FE9DE80
:100640006C01FC0101900020E9F73197E81BF90BE0
:1006500010E0C80105968E0F9F1F0E941A2682E2A5
:100660000E94E625812C882D90E0F6010190002063
:10067000E9F73197EC19FD098E179F07E8F082E240
:100680000E94E6258CE20E94E625C92CDF2C0C0D89
:100690001D1DC016D106C1F48CE20E94E6258E2DE8
:1006A0000E94E625F50180819181019791838083E5
:1006B0002696ECE00C9429358C0D9D1DFC01808163
:1006C0000E94E6258394CFCFF60181916F010E94AD
:1006D000E625DFCF0F931F93CF93DF93EC018B01C0
:1006E00061E171E00E943B39892B91F060E171E09A
:1006F000CE010E943B39892B59F00115110531F0CB
:10070000BE01C80128DE21E0892B19F020E001C0DC
:1007100021E0822FDF91CF911F910F910895ADE3DA
:10072000B0E0E5E9F3E00C9413357A019E01235E15
:100730003F4F3C8F2B8FAB01BE01625D7F4F0E940C
:100740002F2110E000E0882329F0C801ED96E6E0B3
:100750000C942F35BE016F5F7F4FCE018E960E94A5
:1007600083218111F2CF8E85882379F38B8D9C8D27
:10077000FC012081211102C0CE010E96B701AADF33
:100780008111E8CF0F5F1F4FE5CFADE2B0E0EBEC9A
:10079000F3E00C9407355C013E018DE1680E711C9D
:1007A0007C8E6B8EF50127A530A941E2429FC001E6
:1007B000439F900D11240B960E941A26F50187A5E0
:1007C00090A9B0DE88248394912C41E1F42E150188
:1007D000FEE12F0E311CF50187A590A9881599051A
:1007E00050F4C0DE80E00E94E6250E94B525AD965B
:1007F000E2E10C942335F3018F2D11928A95E9F7EC
:10080000BE016F5F7F4FC1010E9483218111E9CF3B
:100810008E85882331F3CB8CDC8CF60180818111AD
:1008200003C0CE010E966C01898594E4E92E84FD07
:1008300006C026E4E22E83FF02C086E5E82EF6011C
:1008400001900020E9F731978F010C191D09F5017E
:1008500061A972A9C6013EDF8111BDCF2401FFEF5E
:100860004F1A5F0A49815A816B817C819601C401CC
:1008700087DE4201B0CFADE2B0E0E1E4F4E00C94F9
:1008800008355C017E018DE1E80EF11CFC8EEB8EDB
:1008900081E1382E45019EE1890E911CF701832DDF
:1008A00011928A95E9F7BE016F5F7F4FC4010E94E4
:1008B0008321811136C0CB8CDC8CF60180818111C3
:1008C00003C0CE010E966C01F60101900020E9F7FD
:1008D00031970E2F0C19898514E484FD03C016E4AA
:1008E00083FD16E549805A806B807C80F60180810B
:1008F0008823C9F0F50161A972A9C601EBDE811157
:10090000CDCFE12E9601B301A201C5018F9689DEFC
:1009100080E00E94E6250E94B525AD96E1E10C94A9
:100920002435823031F490E080E00E941A2687E07E
:10093000F0CF90E080E00E941A2686E0EACF8F9206
:100940009F92BF92CF92DF92EF92FF920F931F93ED
:10095000CF93DF9300D01F92CDB7DEB78C01B62EB8
:10096000F90146FF70C0009709F4A3C0DC019E9610
:100970008C919E9780619E968C93D9011196BA8333
:10098000A9838181811103C08AE281831282FD01E2
:1009900001900020E9F73197EA1BFB0BEB83BE01C6
:1009A0006D5F7F4FCE0101960E943827E980FA8063
:1009B0006FE270E0C7010E944B394C01FC010190CD
:1009C0000020E9F73197E81BF90B329708F43FC094
:1009D00001960E94F5386C01F4011182F701019033
:1009E0000020E9F73197EE19FF09E230F10538F000
:1009F0003197EE0DFF1D80818F3209F41082A60120
:100A0000B70184E494E08BDEF80190AB87A7C114B2
:100A1000D10411F0D2AAC1AAB11024C021E2289FAA
:100A20006001299FD00C1124FBE0CF0ED11CB8012E
:100A3000625E7F4FA70184E494E00E942F21882307
:100A4000A9F08F30C1F584E10E943A2623C0D12C51
:100A5000C12C892B19F6C7010E94F5386C01D7010A
:100A60001C92BCCF8EE1C82ED12CE1CF0E94A025D4
:100A7000811110C084E090E00E941A26C6010E94F5
:100A80001A2690E080E00E941A2680E00E94E62567
:100A90000E94B5250F900F900F90DF91CF911F917D
:100AA0000F91FF90EF90DF90CF90BF909F908F902D
:100AB000089581E2C9CF83E0C7CFA2E2B0E0E3E6C8
:100AC000F5E00C9416351C8E1D8E1E8E1F8E188E12
:100AD000198E1A8E1B8E1C8A1D8A1E8A1F8A188ADE
:100AE000198A1A8A1B8A1C861D861E861F861886EE
:100AF00019861A861B86FC01678170856AA332817C
:100B00003F3F41F46DE176E00E94DD28A296E3E0EC
:100B10000C9432358FE296E099A388A3809124014A
:100B200087FFBEC06F3F31F48AA160E190E00E9470
:100B3000DB26ECCF77278FE296E00E94C026182FA5
:100B40008111B5C09E01245E3F4F44E0BE016E5D41
:100B50007F4FCE0180960E9451268111ABC08C8DB3
:100B60009D8DAE8DBF8D84569109A109B1098C363A
:100B70009740A105B10508F49DC09E01285E3F4F36
:100B800042E0BE016E5D7F4FCE0180960E945126ED
:100B9000811190C0888D998DAA8DBB8D0197A10977
:100BA000B1090C97A105B10508F084C09E012C5E27
:100BB0003F4F42E0BE016E5D7F4FCE0180960E94A6
:100BC0005126811177C08C899D89AE89BF89019793
:100BD000A109B1094F97A105B10508F06BC09E01AD
:100BE000205F3F4F42E0BE016E5D7F4FCE01809699
:100BF0000E94512681115EC088899989AA89BB8982
:100C00004897A105B10508F055C09E01245F3F4FEC
:100C100042E0BE016E5D7F4FCE0180960E9451265C
:100C2000811148C08C859D85AE85BF85CC97A10577
:100C3000B10508F03FC09E01285F3F4F42E0BE0172
:100C40006E5D7F4FCE0180960E945126811132C089
:100C5000488559856A857B854C3351056105710549
:100C600048F58C8D9D8DAE8DBF8D84369105A10587
:100C7000B105A0F48C598E83888D81508D838C8929
:100C80008C8388898B838C858A834983CE010196E6
:100C90000E94890E812F0E943A2638CF8C56EBCFC6
:100CA0008091240114E18111F5CF14E0F3CF80315C
:100CB00089F73ACF12E2EECFEF92FF921F93CF93D4
:100CC000DF9300D000D000D0CDB7DEB77C019E010D
:100CD0002A5F3F4FAE014D5F5F4F68E00E940627DD
:100CE000182F811121C0F70182818F3F49F587813B
:100CF00083508D8382E396E09A838983BE016B5F84
:100D00007F4FCE0101960E9438276D81662339F00E
:100D10004DE156E089819A810E94A728182F612F02
:100D20008FEF90E00E942C2826960FB6F894DEBF35
:100D30000FBECDBFDF91CF911F91FF90EF9008952F
:100D400080912401811112C02E81822F807C81F03C
:100D50008B819C81009711F48FEF90E09C838B83B3
:100D600020932401612F8B819C81DCCF15E0FACF89
:100D700012E0F8CFA7E0B0E0E0ECF6E00C94143518
:100D80008C01FC0182818F3F31F40E940329279658
:100D9000E5E00C9430358091240186FF76C0CE01C9
:100DA000019669D782E380932F0680E38093300613
:100DB0008E8164E60E94B534892F2AE0622F0E945A
:100DC000B534805D80933106905D909332063CE2AD
:100DD000309333068D818F5F0E94B534805D8093A0
:100DE0003406905D90933506309336068C810E94D0
:100DF000B534805D80933706905D909338063093CC
:100E000039068B810E94B534805D80933A06905DEF
:100E100090933B0630933C068A810E94B534805DF6
:100E200080933D06905D90933E0630933F06898106
:100E30000E94B534805D80934006905D909341069A
:100E4000109242060E94A025F82E8111A0CFF80131
:100E5000058116810431110510F003E110E0C8018D
:100E60000E941A268F2D90E08017910730F080E0C5
:100E70000E94E6250E94B5258ACF815D994FFC012D
:100E800080810E94E625F394EDCF809124018111A9
:100E900004C084E00E943A267ACF82E0FBCF8091A2
:100EA00024018111109224010895F9DF0E94B525D3
:100EB0000E94A0258823E1F30895FC0182818F3FE1
:100EC00019F40C940029089580912401882329F0B5
:100ED000E6DF80E00C943A26089584E0FBCF809111
:100EE0001706882361F060911D062AE1260F81E034
:100EF00090E02A3010F090E080E0892B09F466EE53
:100F000022EC30E04FEE86EE0C94EF2B0895A7E034
:100F1000B0E0EDE8F7E00C94173556D7E0DF0E941B
:100F2000762C813079F48BE78E8382E08D8386E6A0
:100F30008C8386E18B8389E28A8386E08983CE0174
:100F40000196E7D62796E2E00C943335EFE6F4E01D
:100F500030E020E09081992361F09181981309C0DD
:100F600045E3429FC001439F900D11248F589B4F32
:100F700008952F5F3F4FF5962830310559F790E0DF
:100F800080E00895A2E0B0E0E8ECF7E00C941035C2
:100F90008C01FC018281DADF6C01F801E780F084CA
:100FA000892B09F456C0C701B0E0A0E0F6014085E6
:100FB0005185628573851CE084179507A607B707DE
:100FC00009F410E0E114F10409F448C0112369F0B8
:100FD00080912501811101C016E0612FC7010E9497
:100FE000DB262296E9E00C942C35BE2C0F2DF0E880
:100FF000EF16F10418F08FE7B82E00E06B2D702F7C
:101000008FE296E00E94C026182F81111DC09E011C
:101010002F5F3F4F4B2D502F6EEA76E0C6010E94A6
:10102000FF1C16E0803128F4E82FF0E0ED5EFE4F63
:10103000108149815A816FE276E08EEA96E00E9443
:101040000D39892B09F018E189819A81E81AF90A8A
:10105000B9CF10E0E114F10409F0BACF812F0E945A
:101060003A26BFCF0F931F93CF938C01FC0182814F
:1010700081111EC0C0912601C111C0E1C360F801F9
:1010800085819681892B89F10E94A02581110CC050
:1010900081E090E00E941A268C2F0E94E62580E0D5
:1010A0000E94E6250E94B525CF911F910F910895CA
:1010B0004DDFFC01C7E4892B11F386A584FD0FC029
:1010C000448155816681778180859185A285B3852C
:1010D000481759076A077B0731F4C3EDD0CF87A5BE
:1010E00090A9892BD1F3C3E5CACF8CE00E943A26A0
:1010F000DBCFA3E0B0E0EFE7F8E00C940D357C0126
:10110000FC0184809580A680B78086A59E012F5F14
:101110003F4F41E050E0BE016D5F7F4F83FF36C01F
:10112000C7010E94FF1C10E000E0D12CCC24C39426
:10113000811109C089819A81019729F48B818A30B4
:1011400081F4D11012C0B501A401C7010E94B61FDD
:10115000882311F010E000E0C8012396ECE00C9425
:1011600029358D3011F4DD2029F00F5F1F4F8232B9
:1011700009F4DC249E012F5F3F4F41E050E0BE01A7
:101180006D5F7F4FC7010E94FF1CD2CFC7010E9435
:10119000FF1C182FB501A401C7010E94B61F8B8147
:1011A00090E001961123C9F290E080E0D6CFA3E051
:1011B000B0E0EDEDF8E00C940F355C01FC01F2803D
:1011C000FFEFFF1621F080910F01F81206C00E9478
:1011D00003292396EAE00C942B358F2DB7DE8C0182
:1011E000009709F4CAC0FC0186A584FF07C0C801A6
:1011F000F11002C0CADAEDCF3EDBEBCF85FF11C0A4
:10120000F5012581368183819481289FA001299F42
:10121000500D389F500D112470E060E0C8010E940D
:10122000B61FF8014481558166817781808591855B
:10123000A285B3856A017B01EE24FF24C816D90676
:10124000EA06FB0638F090E080E00E941A2627E0CC
:10125000D22E8AC07C01E41AF50AF5018281E114DC
:10126000F10409F495C0882309F494C08E3F09F471
:1012700097C0F80186A585FF02C083FF8BC0C80117
:1012800038DF7C018AC09E012F5F3F4F41E050E074
:101290006FE276E0C8010E94FF1CC82E80E0CC20DF
:1012A00009F45DC029813A81E21AF30AD82EE114CB
:1012B000F10409F456C0D11057C0CC2021F3FFE04F
:1012C000FC1508F457C0EC2DF0E0ED5EFE4FD08029
:1012D000D1104AC0F80186A583FF46C09E012F5F4A
:1012E0003F4F41E050E0BE016D5F7F4FC8010E945B
:1012F000FF1C8B818D3059F49E012F5F3F4F41E0E1
:1013000050E0BE016D5F7F4FC8010E94FF1CF801D5
:1013100086A585FF29C0F5018381948101962581E9
:101320003681829FA001839F500D929F500D112402
:1013300070E060E0C8010E94B61F16C0215D394F01
:10134000F90180810E94E625811180E1D3942D2D41
:1013500030E049815A812417350780F3A3CFD12C7F
:10136000F6CFDD2009F4ABCF8D2D0E94E6250E943B
:10137000B5252FCF96E0D92EF7CF90E080E00E94E0
:101380001A26809125018823A9F383E0D82EECCF7B
:1013900081110DC0F501E580F680E114F10439F00A
:1013A000F501858196818E159F0508F47C01F80171
:1013B000248135814085518562857385C9018E0DF3
:1013C0009F1DB0E0A0E084179507A607B70718F0A7
:1013D0007A01E21AF30AC7010E941A2630E1D32EDD
:1013E000811101C0D12CC12C62CF1F93CF93DF9309
:1013F000182FCFE6D4E08881882389F08981811372
:101400000EC018828BA99CA9009711F00E94563833
:10141000809126018150809326010E942429E5961F
:1014200086E0C731D80739F7DF91CF911F91089532
:10143000CF93DF93EFE6F4E030E020E0908191116C
:101440001DC095E3929FE001939FD00D1124FE01F2
:10145000E159FB4F91E09083818314AA13AA10AA4B
:10146000809126018F5F8093260181E00E942429CC
:10147000CE018F589B4FDF91CF9108952F5F3F4F43
:10148000F59628303105D1F690E080E0F4CF0F9347
:101490001F93CF938C01FC01828190910F018917DA
:1014A00011F08F3F49F40E9400298FEF80930F01C4
:1014B000CF911F910F91089549DD0097A9F0FC018C
:1014C00026A5C0E024FD03C00E94AB1FC82FF80171
:1014D00082818BDFC03160F4EC2FF0E0ED5EFE4FD7
:1014E00080810E943A26E4CF80912501811102C0BB
:1014F00086E0F7CF84E0F5CF8091250181110AC005
:1015000064E474E081E00E94C21B811103C081E0A9
:10151000809325010895A3E0B0E0E1E9FAE00C949E
:1015200015358C01E9DFF801878190858F3F9105A2
:1015300041F038F06FE10E94DB262396E4E00C9442
:1015400031358B83BC018FE296E00E94C026811169
:1015500018C08FE296E09A838983BE016D5F7F4F4A
:10156000CE0101960E94382769817A8184E494E053
:101570000E942F22803140F4E82FF0E0ED5EFE4F14
:1015800080810E943A26D9CF86E0FBCFCF93DF93AC
:10159000EC01B2DF80912601882399F08A81D6DCA4
:1015A000009789F0FC0126A524FD0FC040E050E023
:1015B000BA010E94B61F80E00E943A26DF91CF91C7
:1015C000089584E0F9CF86E0F7CF8DE0F5CFEF9274
:1015D000FF921F93CF93DF93EC018EDF8A81B6DCFD
:1015E0007C0114E0009739F00E94AB1F803160F05D
:1015F00016E08A81FADE812F0E943A26DF91CF9190
:101600001F91FF90EF900895E82FF0E0ED5EFE4F00
:1016100010811111EECFF70161A972A984E494E061
:101620000E942F22803120F7E82FF0E0ED5EFE4F80
:101630001081DFCFADE0B0E0E0E2FBE00C941635C6
:101640009E838D836A878D819E819C878B878A8507
:101650008D879E01265F3F4FAE014B5F5F4FBE01FE
:10166000635F7F4FCE010B960E94FC278D852B85F3
:101670003C853C832B838987BE01675F7F4FCE010A
:1016800003960E943827AE01475F5F4FBE016D5F32
:101690007F4F85EF90E00E946827182F882371F014
:1016A000BE01675F7F4FCE0103960E9438276B8192
:1016B0007C81123021F180F41130C9F04CE156E008
:1016C00069858B819C810E943528882309F44CC050
:1016D0002D96E3E00C9432351330B1F0143071F7ED
:1016E0001886998588858917A0F081E0F1CF84E478
:1016F00094E00E944E248823B9F186E0E9CF84E487
:1017000094E00E940423F7CF84E494E00E942F2207
:10171000F2CF282F30E0FB01E20FF31F40814D3361
:1017200001F52F5F3F4F620F731F7A8369839150DA
:10173000981B9F83BE01685F7F4FCE0103960E9476
:101740003827BE01695F7F4FCE0101960E9438277E
:1017500049815A816B817C8184E494E00E949924C0
:10176000CACF8F5F8887BECF8A8581116CCFB0CFFB
:10177000A2E0B0E0EEEBFBE00C940A355C01DC018A
:101780001796CD90DC90189712968C9190910F013E
:10179000891711F08F3F69F4C6010E94D128811189
:1017A000BBC0F50167818FE296E044DF0E943A26D4
:1017B000B3C0CCDB7C0112E00097F1F1DC019E9616
:1017C0008C919E9710E085FF37C018964D915D91E2
:1017D0006D917C911B97D5011596ED91FC91169713
:1017E00013962D913C91E29FC001E39F900DF29FD3
:1017F000900D1124B0E0A0E0481759076A077B0755
:1018000080F5C7010E94B61F182F10922F06F7010E
:1018100080849184D50115964D915C91169713960D
:101820002D913C91429FC001439F900D529F900D7E
:1018300011248816990630F055245394912C812C4C
:1018400000E059C09E012F5F3F4F41E050E06FE242
:1018500076E0C7010E94041E182FFFEF8F1A9F0A1F
:10186000D9CFAC01BD01C7010E94B61F182FE4CF2C
:101870003601BFEFCB16D10421F018F066246A942C
:10188000712CB3018FE296E00E94C026082FF5016B
:101890008281811119C0F1E05F1216C080912F067C
:1018A000909130068F7D512C88248394912C803820
:1018B00023E0920749F031E020E08F30914009F0B9
:1018C00030E0832E922E512CE114F10491F001119D
:1018D00010C09E012F5F3F4FA3016FE276E0C7016A
:1018E0000E94041E182F89819A818615970509F098
:1018F00016E0C618D708C114D10409F1011103C0BC
:10190000112309F4B5CF80912501811101C006E0B2
:10191000602FC6010E94DB262296EFE00C9426354C
:101920009E012F5F3F4F41E050E06FE276E0C7013C
:101930000E94041E182FFFEFCF1ADF0A2FC0E114F8
:10194000F104A1F1D7019E968C9183FF1BC08114F5
:101950009104C1F48DE080932F068AE080933006D5
:101960009E012F5F3F4F42E050E06FE276E0C701FB
:101970000E94041E182F89819A8122E0C22ED12C48
:10198000029701F5F70186A585FF10C010922F067A
:10199000F501878190850196C80ED91ED50115964F
:1019A0008D919C918C159D0508F0BACF011108C04E
:1019B00006E0103128F4E12FF0E0ED5EFE4F0081EB
:1019C000802FF4CE0CE0DECFAF92BF92DF92EF9289
:1019D000FF920F931F93CF93DF9300D000D000D0DE
:1019E000CDB7DEB77C011C821B821E8285DDD7014C
:1019F00012968C9168E08F3F09F06FE19E012A5F9B
:101A00003F4FAE014D5F5F4FC7010E940627182F61
:101A1000811132C0F701878183508D8382E396E084
:101A20009A838983BE016B5F7F4FCE0101960E942E
:101A30003827E981FA819081D70112968C919923F8
:101A400011F08F3F79F480930F018081882321F07A
:101A50006D81CF01EFDD182F612F8FEF90E00E9495
:101A60002C280AC09432C1F4E3DC29813A814E81EA
:101A7000F70162810E949F0426960FB6F894DEBF9C
:101A80000FBECDBFDF91CF911F910F91FF90EF90CF
:101A9000DF90BF90AF9008959E81907C3AE0D32E66
:101AA000903851F043E1D42E903C31F052E1D52EE4
:101AB000992311F0DD24D39490912501992309F401
:101AC0005CC0B6DC8C01A980BA80C5010E94F538E3
:101AD000D801D2969C938E93D1970115110509F4E4
:101AE0004CC02D2DA501B80184E494E00E94CA1BCE
:101AF00081110BC09E81907C61F4F8014085518575
:101B000062857385C8010E94B61F26E0D22E8031FF
:101B100070F5E82FF0E0ED5EFE4FD080D11027C0C9
:101B2000D80118963C91189719962C918E8185FFB3
:101B300007C0D8019E969C919E9790629E969C931A
:101B4000D11039C0982F9870807C5B814C81803493
:101B500009F1911104C0F80186A5886086A7852F38
:101B6000942F009711F48FEF90E06D2D78CFF7014F
:101B700082813BDC30E020E0D9CF8091250110E06C
:101B800000E030E020E091E2D92E8111CFCF86E055
:101B9000D82ECCCF911107C0D8019E968C919E97DC
:101BA00088609E968C93852F942FF7014281411176
:101BB000D8CF0097D1F6832F922FD7CF80911706D9
:101BC00060911C06811101C064E624ED30E045E718
:101BD00084E60E94EF2B0C94F82C0895CF93DF93AA
:101BE0008BDC80912601C5E3811109C0DF91CF9183
:101BF00008958F589B4F0E94AB1F8D2FF6DBEFE6A9
:101C0000F4E030E020E08081882371F0C29FC001C1
:101C1000C39F900D1124FC01E159FB4FD18120910C
:101C20002501222351F3E5CF2F5F3F4FF596283052
:101C3000310549F7DBCFD2DF0E94B5250E94A025F0
:101C40008823E1F30895EFE6F4E0108215AA1092DC
:101C5000D90410920E051092430510927805109247
:101C6000AD051092E2051092260110922501A6DF23
:101C70000C94F82C0895A7E0B0E0E1E4FEE00C94A9
:101C800014358C0147E050E061E272E00E94EC38CC
:101C9000809159078230C9F59E012F5F3F4F47E081
:101CA00060E080ED0E946433F82E81112EC089819E
:101CB0008F770E94662CF80180838A810E94662CAF
:101CC000F80181838B810E94662CF80182838D81CB
:101CD0000E94662CF80183838E818F770E94662C88
:101CE0008150F80184838C810E94662C8150F80118
:101CF00086838F810E94662C9E8197FF02C094E6A6
:101D0000F92E8C598F0DF80185832796E5E00C9408
:101D10003035A7E0B0E0EFE8FEE00C9415352091F7
:101D20005907222309F44AC08C01FC0180810E94DA
:101D30006F2C8983F80181810E946F2C8A83F801BE
:101D400082810E946F2C8B83F80186818F5F0E94B5
:101D50006F2C8C83F80183810E946F2C8D83F80196
:101D600084818F5F0E946F2C982FF801858120E07D
:101D7000883C08F020E8922B9E8364E60E94B534EC
:101D8000892F0E946F2C8F839E012F5F3F4F47E06A
:101D900060E080ED0E9420338091270140E067E001
:101DA000882331F06EE080ED0E94073340E06FE061
:101DB00080ED0E94073382E0809359072796E4E084
:101DC0000C94313582E008950E949933109259079E
:101DD00060E080ED0E94473397FD17C045E562E162
:101DE00080ED0E94073362E180ED0E944733853524
:101DF000910561F41092270160E080ED0E94473365
:101E000087FF09C081E080935907089581E080939E
:101E100027016FE0F2CF82E0F6CFEF92FF921F939F
:101E2000CF93DF9382E090E00E94AD397C0110E017
:101E3000C2E0D0E0CE15DF0590F081E090E00E9496
:101E4000A5398117A1F012BC11BC1092170612BC63
:101E500011BCDF91CF911F91FF90EF900895CE01BB
:101E6000805090400E94A539180F2196E3CFA7011A
:101E700060E070E087E196E00E94953981E0809310
:101E80001706E5CFE9E1F6E080E09191890F96E051
:101E9000EF32F907D1F728E130E030931A062093AA
:101EA00019068093180648E150E060E070E087E191
:101EB00096E00E94B23912BC11BC08950F931F9393
:101EC000FC019A01AB012250310941095109868177
:101ED0009781A085B1850297A109B1092817390713
:101EE0004A075B0778F4A0A5B0E00E94FD340289A0
:101EF000138924893589600F711F821F931F1F91D9
:101F00000F91089560E070E0CB01F9CF0F931F931C
:101F1000CF93DF938C01DB01FC013D969C012B5E8E
:101F20003F4FEB018991BE01803261F0853009F4A9
:101F300085EEAF014F5F5F4F80834217530709F073
:101F400052C0F90118968C9118978032A9F08EE250
:101F50008083BD01685F7F4FCF0104963196EB010E
:101F60004991BE01403241F09F012F5F3F4F4083B6
:101F700028173907D1F5FC0110821B968C911B970D
:101F8000F80180875C964D915D916D917C915F9792
:101F9000408351836283738358968D919C915997A6
:101FA0009583848356968D919C91579797838683CA
:101FB00054964D915C91559770E060E0BA015527B9
:101FC00044275A968D919C91B0E0A0E0842B952BEC
:101FD000A62BB72B81879287A387B487DF91CF91F8
:101FE0001F910F910895FA019CCFF901B8CF90EE9F
:101FF000980F2FE9280F2A3100F19B30E8F09FEB72
:10200000980F9A31C8F090ED980F9A30A8F087FD9C
:1020100013C0813650F48E3578F48C3220F08E3235
:1020200058F08D3349F08FE507C08B3729F0D8F38E
:1020300093E8980F9230B8F70895892F0895CF93B9
:10204000009799F0FC0127A1211103C081E0CF91F5
:102050000895C62F82A50E94072D80FDF7CFCC23BF
:1020600031F082FF04C089E0F2CF8AE0F0CF80E057
:10207000EECF009749F0FC0127A1222329F082A589
:102080000E94072D817008958CE008954F925F9211
:102090006F927F92AF92BF92CF92DF92EF92FF92B8
:1020A0000F931F93CF93DF93C0912D01D0912E01F9
:1020B000409028015090290160902A0170902B01D6
:1020C000441655066606770629F4C817D90711F491
:1020D00081E02FC06A017B015C0180912C0181119C
:1020E0001DC0C114D104E104F10491F301E0A70182
:1020F00096016FE271E0F50182A50E94DE2D81114B
:1021000017C0C0922801D0922901E0922A01F092D2
:102110002B01B0922E01A0922D01DACF01E0A30194
:1021200092016FE271E08AA50E94772E882381F0E8
:1021300080E0DF91CF911F910F91FF90EF90DF90A2
:10214000CF90BF90AF907F906F905F904F90089529
:1021500010922C018A859B85AC85BD854A815B8167
:102160006C817D81840F951FA61FB71F48165906E5
:102170006A067B0608F0B5CF19A5123008F4B1CF76
:102180008A819B81AC81BD81480E591E6A1E7B1ECF
:1021900001E0A30192016FE271E08AA50E94772E0F
:1021A0001150EBCF73CF0895CF92DF92EF92FF9251
:1021B0000F93CF93DF93EC016A017B01F3DF811171
:1021C00009C082E0DF91CF910F91FF90EF90DF90F7
:1021D000CF900895CD28CE28CF2899F401E020E0B3
:1021E00030E0A9016FE271E08AA50E94DE2D811125
:1021F000E8CF109228011092290110922A01109222
:102200002B0180912D0390912E0385359A4AC9F6B2
:1022100043E050E06CE771E085E691E00E94DF3832
:10222000892B81F045E050E06CE771E081E891E0B6
:102230000E94DF38892B41F480915701881F88273D
:10224000881FC0CF80E0BECF81E0BCCFB0E0A0E06F
:10225000ECE2F1E10C940C35423051056105710559
:1022600028F461E070E080E090E054C0FC01068159
:10227000178120853185401751076207730788F75A
:102280006A017B018C0182849384A484B58487A134
:10229000823009F446C0833009F45AC0813009F70E
:1022A000EA01CC0FDD1FC40FD51FCE01892F99275E
:1022B00086958695B501A401480F591F611D711DB2
:1022C000C80170DF882369F2D695C795FE01F170C9
:1022D000E85DFE4F77802196CE01892F992786955C
:1022E000B501A401480F591F611D711DC8015ADFB6
:1022F000882309F4B6CFD170C85DDE4F6F81762F89
:10230000672DC0FE0CC044E0769567954A95E1F7CD
:1023100090E080E0CDB7DEB7EDE00C9428357F701B
:10232000F7CF77276F2D5E2D4D2D480D591D6A1D56
:102330007B1DCF0137DF882309F493CFF601EE0F21
:10234000FF1FEE7FF170E15DFE4F60817181E0CF94
:1023500097E076956795579547959A95D1F7480DEB
:10236000591D6A1D7B1DCF011DDF882309F479CF1C
:10237000F601EE0FFF1FEE0FFF1FEC7FF170E15D26
:10238000FE4F60817181828193819F70C3CFB0E0E5
:10239000A0E0EDECF1E10C941135EC01088119811C
:1023A0000F5F1F4FC8018F709927892B09F04CC010
:1023B0008C859D85AE85BF850196A11DB11D8C873D
:1023C0009D87AE87BF87488559856A857B858A81C9
:1023D0009B81FC01411551056105710559F480810E
:1023E00091810817190780F180E0CDB7DEB7E8E0EA
:1023F0000C942D3520A52150330BF801A4E0F6955F
:10240000E795AA95E1F72E233F23232BE9F41EDF5E
:10241000AB01BC01423051056105710528F38A8189
:102420009B81FC01C680D780E084F1844C155D055A
:102430006E057F05C8F6488759876A877B873EDD2A
:102440006C877D878E879F871983088381E0CDCF36
:10245000A6E0B0E0EEE2F2E10C9409359E838D83B4
:102460006A017B0148015901DC011A964D905D908B
:102470006D907C901D9797968C919797823009F478
:102480006CC0833009F481C08130A1F48A01000F4F
:10249000111F040F151FC801892F9927869586954E
:1024A000B301A201480F591F611D711DCD017ADED4
:1024B000811102C080E046C016950795F801F170C1
:1024C000882DE85DFE4FA701960121703327442730
:1024D000552729833A834B835C83C0FE07C08781DD
:1024E0008F7040E1849E90011124822B87830F5FBF
:1024F0001F4F81E080932C01C801892F9927869571
:10250000B301A201480F591F611D711D8D819E816C
:1025100049DE882379F21170F801E85DFE4F898168
:102520009A81AB81BC81892B8A2B8B2B79F044E07B
:10253000B694A794979487944A95D1F7878281E0BF
:1025400080932C012696E0E10C9425358781807FCD
:10255000992D9F70892E882AF1CF77276F2D5E2DB8
:102560004D2D440D551D661D771D8D819E811ADEF2
:10257000882309F49FCFF601EE0FFF1FEE7FF17065
:10258000E15DFE4F11830083DACF97E07695679582
:10259000579547959A95D1F7440D551D661D771DA2
:1025A0008D819E81FFDD882309F484CFF601EE0F33
:1025B000FF1FEE0FFF1FEC7FF170E15DFE4F808289
:1025C0009182A282B382BBCFA6E0B0E0EAEEF2E154
:1025D0000C9409359E838D832A013B01DC011696FC
:1025E0008D919D910D90BC91A02D89839A83AB8391
:1025F000BC834114510461047104A9F4ED81FE818E
:10260000828C938CA48CB58C81149104A104B104A8
:1026100029F088169906AA06BB0628F1812C912C70
:102620005401839420C08D819E8110DE6B017C015A
:10263000F2E0CF16D104E104F10450F4C12CD12C06
:102640007601C394C701B6012696E0E10C942535C6
:1026500089819A81AB81BC81C816D906EA06FB063E
:1026600088F353014201750164019FEFC91AD90A29
:10267000E90AF90A89819A81AB81BC81C816D90619
:10268000EA06FB0678F092E089169104A104B104F1
:1026900020F4C12CD12C7601D5CF82E0C82ED12CCC
:1026A000E12CF12CB701A6018D819E81CFDD611552
:1026B00071058105910561F0613071058105910514
:1026C00009F4BCCFC814D904EA04FB0471F6E1CFC5
:1026D0000FEF1FEF2FEF3FE0B701A6018D819E8125
:1026E000B7DE882309F4AACF4114510461047104B0
:1026F00001F5AD81BE815A96CD92DD92ED92FC92AC
:102700005D97FD01868D978DA0A1B1A18F3FFFEF51
:102710009F07AF07BF0709F495CF0197A109B1093A
:10272000ED81FE81868F978FA0A3B1A381E086A360
:1027300089CF97018601B301A2018D819E8188DE38
:102740008111D7CF7BCFB0E0A0E0E9EAF3E10C94B0
:102750000C35EC016A017B017724739482E0C81682
:10276000D104E104F10448F08E819F81A885B985E8
:10277000C816D906EA06FB0610F081E00DC0B701C5
:10278000A601CE0163DD4B015C0121E082169104BC
:10279000A104B10431F480E0CDB7DEB7EDE00C94D4
:1027A000283500E010E09801B701A601CE0150DE07
:1027B000882389F38E8D9F8DA8A1B9A18F3F2FEF1C
:1027C0009207A207B20741F00196A11DB11D8E8F9D
:1027D0009F8FA8A3B9A37EA275016401BFCF2F92DA
:1027E0003F924F925F926F927F928F929F92AF92A1
:1027F000BF92DF92EF92FF920F931F93CF93DF93DD
:10280000CDB7DEB72C970FB6F894DEBF0FBECDBFA5
:102810009C878B877A876987DC011296ED90FC9004
:10282000CA0149966DE070E00E94C1345B01EB85FE
:10283000FC85448055806680778041145104610492
:10284000710409F440C04086518662867386B301E4
:10285000A201C70133DBEB85FC856487758786871A
:102860009787AB85BC851D921C9219821A821B82A8
:102870001C821D821E821F821886312C212C10E0A2
:10288000EB85FC854485558566857785C7018ADC9F
:10289000811125C088E02C960FB6F894DEBF0FBEDC
:1028A000CDBFDF91CF911F910F91FF90EF90DF90FF
:1028B000BF90AF909F908F907F906F905F904F9060
:1028C0003F902F900895F70186859785A089B1895B
:1028D000EB85FC8584879587A687B787C2CFAB85B4
:1028E000BC858D919C918F70992725E0880F991F49
:1028F0002A95E1F7FC01E85DFE4F2781222311F0C4
:10290000253EF1F521E0210F111121C0815D9E4F7F
:10291000E985FA8591838083AB85BC852D903C90B9
:1029200011971C968D919D910D90BC91A02D89833E
:102930009A83AB83BC83AB85BC8518968D919D91A2
:102940000D90BC91A02D8D839E83AF83B8872A15EF
:102950001B0429F5EB85FC853182208289819A81CF
:10296000AB81BC8184879587A687B7878D819E813F
:10297000AF81B88580879187A287B38780E08BCFAE
:102980001A151B0409F010E08B859C8500DD811170
:1029900077CF45284628472821F486E07CCF122FA0
:1029A000F3CFAB85BC8518964D915D916D917C916F
:1029B0001B97C70109DE4B015C0181149104A1043E
:1029C000B10459F3B1E08B169104A104B10409F4E8
:1029D00061CF40E050E0BA01C701E4DB882309F48D
:1029E00059CFB501A401C70169DA2B013C0140921E
:1029F00028015092290160922A0170922B01EFE286
:102A0000F1E080E092E0DF019C011D922150304016
:102A1000E1F7D7019896DC90D11019C081E080933E
:102A20002C01112331F149815A816B817C81C701CD
:102A3000B9DB882309F42ECFAB85BC852D923C925F
:102A400089819A81AB81BC81EB85FC858BCF01E0CC
:102A5000A30192016FE271E0F70182A50E94772E37
:102A6000811118CFFFEF4F1A5F0A6F0A7F0ADA94BD
:102A7000D3CFAB85BC851D921C928091280190918B
:102A80002901A0912A01B0912B01EB85FC85848757
:102A90009587A687B78780869186A286B3868FE2C0
:102AA00091E0E985FA859183808368CF0F93CF9376
:102AB000DF93EC0181E080932C0140E050E0BA010B
:102AC000CE0170DB882309F45CC08FA1833009F04C
:102AD00056C08EA1882309F452C01092280110928A
:102AE000290110922A0110922B01EFE2F1E080E01F
:102AF00092E0DF019C011D9221503040E1F785E515
:102B00009AEA90932E0380932D0382E592E5A1E645
:102B1000B1E480932F0190933001A0933101B093E1
:102B2000320182E792E7A1E4B1E680931303909328
:102B30001403A0931503B09316038E8D9F8DA8A147
:102B4000B9A18093170390931803A0931903B0932E
:102B50001A038A8D9B8DAC8DBD8D80931B03909342
:102B60001C03A0931D03B0931E032AA13BA14CA1FB
:102B70005DA101E0BF018AA50E94772E1EA280E020
:102B800001C088E0DF91CF910F910895A8E0B0E0F7
:102B9000ECECF5E10C94073598878F835B014A01D3
:102BA0003E832D831A830983FC82EB82DC0112961B
:102BB000ED90FC90F70146895789608D718D411524
:102BC00051056105710521F0D4018C918F3241F4DA
:102BD000F701468557856089718987A18330C1F4E3
:102BE000AF81B88514964D935D936D937C93179741
:102BF000FD014087518762877387C7015FD9AF8125
:102C0000B8851C966D937D938D939C931F970EC0F2
:102C1000EF81F8851482158216821782108611863C
:102C2000128613864487558766877787EF81F885F4
:102C300011821082A981BA811396FC92EE921297AA
:102C4000F4013F0181918F32E1F3811108C0ED81E0
:102C5000FE81118210822896E2E10C94233511E066
:102C6000AB81BC816D927C924BE050E060E270E001
:102C7000C5010E94343998E080E0F3013196D30118
:102C80000C91002311F00F3261F4882309F487C1FD
:102C9000D5011B961C92D6011D921C923F01412C1E
:102CA00047C0003208F47BC10F3709F478C1003205
:102CB00099F00E3209F08FC0882309F4A9C0813041
:102CC00049F4D5012C912E3209F49FC09BE088E095
:102CD0003F01D3CF8930D0F30C3509F460C10A33FA
:102CE00009F45DC1802F877F823209F458C1802F9B
:102CF0008F7B8C3309F453C10E53023008F44FC15B
:102D00003F01BFEF6B1A7B0A0081002319F0F3012A
:102D10000F3211F7AB81BC818D919C91F301E81BBF
:102D2000F90BCF010197D6018D939C9344244394D2
:102D3000013009F430C1912C812C55245394EF813A
:102D4000F8854485558566857785C7012BDA882304
:102D500009F423C1112319F1EF81F885808591854C
:102D6000A285B385E981FA8180879187A287B3879D
:102D7000EF81F88584859585A685B785E981FA81F7
:102D800084879587A687B787AF81B8858D919C91F9
:102D900091838083411003C0F60111821082AF81BC
:102DA000B8858D919C918F70992725E0880F991F88
:102DB0002A95E1F7FC01E15DFE4F1F01885D9E4F02
:102DC000DC0117966C91611129C082E0002309F49F
:102DD00042CF83E040CF023209F4E1C00A32A8F0CA
:102DE0000D3208F479CF0A3380F0003408F474CF40
:102DF0000C3709F4D4C025EA200F233008F46CCF37
:102E00002FE9200F2A3108F40052891708F064CF07
:102E1000D501A80FB11D0C938F5F5ACF653E09F401
:102E200080C08385982F9F709F3009F053C0442045
:102E300009F449C06F716150FDE06F9F602D11244E
:102E400082E891E050E0462F450F51100EC0850EEC
:102E5000911C10E08F8198859ADA811170CF411012
:102E6000B4CFF60111821082B0CFFC012491F101A0
:102E7000E20FF11D208131E0350FFC017491F10169
:102E8000E70FF11D7181211102C0772301F3AB819E
:102E9000BC81ED91FC91E40FF11D40815FE9540F7D
:102EA0005A3108F440525FE9520F5A3108F4205267
:102EB000552453942413512C01963D3011F0532F77
:102EC000C2CF5DE0C4CFF601808191810D969183E0
:102ED0008083BFCF4420D9F0552029F1D6018D91B0
:102EE0009C918815990521F58BE0D50101900D92F3
:102EF0008A95E1F7F1018485D5011B968C93011128
:102F000019C0AD81BE812D923C9280E0A4CE83FD9C
:102F100008C04BE050E0B501CF010E940D39892B6C
:102F200071F311E097CF142D542C912C812C92CF5A
:102F3000152DFBCFF101838584FF4BCF4489558943
:102F400070E060E0BA0155274427828D938DB0E090
:102F5000A0E0482B592B6A2B7B2BAF81B8851496A8
:102F60004D935D936D937C931797FD014087518737
:102F700062877387C7010E945E0FAF81B8851C9678
:102F80006D937D938D939C931F97E2E0F0E0ED931A
:102F9000FC9310E065CE84E05ECE88E05CCE01E07C
:102FA0007ACEA6E0B0E0E7EDF7E10C940935182FF2
:102FB0007E836D83F42E8BE2DB011D928A95E9F707
:102FC000812F82958F70ED81FE8182A70E94112D45
:102FD00080FD95C1FF2011F082FD93C11F7009F0A3
:102FE00026C140E050E0BA018D819E81DDD8C12C20
:102FF000D12C7601811168C180913A0190913B01F9
:103000008115924009F063C120914501309146013C
:1030100050E040E0211531054105510541F4209172
:103020005301309154014091550150915601AD81A9
:10303000BE8112962D933D934D935C931597A0916D
:103040003F01ED81FE81A1A7B0E00E94FD346983BC
:103050007A838B839C8380913D0190913E01460150
:103060005701880E991EA11CB11C82869386A486E6
:10307000B58640913C0140A74090400150904101ED
:10308000518240828091420190914301B0E0A0E0E2
:103090000097A105B10541F480914F019091500135
:1030A000A0915101B091520124E0569447942A9581
:1030B000E1F7712C612C20913D0130913E01821B82
:1030C000930BA109B109BC01CD0109811A812B81A2
:1030D0003C81601B710B820B930B64197509860987
:1030E0009709242F30E050E040E00E94D534DA0107
:1030F000C9010296A11DB11DED81FE8186839783D2
:10310000A087B187873FFFE09F07A105B10508F4BD
:10311000E0C0873F9F4FA105B10508F4EEC083E0F2
:10312000AD81BE8197968C9380915B0190915C01FB
:10313000A0915D01B0915E01ED81FE818687978748
:10314000A08BB18B13E0840C951CA61CB71C898145
:103150009A81AB81BC81880E991EAA1EBB1EAD81CF
:10316000BE8152968D929D92AD92BC9255978FEFF3
:103170009FEFDC01ED81FE81868F978FA0A3B1A325
:10318000133009F04EC080915F0190916001B7014A
:10319000A601480F591F611D711D42A353A364A3CB
:1031A00075A3CF010E94D2108823D9F180912D03FD
:1031B00090912E0385359A4AA1F580912F01909127
:1031C0003001A0913101B091320182359245A14682
:1031D000B14439F58091130390911403A091150324
:1031E000B091160382379247A144B146D1F4809141
:1031F0001B0390911C03A0911D03B0911E03ED8150
:10320000FE81828F938FA48FB58F80911703909149
:103210001803A0911903B0911A03868F978FA0A36A
:10322000B1A3AD81BE8197961C9380E09CC001E064
:1032300020E030E0A9016FE271E0AD81BE819A9695
:103240008C910E94DE2D811142C01530C8F4212FCF
:103250002150330BF90134E0EE0FFF1F3A95E1F7EF
:10326000E351FD4F8481882391F1C084D184E284AD
:10327000F384B701A6018D819E810E94D410BACE3D
:103280001450812C912C54018091F1028530D9F198
:103290008F30C9F180910103853009F468C08F3007
:1032A00009F465C080911103853009F463C08F3043
:1032B00009F460C080912103853019F08F3009F046
:1032C00051C0EDE1F3E021C08F3F09F44BC08BE02A
:1032D0004AC011E0AD81BE8197961C9389819A8185
:1032E000AB81BC81880D991DAA1DBB1DED81FE819E
:1032F00086879787A08BB18B26CF12E0EBCF81E03A
:1033000032C089E030C0EDEEF2E0C084D184E284C6
:10331000F384C80CD91CEA1CFB1C81149104A10481
:10332000B10411F44601570101E0A70196016FE2D3
:1033300071E0AD81BE819A968C910E94DE2D811143
:10334000C6CF115009F0A0CFEDEEF2E084818823C2
:1033500021F0853011F08F3081F47096B3E0ED32BA
:10336000FB07A1F78CE02696E0E10C942535EDEF04
:10337000F2E0CBCFEDE0F3E0C8CF40855185628528
:103380007385C40ED51EE61EF71E73CFADE0B0E008
:10339000ECECF9E10C9407359D878C874B013A01E1
:1033A0002901DC0112962D903C901397F8011386A9
:1033B00018968D919D910D90BC91A02D8A839B8331
:1033C000AC83BD83EC85FD850190F081E02DFF830A
:1033D000EE83AC85BD851C968D919D910D90BC9121
:1033E000A02D88879987AA87BB87B22E4BE050E033
:1033F00060E270E0C8010E943439F30180818E32AE
:1034000069F0EFEFE40DF0E03196E60DF71DD42CF6
:10341000BB24BA94BD0C59F5F6E0BF2E6982730146
:1034200090E0AA24A394A90E6801C90ED11C8E2D88
:10343000F9818F1B8B15F0F1F801EA0DF11D933026
:1034400008F047C081E4D6018C9382E48083E2E0F7
:10345000E90FE00FF12FF11D83E48083E3E0E90F32
:10346000E00FF12FF11D9C5F84E4808332C08291D4
:103470008E3211F0DB2CCCCFF1E028E0FD1560F6A8
:103480008D2D90E08415950548F62B3038F6860D85
:10349000971DDC018C91803259F0CC24C394C20E6C
:1034A0007801E20EF11C0E94F70FF70180832C2DAA
:1034B000D394E6CFD7018D917D01803239F08E32E1
:1034C00029F00E94F70FF60180839A2D963009F0BB
:1034D000A8CFF801E90FF11D8EE780839F5FF80107
:1034E000E90FF11D81E38083F8018081853E11F4AD
:1034F00085E0808370E3D72EE1E3CE2EAC85BD85D9
:103500001296ED90FC90139714964D915D916D91EC
:103510007C911797411551056105710509F4EEC0BD
:10352000FD014087518762877387C7010E945E0F44
:10353000AC85BD851C966D937D938D939C931F9751
:10354000AC85BD851D921C92EC85FD854485558515
:1035500066857785C7010E94D210882309F4DAC0F6
:10356000AC85BD852D913C912F70332765E0220FEE
:10357000331F6A95E1F7C901815D9E4F285D3E4F7B
:10358000F90127812223C9F0253E89F0DC011B9631
:103590002C91322F3F703F3051F023FD08C04BE09B
:1035A00050E0B8010E940D39892B09F4B3C08C8515
:1035B0009D850E94C7118111C7CFF801F190055F69
:1035C0001F4F8F2D8695F0FC8068F190F80EE01764
:1035D000F107B9F7C2010C966DE070E00E94C134AA
:1035E000E62E8A819B81AC81BD81EC85FD8580873B
:1035F0009187A287B3878E819F81918380838885FD
:103600009985AA85BB8584879587A687B787162F56
:10361000DD24D39430E2C32E4DE0B42E0FEF5FE0F3
:10362000A52EAC85BD851C964D915D916D917C91CB
:103630001F97C1010E94D210882309F45DC0AC8598
:10364000BD858D919C918F70992725E0880F991FDA
:103650002A95E1F7815D9E4FF401918380831123C8
:1036600009F48EC0D0922C010190F081E02DDF0191
:103670002C2D1D922A95E9F780E41E1180E0D401DB
:10368000ED91FC91812B808311501B9D602D1124A5
:10369000E2E8F1E040E0862F840F90E0D4012D9124
:1036A0003C9151E0540F8415950568F44491860DC2
:1036B000971DDC018C91240F311DD9018C9331961B
:1036C000452F5D3041F74F5F90E080E0242F30E0E0
:1036D0002E573E4FF401A081B1814D3008F43EC019
:1036E0001B96AC920190F081E02DF5868C859D852E
:1036F0000E94C711811195CF88E020C0F70186850F
:103700009785A089B189EC85FD8584879587A687F3
:10371000B78716CF88E08150F801E80FF11D90813E
:103720009032C9F320E0F801E80FF11D9081993340
:1037300049F4D082815021E0B1F787E02D96E2E193
:103740000C942335222339F09E3729F4C082882334
:10375000A1F3319701C09F5F9083D0CEF901E80FAC
:10376000F91F5491A50FB11D0C934F5FE491D40143
:103770006D917C91E60FF72FF11D01830196AACF81
:1037800080E0DCCF6115710511F0FB0117A240E06C
:1037900008CC0895A2E3B0E0E0EDFBE10C9407351E
:1037A0003C014B012A01322E1AAA19AADB011396F9
:1037B0001C921E921297622F6E710E941F10B82EDB
:1037C0008111ADC07C8A6B8AFE01BF966F01CE016C
:1037D0008D967C018E010F5F1F4F9E012F5C3F4F26
:1037E000A201BE016F5D7F4F4C97D0D999A19E3247
:1037F00009F4F4C0932D9F71A92E932D9C7109F4A7
:10380000DDC0882309F490C0823009F0F3C04FA5D1
:1038100058A9BE016F5C7F4FCE0141960E94EF1305
:103820008111E8C02FA538A92115310509F067C01D
:10383000E9A9FAA980E2DF011D928A95E9F7A9A911
:10384000BAA98BE0FE01B19601900D928A95E1F73D
:10385000E9A9FAA98CA584876894A3F8A3FE0DC0F2
:10386000E9A9FAA913860E94132CE9A9FAA9668787
:103870007787808B918B6894A5F88091280190912F
:103880002901A0912A01B0912B01F401808F918F21
:10389000A28FB38FE9A9FAA9D4015D96FC93EE93A8
:1038A0005C97AC9284899589B0E0A0E0DC0199270F
:1038B0008827428D538D70E060E0482B592B6A2B8E
:1038C0007B2BD4011C964D935D936D937C931F9736
:1038D000848D958DA68DB78DF40180879187A28701
:1038E000B387148215821682178281E081837382E6
:1038F00062828A2D8C7199F0C301D8D810C04DA571
:103900005EA58E010F5D1F4FBE016F5C7F4FCE0124
:1039100041963CDD882309F48BCFE8E0BE2E8B2D49
:10392000E296E2E10C94233532FC5BC0E9A9FAA9E6
:10393000309709F450C0838584FD56C080FD57C080
:1039400033FE8CCFC488D588F12CE12C7601DD24A0
:10395000CC24828D938DB0E0A0E0C82AD92AEA2A2F
:10396000FB2A158A148A138E128E148E158E168ECB
:10397000178E81E080932C0120902801309029013E
:1039800040902A0150902B01B701A601C3010E946B
:10399000A313882311F2B201A101C3010E94D21026
:1039A000882309F4BACFB1E0CB1AD108E108F108B5
:1039B000F301C28ED38EE48EF58E50CF81111AC0E2
:1039C000E9A9FAA93097C1F0838584FD15C031FEBD
:1039D00054CF80FF52CF86E0B82EA1CF54E0B52E51
:1039E0009ECF47E0B42E9BCF3EE0B32E98CF2FE082
:1039F000B22E95CFB82E93CF92E0B92E90CFB0E0F3
:103A0000A0E0E5E0FDE10C940735EC015B017A01F3
:103A10003901CA80DB80F90111821082C6010E943F
:103A20003910182F81111DC0888187FDE9C080FFE2
:103A3000E9C088859985AA85BB854C815D816E81A9
:103A40007F81841B950BA60BB70BA70170E060E08C
:103A500084179507A607B70708F47C01E114F10461
:103A600031F4812FCDB7DEB7E2E10C9423354C81E0
:103A70005D816E817F81DB01CA019170AA27BB271E
:103A8000892B8A2B8B2B09F092C0898181508983E5
:103A9000882309F45DC02C883D884E885F88FFEF3D
:103AA0002F1A3F0A4F0A5F0A40E050E0BA018A81AC
:103AB0009B810E944610882309F49FC02C8A3D8A6E
:103AC0004E8A5F8AC701892F99278695009709F446
:103AD0006EC00981802E912C8815990508F44C013F
:103AE000082DA2019101B501F60182A50E94DE2DEB
:103AF000811183C089818F5F881989839401215046
:103B000031098C899D89AE89BF89820F931FA11DC0
:103B1000B11D8C8B9D8BAE8BBF8B982C8824990C00
:103B2000A80CB91C8C819D81AE81BF81880D991D27
:103B3000A11DB11D8C839D83AE83BF83F301808162
:103B40009181880D991D91838083E818F90886CFAB
:103B5000452B462B472B09F54C855D856E857F856A
:103B6000423051056105710508F447C0F6018681B0
:103B70009781A085B185481759076A077B07E8F543
:103B8000488B598B6A8B7B8BC6010E945E0F1B0191
:103B90002C01F60180A5898387CF488959896A89D4
:103BA0007B89C6010E942611AB01BC01D9CF8C8153
:103BB0009D81917020E032E0281B390B47012E15C2
:103BC0003F0508F449014C895D896E897F898A81A6
:103BD0009B810E944610882381F08C819D81AE815B
:103BE000BF819170AA27BB270796BC01685D7E4FF5
:103BF000A401C5010E941A3993CF88818068888307
:103C000018E02FCF16E02DCFA3E0B0E0EAE0FEE110
:103C10000C9407359B838A835B017A013901FC018F
:103C2000C280D380F90111821082C6010E9439102E
:103C300089838111CDC0EA81FB81808187FD36C1F6
:103C400081FF37C180859185A285B385AC01BD0117
:103C50004E0D5F1D611D711D481759076A077B07CF
:103C600008F4B6C0EA81FB81448155816681778181
:103C7000E114F10409F497C0DB01CA019170AA278D
:103C8000BB27892B8A2B8B2B09F0D3C0EA81FB81C0
:103C9000818181508183882309F465C02488358817
:103CA00046885788FFEF2F1A3F0A4F0A5F0A40E005
:103CB00050E0BA01EA81FB81828193810E94461023
:103CC000882309F4EBC0EA81FB81248A358A468A7D
:103CD000578AC701892F99278695009709F4A9C0AB
:103CE0000181802E912C8815990508F44C01082D2E
:103CF000A2019101B501F60182A50E94772E8111E2
:103D0000CDC0EA81FB8181818F5F88198183940115
:103D10002150310984899589A689B789820F931F1B
:103D2000A11DB11D848B958BA68BB78B982C8824F5
:103D3000990CA80CB91CEA81FB8184819581A6812C
:103D4000B781880D991DA11DB11D84839583A6831C
:103D5000B783F30180819181880D991D91838083C0
:103D6000E818F9087FCFEA81FB81452B462B472BCA
:103D7000A1F5648575858685978561157105810531
:103D8000910599F540E050E0BA01C6010E94E412A5
:103D9000EA81FB816487758786879787611571053E
:103DA0008105910511F5EA81FB8184819581A681C8
:103DB000B7814085518562857385481759076A0721
:103DC0007B0708F464C0EA81FB8180818062808384
:103DD00089812396E2E10C942335408951896289D7
:103DE0007389C6010E94E412D9CF61307105810543
:103DF000910509F453C0F6010681178120853185AC
:103E0000601771078207930708F048C0EA81FB81B9
:103E1000608B718B828B938BAB01BC01C6010E94BE
:103E20005E0F1B012C01F60180A5EA81FB818183D5
:103E30003ECFEA81FB8184819581917020E032E060
:103E4000281B390B47012E153F0508F44901EA816B
:103E5000FB814489558966897789828193810E9493
:103E600046108823D9F0EA81FB8184819581A6815F
:103E7000B7819170AA27BB270796A401B501885D79
:103E80009E4F0E941A39F1E0F0932C0152CFEA8143
:103E9000FB8180879187A287B38795CFEA81FB81D9
:103EA000808180688083F8E0F98392CF28E02983BD
:103EB0008FCF36E039838CCFEF92FF920F931F9311
:103EC000CF93DF93EC01EA80FB80C7010E94391099
:103ED00081110DC0988195FF0AC040E050E0BA0101
:103EE0008A819B810E944610811106C088E0CDB76F
:103EF000DEB7E6E00C942F35488D598D6A8D7B8DA9
:103F0000C7010E94D210882389F30C8D1D8DF80102
:103F100083858062838788859985AA85BB85848F00
:103F2000958FA68FB78F8C859D85938F828F8C857B
:103F30009D85AE85BF85B58BA48B0E94132CF8019F
:103F4000668B778B808F918F88818F7D8883C70167
:103F50000E945615CCCFCF93DF93EC01ADDF8111DA
:103F600002C01B821A82DF91CF910895A9E0B0E0D0
:103F7000ECEBFFE10C940735998788876A017B0198
:103F8000DC0112960D911C91C8010E943910382E47
:103F90008111B4C0E885F985808187FD5DC1848188
:103FA0009581A681B7818C159D05AE05BF0509F4E5
:103FB000A5C040E050E0BA01828193810E94461082
:103FC000882309F444C1E885F98580859185A28517
:103FD000B3858C159D05AE05BF0528F4208121FD14
:103FE00002C06C017D01C114D104E104F10409F4A3
:103FF00026C1D80198968C90912CB12CA12C29E047
:10400000880C991CAA1CBB1C2A95D1F7C701B601C4
:10401000A50194010E94D53429833A834B835C83A4
:10402000262E7D838E839F83E885F9854480558085
:1040300066807780C301B2016150710981099109DD
:10404000A50194010E94D53489819A81AB81BC81FC
:1040500082179307A407B50709F055C0A885B9854D
:104060001496CD92DD92ED92FC921797C22CDD80D2
:10407000EE80FF80F1E0CF1AD108E108F10899E065
:10408000F694E794D794C7949A95D1F7A885B98503
:1040900050964D915D916D917C915397C8010E940E
:1040A0005E0F8C2C0C2C000C9908AA08BB08DC01B4
:1040B000CB01880D991DAA1DBB1DE885F985848B50
:1040C000958BA68BB78BD80198968C918C19818390
:1040D000E885F98584819581A681B78140855185E0
:1040E00062857385481759076A077B0738F480870C
:1040F0009187A287B387808180628083832D2996F0
:10410000E2E10C94233581E0E885F985818341144F
:1041100051046104710409F473C04C145D046E040D
:104120007F0408F06DC0C501B4010E94A634648309
:10413000758386839783C61AD70AE80AF90A6089C5
:104140007189828993896115710581059105D1F481
:1041500040E050E0BA01C8010E94E41261307105EC
:104160008105910509F473C0A885B9851C966D93E6
:104170007D938D939C931F97611571058105910522
:1041800009F478CFE885F985608B718B828B938BEE
:104190008C149D04AE04BF0408F042C02081AB0122
:1041A000BC01C80121FF37C00E94E41261157105EE
:1041B0008105910599F1623071058105910508F439
:1041C00046C0D80116964D905D906D907C901997E1
:1041D0006415750586059705D0F5E885F985448051
:1041E000558066807780480C591C6A1C7B1C448271
:1041F000558266827782C818D908EA08FB08C2CFC0
:10420000E885F98514821582168217826485758582
:104210008685978598CF0E942611C8CF75016401C5
:10422000E885F98584819581A681B7818C0D9D1DD6
:10423000AE1DBF1D84839583A683B7831BCFE885FE
:10424000F985148215821682178281E040CFA885F5
:10425000B9858C9180688C9388E0382E4FCFA2E28C
:10426000B0E0E5E3F1E20C940B354C015B013A015F
:1042700060E00E941F10182F81113EC0F50193824B
:104280008282CE014D966C01FE017F967F018E01E8
:104290000F5F1F4F9E012F5D3F4FA301BE016F5E59
:1042A0007F4FC5010E94C615182F811125C0E9A1B5
:1042B000FAA1309709F1838584FF23C04489558989
:1042C00070E060E0BA0155274427828D938DB0E0FD
:1042D000A0E0482B592B6A2B7B2BF5014087518797
:1042E00062877387C4010E945E0FF501648775873A
:1042F0008687978711821082812FA296EEE00C9418
:10430000273512E0F9CFB0E0A0E0E9E8F1E20C9443
:104310000D358C01EB01FC01C280D380EA8DFB8D51
:10432000309709F01082C6010E94391081112BC00C
:104330001D86B12CF12CE12C9DE0A92E22E8822EC5
:1043400021E0922EF80144855585668577854115D3
:10435000510561057105B1F0C6010E94D210882394
:1043600009F47BC0F801608171816F70772785E067
:10437000660F771F8A95E1F7FB01E85DFE4F8781A5
:10438000811106C080E0CDB7DEB7ECE00C94293592
:10439000853E09F441C0615D7E4F2A8D3B8D21151C
:1043A000310509F452C0FB0193859F709F3009F0DD
:1043B00048C0B11031C08F7181508A9D802D112469
:1043C000803108F047C090E040E09401281B390B91
:1043D000F901E80FF91FA491A60FB72FB11D5C9149
:1043E000511108C0A491A60FB72FB11D11965C9171
:1043F000552381F08031F9F0E491E60FF72FF11D9C
:104400005081EA8DFB8DE80FF91F50834F5F0196B5
:104410004D30F1F6E40EF11CC8010E94C711811164
:1044200005C0F80114861586168617868D858823A3
:1044300009F488CFA7CF40E0BB24B394F12CE12C42
:10444000E9CF2E0D3F1DF9011082CE010E94860F8B
:10445000B12CE2CFBB24B394DFCF88E094CFA2E3AA
:10446000B0E0E5E3F2E20C940D355C014B0161E054
:104470000E941F10811140C0BC8AAB8ACE018D966C
:104480006C01DE019F967D018E010F5F1F4F9E0123
:104490002F5C3F4FA401BE016F5D7F4F4C970E9480
:1044A000C615811129C0E9A9FAA9309709F4AAC053
:1044B000238586E020FD20C089A18E3209F4A2C0A8
:1044C000C488D588F12CE12C7601DD24CC24828DA2
:1044D000938DB0E0A0E0C82AD92AEA2AFB2A24FF5B
:1044E00049C0F50186899789A08DB18D8C159D05F0
:1044F000AE05BF0529F480E1E296ECE00C94293585
:10450000C98EDA8EEB8EFC8EB701A601C5010E9422
:104510005E0F6D8F7E8F8F8F98A382E090E09A8BD5
:10452000898B4D8D5E8D6F8D78A1C5010E94D21053
:10453000811102C088E0E0CF89899A898F7099271C
:1045400035E0880F991F3A95E1F7FC01E15DFE4FD8
:10455000885D9E4FDC0117968C91882359F0853E2B
:1045600019F0838583FFC7CFCE0141960E94C71102
:104570008111D7CF8DA59EA549966DE070E00E9470
:10458000C1347EA76DA715EE01E08DA59EA59C0107
:10459000215031093EA72DA7892B59F4B701A60157
:1045A000C5010E94A313882329F2C5010E94561554
:1045B000A3CF4D855E856F857889C5010E94D21095
:1045C000882309F4B7CF89819A818F70992725E0D4
:1045D000880F991F2A95E1F79C01215D3E4F3AAB68
:1045E00029AB885D9E4FFC01178300932C018DA59C
:1045F0009EA5892B51F2CE0101960E94C71181110F
:10460000C4CF98CF84E078CF4F925F926F927F9221
:10461000AF92BF92CF92DF92EF92FF920F931F93D0
:10462000CF93DF93CDB7DEB7EA970FB6F894DEBF2E
:104630000FBECDBF5C013B0161E00E941F108111E4
:1046400044C0BC8AAB8A9E01215D3F4F6901CE0107
:104650008D967C018E010F5F1F4F2E5F3F4FA30190
:10466000BE016F5D7F4F4C970E94C615882309F4E9
:1046700011C1823051F589A18E3209F40DC14FA5C7
:1046800058A9BE016F5C7F4FCE0141960E94EF1387
:1046900081111BC08091280190912901A0912A01CC
:1046A000B0912B018FAB98AFA9AFBAAF40E050E00B
:1046B000BA01C5010E94E4126B017C0191E0C916A8
:1046C000D104E104F104B1F488E0EA960FB6F8945D
:1046D000DEBF0FBECDBFDF91CF911F910F91FF9035
:1046E000EF90DF90CF90BF90AF907F906F905F90F2
:1046F0004F900895B701A601C5010E945E0F2B01DE
:104700003C0186E04114510461047104F1F2B301EB
:10471000A201C5010E94D2108823B1F2EFE2F1E0BC
:1047200080E092E0DF019C011D9221503040E1F7D2
:1047300011E0F50180A5181708F489C04BE050E09E
:1047400060E270E08FE291E00E9434391EE2109343
:104750002F0180E180933A010E94132C2B013C0130
:104760004092450150924601609247017092480183
:1047700080E2EFE2F1E0AFE4B1E001900D928A95C2
:10478000E1F710935001D0924A01C0924901C7014C
:10479000AA27BB278BAB9CABADABBEAB90934401C0
:1047A000809343018D899E89AF89B88DF50127A13A
:1047B000233061F446855785608971894817590708
:1047C0006A077B0719F480E090E0DC0190936A01AE
:1047D00080936901B0936401A093630181E08093A9
:1047E0002C014FA958AD69AD7AADC5010E94D21018
:1047F000882309F469CF2FA538A921153105D1F5F2
:10480000E9A9FAA980E2DF011D928A95E9F7A9A931
:10481000BAA98BE0FE01B19601900D928A95E1F75D
:10482000E9A9FAA98CA5848781E080932C0180E115
:104830008387468A578A608E718ED38EC28E2BA94B
:104840003CA9358B248BC5010E9456153ECF3FEF06
:10485000431A530A630A730A01E0A30192016FE24B
:1048600071E0D5019A968C910E94772E81112CCF00
:104870001F5F5FCF4DA55EA58E010F5D1F4FBE016F
:104880006F5C7F4FCE0141960E94C619882309F4C0
:10489000B7CF1ACF87E019CF84E017CFA2E3B0E0FB
:1048A000E4E5F4E20C940D355C014B0160E00E94FC
:1048B0001F10811120C0BC8AAB8ACE018F966C017B
:1048C000FE01BD967F018E010F5F1F4F9E012F5C81
:1048D0003F4FA401BE016F5D7F4F4E970E94C615EA
:1048E000811109C0E9A9FAA9309749F4F501168A9E
:1048F000178A108E118EE296ECE00C942935938580
:1049000094FF15C04489558970E060E0BA015527CD
:104910004427028D138D30E020E0402B512B622B79
:10492000732BF501468B578B608F718FE4CF81E13C
:10493000E2CFABE4B0E0EFE9F4E20C940B355C01BC
:104940004B013A0161E00E941F108111BDC0B9A660
:10495000A8A6CE018A5B9F4F6C01FE01EE5BFF4F64
:104960007F018E010A5E1F4F9E01265B3F4FA4010F
:10497000BE016A5C7F4F80970E94C6158111A4C05A
:104980002C96EEADFFAD2C9782E0309709F49CC0D9
:1049900085E13B96DE01119601900D928A95E1F733
:1049A000CE018C5B9F4F6C019E01285B3F4FA301A2
:1049B000BE016A5C7F4F4E970E94C615882309F49A
:1049C000AEC0823009F080C08EA98E3209F4A9C031
:1049D00026964EAD5FAD2697BE01685B7F4FCE0138
:1049E00086960E94EF1381116FC026962EAD3FADC3
:1049F00026972115310509F055C02A962EAD3FADF9
:104A00002A9785E1FE013196D9011B9601900D92FE
:104A10008A95E1F78BE0FE01F696D90101900D929F
:104A20008A95E1F72A96EEADFFAD2A9722968FADD3
:104A30002297848781E080932C01CE018A5B9F4F6F
:104A40006C01FE01EE5BFF4F7F018E010A5E1F4F7E
:104A50009E01265B3F4FA401BE016A5C7F4F809799
:104A60000E94C61528968EAD9FAD289749966DE099
:104A700070E00E94C13428967FAF6EAF289715EE84
:104A800001E028968EAD9FAD28979C0121503109F9
:104A900028963FAF2EAF2897892BD9F4C5010E94E5
:104AA000561512C024964EAD5FAD24978E010A5C58
:104AB0001F4FBE01685B7F4FCE0186960E94C619CC
:104AC000882309F49ACF88E0C55BDF4FEEE00C94B1
:104AD00027354AA15BA16CA17DA1C5010E94D2101E
:104AE000882389F38E899F898F70992725E0880F05
:104AF000991F2A95E1F79C01215D3E4F2C963FAF0F
:104B00002EAF2C97885D9E4FFC01178300932C01DC
:104B1000CE0146960E94C7118111B3CFD4CF87E052
:104B2000D3CF84E0D1CF5B98539A00000000089562
:104B30004A9904C04B99FCCF80E008958FEF089507
:104B400089B18470089587B1807F87B988B18F60FB
:104B500088B98AE08A95F1F700C0089553985B9A66
:104B60004B9902C04A9BFCCF0895F8DFECDF5298C6
:104B70005A9A8AE08A95F1F700C00895D9DF811129
:104B800001C0D1DF80E008950F931F93CF938C0174
:104B9000FC018081811111C0C6DFC6B1DFDF4A99F7
:104BA00010C04B99FCCFBFDF86B18295807FCF705C
:104BB0008C2BF801808380E005C0D0DFB9DF88232B
:104BC00059F38FEFCF911F910F910895CF93DF93FA
:104BD000C82F5A98529AC2DF8AE28A95F1F700C02C
:104BE00098B12C2F2F70907F922B98B988B1807F2D
:104BF000DFE02D27822B87B996DF8AE28A95F1F7CD
:104C000000C0ACDF8AE28A95F1F700C088B1C29596
:104C1000CF70807F8C2B88B988B1807FCD27C82B3F
:104C2000C7B981DF8AE28A95F1F700C080E0DF91A1
:104C3000CF910895CF93C92FC9DF811102C08C2F66
:104C4000C5DFCF9108950F931F93CF93DF938C010E
:104C5000EB014A9909C084E090E0ECDFC801EADF8B
:104C6000CE01E8DF80E0B2DF80DFDF91CF911F91DE
:104C70000F910895CF93C82F4A9905C090E080E026
:104C8000D9DF8C2FA3DF71DFCF91089552985A9A04
:104C900053985B9A87B1807F87B988B18F6088B954
:104CA00008958F929F92AF92BF92DF92EF92FF9200
:104CB0000F931F93CF93DF93EC018B01D42E7901D7
:104CC000D9011D921D921D921C921397E0E090E075
:104CD000D8018C91E817A0F5A881B981AE0FB11D5C
:104CE000FC91F03239F481E08E0F992321F1E82F05
:104CF00080E029C080ED8F0F8A30F8F49D15D8F53B
:104D0000D7012D913D914D915C91AAE0B0E00E94B8
:104D1000FD344F2F4053550B4A01550FAA08BB08CD
:104D2000860E971EA81EB91ED7018D929D92AD9238
:104D3000BC92139791E0EF5FCBCFFC32E1F4EF5FD1
:104D400080E09923D1F081110AC0288139812E0F8A
:104D5000311D39832883D8019C919E1B9C93DF9140
:104D6000CF911F910F91FF90EF90DF90BF90AF9088
:104D70009F908F90089581E0E4CF81E090E0E3CFB1
:104D8000FF920F931F93CF93DF93EC018C01060FDB
:104D9000171FFF24F394C017D10731F480E0CDB77B
:104DA000DEB7E5E00C943035CE01F992EDDE8823D4
:104DB00091F380E1F4CFA1E0B0E0E1EEF6E20C94F3
:104DC00011356C01F62E10E000E0EE24E3940C1592
:104DD0001D0519F48F2D4EDF07C0E982CE01019623
:104DE000D3DE882329F0BADE2196E8E00C942D3535
:104DF0000F5F1F4FECCF6DE0FC0187819085DBCF0B
:104E00000895ACDE9DDE8823E9F30895EF92FF92CA
:104E10000F931F93CF93C62F7A018901FC018781DD
:104E200090858F3F910549F040F0C5DF8C2FCF91E1
:104E30001F910F91FF90EF900895BC018FE296E0D3
:104E40009FDFC82F811111C08091300690E0982F0C
:104E5000882720912F06820F911DF701918380836F
:104E600080913106F8018083E1CF78DECBE1DECF9F
:104E7000CF93DF93EC01DB01E881F98180818032FF
:104E800039F02C9121110BC01082DF91CF91089540
:104E90003196F983E8838C9181508C93EDCF21502A
:104EA00030E0888199816C912115310521F4FC0154
:104EB000E60FF11DE9CFAC01420F531FFA0140810B
:104EC00021503109403299F7EFEFE60FEC93E9CF2B
:104ED000EF92FF920F931F93CF93DF93EC018B011F
:104EE0007A01BA01C801C4DFFE01849120E090E09C
:104EF00069E0882301F1492F50E0FA013196269F9D
:104F0000E00DF11D1124EC0FFD1F7491D7013C91B0
:104F1000711116C0F801A081B181A40FB51F9317BC
:104F200019F03C913032B9F4F801B183A083D70174
:104F30002C91291B2C93CDB7DEB7E6E00C942F35CE
:104F4000931309C02F5FFE01269FE00DF11D112470
:104F5000849190E0CECFF801A081B181A40FB51F5C
:104F60003C91432F50E031543A3110F4405E5F4F92
:104F70009F5F7417150631F7BCCFA1E0B0E0E3ECFA
:104F8000F7E20C940B354C017B016A01BA01C701B1
:104F90006FDF1982F60100811981101710F0912C32
:104FA00023C0F701A080B180612E712CF501E60DC0
:104FB000F71D80818D33E9F4AE014F5F5F4FB7017C
:104FC000C40186DF982E882379F0FFEF6F1A7F0ADD
:104FD000A60CB71CF701B182A0821095010FF60153
:104FE0000083B601C70144DF892D2196EEE00C94C1
:104FF00027351F5F1983D0CFB0E0A0E0E2E0F8E2F0
:105000000C940F358C01EB017A01D9011C92588167
:10501000F0E0E0E09E2FE517C0F4D801AD90BC9021
:10502000BF016F5F7F4F6501CE0EDF1ED6018C91F1
:105030008C3281F46A0D7B1DD7016D937C9388813E
:105040008150891BD9018C93E883CDB7DEB7EAE0A4
:105050000C942B35FB01DECF611104C070E060E0E1
:10506000F2CD0895862F06CE0895A7E0B0E0EBE3D9
:10507000F8E20C9414359E838D836F838A01198224
:105080001A821B821C82AE01495F5F4FBE016B5FBB
:105090007F4F8CEA91E01CDFF82E882369F0BE0177
:1050A000695F7F4FCE010596E3DE82E0F81204C00F
:1050B0000E94420F80E00FC0AE01495F5F4FBE010A
:1050C0006B5F7F4F8CEA91E058DF8130E1F501158D
:1050D000110529F482E22796E5E00C9430359E0113
:1050E0002F5F3F4F43E0BE01695F7F4FCE010596C2
:1050F000D8DD81112AC049815A816B817C814F3F63
:1051000051056105710509F000F530913007E0E3C4
:10511000F7E090E080E0242F8317E0F6A1812A17C2
:1051200078F0A381A21760F025E0289FF001299F65
:10513000F00D1124E05DF84F4283F8014083BACFAF
:1051400001963596E9CF81E0C6CF80E1C4CFA6E0D5
:10515000B0E0EDEAF8E20C9415358A019A83898370
:105160006B8389819A819D838C838B818E839E0141
:105170002D5F3F4FAE014F5F5F4FBE016A5F7F4FB4
:10518000CE01049639DFA8016E818C819D816DDF8F
:10519000811103C09B819111E4CF2696E4E00C9429
:1051A00031358F3F910528F4BC018FE296E0E8CDC0
:1051B000089568E000DE88E00895A3E0B0E0E3EE43
:1051C000F8E20C9415358B01FC01878190858B8367
:1051D0009927E7DF811110C08FE296E09A838983D7
:1051E000BE016D5F7F4FCE01019642DEA8016B814B
:1051F00089819A81ACDF3EDD2396E4E00C94313561
:1052000080E038CD08950F931F93CF938CE190E009
:1052100011DDC0E1811101C0C0E00FE811E0C11152
:1052200004C0F1E00B3A1F0739F48C2FCFDC9DDC72
:10523000CF911F910F910895F8018491C7DC8111DE
:10524000C0E10F5F1F4FEBCF882331F080912F0714
:10525000826080932F07089580912F078D7FF9CF6B
:1052600080912F0708950E94EE0D97D20E9421325F
:105270000E944F077ADC64DC8823E9F3089515D196
:1052800078940E940D0FB4D301DD579A0E94253403
:1052900029ED31E040E060E080E0A1D20E94870784
:1052A0000E94230E0E9454328ED252980895CDB798
:1052B000DEB72997DEBFCDBFE2DF0E94E20ED82E17
:1052C0001A821B821D821C821F821E8219861886EA
:1052D000E12C85E0C82E93E0B92E2EEFA22E80E0BF
:1052E000B3DF2EDC182F811109C048DC81E0ACDF70
:1052F00000E026DCF82E882371F1F1CF81E0D8168A
:1053000081F30E944D32882339F00E945D3481116F
:10531000E8CF80E097D0E5CF4FD28111F6CF81E082
:10532000F9CF81E090E08C0F9D1F810F911DFC0152
:1053300010832ADC982E809143048E1539F08091D9
:1053400043048150823010F40E94230EE090430405
:10535000911018C01F5F193021F7011114C050912E
:1053600030079981E0E3F7E09F0180E0581759F09A
:105370002B5F3F4FD90113974C91491709F435C062
:105380008F5FF4CFEBDBEADBDBDB8823E9F310E0B4
:1053900024C09C0162810196359646132EC0C29EA0
:1053A000F001C39EF00D1124E05DF84F248135819A
:1053B0008A81F9010B9DE00DF11D112494910F5F7D
:1053C0009A3A69F09813F5CF319625913491CE0130
:1053D0000196F9010995FF24F3940F2D8ACF8A3A9B
:1053E00099F3CE01019607DDF6CF911104C08A81B1
:1053F0008F3F09F0AA8290E080E0851750F2CE013D
:105400000196FFDCE8CF1F920F920FB60F92112486
:105410008F93EF93FF9383B78E7F83BFE898E4E683
:10542000F0E080818B7F808380818F7D808380818D
:105430008F7B8083FF91EF918F910F900FBE0F9024
:105440001F901895813049F1A8F0823051F1F894FD
:1054500080916900826080936900E89A83B78160D7
:1054600083BF85B7806685BF8F7D85BF78945F9841
:105470008895089580916400846080936400809191
:1054800064008062809364008091640080648093F3
:10549000640083B7817F83BFDACF83B7817F8C605D
:1054A000FACF83B7817F8460F6CFE4E6F0E08081B5
:1054B0008160808380818068808380818860808330
:1054C000089580911706882331F090912C069A5008
:1054D00081E09A3008F080E008951092310345DBB6
:1054E0002FDB8823E9F30895FC0182818F3F11F4BB
:1054F0008ACE089585E1BECB0895A9E0B0E0E3E847
:10550000FAE20C9411357A0189019C838B836E83B6
:10551000DD24D3948B819C8198878F838E818987AA
:105520009E012A5F3F4FAE014D5F5F4FBE01675F37
:105530007F4FCE01079660DD89852F8138853A83BC
:1055400029838D83BE016B5F7F4FCE01019690DC76
:10555000AE014B5F5F4FBE016F5F7F4F84EF91E005
:105560000CDDC82E8823C1F1BE016B5F7F4FCE01D9
:1055700001967EDCE981FA8181E0C816D1F083E0F2
:10558000C8122AC02081822F90E021542A3108F4C9
:1055900080968C36910549F02CF4C097029728F03C
:1055A00080E121C08E369105D9F78E818111B2CF6D
:1055B0001AC02081822F90E021542A3108F480966D
:1055C0008C36910531F08E36910551F7F801108235
:1055D000ECCFF801D082E9CFA7016D8189819A8152
:1055E00044DD882311F32996E8E00C942D35FC0165
:1055F00082818F3F11F404CE08958091310381118F
:1056000005C084E01092310335CB089580E0FACFD5
:10561000EF92FF921F93CF93DF9300D000D000D082
:10562000CDB7DEB77C011C821B821D829E012B5FE1
:105630003F4FAE014D5F5F4F68E0E8DB182F8111EF
:1056400021C0F701878183508E8382E396E09A839D
:105650008983BE016A5F7F4FCE01019609DCF701A5
:1056600082818F3FD9F46E81662341F02DE236E0CE
:105670004CE256E089819A8140DF182F612F8FEF2D
:1056800090E0EADC26960FB6F894DEBF0FBECDBFE1
:10569000DF91CF911F91FF90EF900895809131039A
:1056A000811125C08D81803821F580912D06809350
:1056B0002F0380912E06809330036E81662341F084
:1056C0002FE233E050E040E089819A8116DF182F05
:1056D00081E0809331038B819C81009711F48FEFDF
:1056E00090E09C838B83612F8B819C81CACF15E0D6
:1056F000FACF11E0F8CFFF920F931F93CF93DF9370
:105700008C01FC01C781D08582818F3F79F4CE0165
:1057100048DD811135C02DE236E04CE256E0F8015B
:1057200067818FE296E0E9DEA5DA2AC08091310335
:1057300081112BC084E02097B9F31FC08E01CF3FA9
:10574000D10519F010F00FEF10E0B8018FE296E0EC
:1057500017DB81110CC090913103992341F090E047
:1057600001C09F5F90171106E0F3FF24F394C01B64
:10577000D10B209769F0882309F3682FCE011BDB3A
:10578000CDB7DEB7E5E00C94303580E0F12CF1CFF9
:10579000FF2051F290913103C7CF10923103089549
:1057A00090DE60912C06811101C06CE022EE31E0A8
:1057B00043E18AE014C008959091310381E0911192
:1057C00001C080E0089510923103EADF7ADE811192
:1057D00005C081E080932D0680932E060895E09108
:1057E0003007A0E3B7E090E0E91310C091E09E0F0E
:1057F0009093300795E0E99FF0011124E05DF84FA8
:1058000081836283438335832483089511965C9159
:105810001197581305C013965C9113975417A9F369
:105820009F5F1596E1CFA7E0B0E0E9E1FCE20C94C0
:105830001535CE0101960E943B0E2C816B8170E0E4
:1058400090E080E03BE0660F771F881F991F3A9534
:10585000D1F7822B0A8110E030E020E045E0000F14
:10586000111F221F331F4A95D1F7602B712B822BFA
:10587000932B29812695622B0E8110E030E020E0E9
:10588000005511092109310959E1000F111F221F8B
:10589000331F5A95D1F7602B712B822B932B0D81DF
:1058A00010E030E020E00F5F1F4F2F4F3F4FE5E14A
:1058B000000F111F221F331FEA95D1F7602B712BA8
:1058C000822B932B2796E4E00C943135982F9295F8
:1058D0009F708F702AE0929F800D112408956AE0D6
:1058E0000E94B5348295807F890F08958091590771
:1058F00008959627092E0294602D6F706927292F2D
:105900002025220F207E6227202D2927207F269503
:10591000092E000C221F9695969596959F719227B9
:105920009827862F08952FB7F89480915A07909161
:105930005B072FBF08952A9A29D728D727C708952C
:10594000A4E0B0E0E6EAFCE20C940D35E82ED42E9B
:10595000C52E962E872E682F80E00E949D01682D0F
:105960000E949D01692D0E949D016C2D0E949D0148
:105970006D2D0E949D01880FF82E6894F0F80AE0C2
:105980002A988E2DFDD689829A82CB82DC8240E0D5
:1059900064E070E0CE01019600D78F2DF1D6C3DF11
:1059A000C2965C01F3D6182F87FF05C0BCDF8A19A9
:1059B0009B0997FDF7CF13FF03C0BDDF015001F72F
:1059C000812F2496ECE00C9429351F920F920FB68C
:1059D0000F9211248F93189909C081E0809343049A
:1059E0008F910F900FBE0F901F90189582E0F6CF09
:1059F0002098289A2198299AE8E6F0E08081816031
:105A00008083EBE6F0E080818160808308951899BF
:105A100004C0199904C080E0089583E0089584E0EB
:105A20000895A4E0B0E0E6E1FDE2FDC7811151C0B8
:105A3000EEDF81FF03C080E0EADF21C081E08CD689
:105A400003E010E043E0E42EE092430410923203BE
:105A50002A9A3AE0F32E8FEF93D6FA94F110FBCF07
:105A600040E050E0BA0180E46BDFF82E64DF81E0B3
:105A7000F7FC05C0F81631F00150110929F72496FA
:105A8000E6E0EDC74AEA51E060E070E088E458DF04
:105A9000813009F541E064E070E0CE0101967DD6E9
:105AA00089819A812B813C8139832A839B838C83D2
:105AB00042DF89819A81AB81BC81892F9A2FAB2FDC
:105AC000BB278F709927AA27BB270197A105B1058E
:105AD00019F083E0D4CF2FDF2EDF25DFC2967C01C3
