:100000007EC100000C94D82A97C100000C94B02D3A
:1000100093C1000091C100008FC100008DC100009C
:100020008BC1000089C1000087C1000085C10000AC
:1000300083C1000081C100000C94BD347DC100006B
:100040007BC1000079C1000077C100000C940A3523
:1000500073C1000071C100006FC100006DC10000DC
:100060006BC1000069C1000008000000BE92244975
:10007000123EABAAAA2ABECDCCCC4C3E00000080DA
:10008000BEABAAAAAA3E00000000BF000000803F4D
:100090000000000000084178D3BB4387D1133D190D
:1000A0000E3CC3BD4282AD2B3E68EC8276BED98F3A
:1000B000E1A93E4C80EFFFBE01C4FF7F3F0000007E
:1000C000000000E30601E40703320704E205FFDC59
:1000D00007AA000000770D01E20A02850B03580908
:1000E00004560C05620B07B30806270B0C4308FFE8
:1000F000B00EAA000001636400000000000001636C
:1001000068646972000000026D6400000000000075
:10011000026D6B6469720000000364656C0000008E
:1001200000000364656C657465000003726D6469AA
:100130007200000004726E0000000000000472658E
:100140006E616D650000046D760000000000000423
:100150006D6F766500000000056370000000000010
:100160000005636F7079000000000670776400007E
:100170000000000000000000000000004641543371
:10018000320001030507090E10121416181C1E3048
:100190002E392E332E345052205B48455854497224
:1001A000202841726475696E6F295D0001646500E5
:1001B000000000000001646576000000000002738A
:1001C000740000000000000273746F72650000008C
:1001D000000000000000000000FF072AFED127AA4F
:1001E000000000D82B01C72B043A2C03442BFF3D01
:1001F0002BAA000001630000000000000001720053
:100200000000000000000373000000000000000276
:100210006C00000000000000000000000000000072
:10022000000000000100780300D431010933038B82
:100230003104A03207E72F0FFA32FF0133AA000082
:100240000B2E747700000000000C2E6E750000006D
:1002500000000D2E636800000000000E2E65630094
:10026000000000000F2E63720000000000102E6CD2
:100270006600000000000000000000000000000117
:100280006200000000000000012E6261000000001A
:1002900000026400000000000000022E6461000003
:1002A000000000037000000000000000032E7061D9
:1002B0000000000000046300000000000000056E64
:1002C00000000000000000067300000000000000B5
:1002D0000765000000000000000872000000000038
:1002E00000000974000000000000000A6F00000018
:1002F00000000000000000000000000000001124C9
:100300001FBECFEFD8E0DEBFCDBF11E0A0E0B1E06F
:10031000E8E9F5E702C005900D92A432B107D9F7DC
:1003200027E0A4E2B1E001C01D92A036B207E1F7D8
:100330000E942B2A0C94BB3A63CE28E039E040E8B7
:10034000880F660F08F4842787FB0EF483272A950D
:10035000B9F78F770895FF920F931F93CF93DF9391
:10036000FC01DB01ED018F018191FD90811105C040
:10037000F11007C081E090E01FC08F3329F4F11025
:10038000F1CF90E080E018C08F1561F38A32C9F791
:10039000BE01C8010196DFDF009761F7FF2061F021
:1003A000BE016F5F7F4FC801D6DF31E020E0892BAF
:1003B00009F430E0832F922FCDB7DEB7E5E00C943F
:1003C0001F360F931F93CF93DF93EC01FC01019035
:1003D0000020E9F73197E81BF90B05E010E00E1B50
:1003E0001F0B1016110674F4AF014F5F5F4FBC0175
:1003F000800F911F0E94153AA80160E270E0CE01C3
:100400000E94263ACE01DF91CF911F910F9108955E
:10041000AEE0B0E0EEE0F2E00C94043669837A835B
:100420008B839C834D875E8729813A814B815C81D8
:10043000211531054105510529F1CA01B9010E9473
:100440003A376D837E838F8398876D817E818F811C
:1004500098850E94C8376D837E838F8398876D81CE
:100460007E818F8198850E940E376D837E838F8376
:100470009887DC01CB010196A11DB11D0697A1054E
:10048000B10590F42AE04D855E8569817A818B8182
:100490009C810E94483A8D859E8593DF8D859E853F
:1004A0002E96E4E00C94203689819A81AB81BC8140
:1004B0002AE0B695A795979587952A95D1F79C013F
:1004C000092E000C440B550B29873A874B875C8714
:1004D000892B31F1CA01B9010E943A376D837E83BD
:1004E0008F8398876D817E818F8198850E94C83720
:1004F0006D837E838F8398876D817E818F819885C0
:100500000E940E376D837E838F839887DC01CB0139
:100510000396A11DB11D0697A105B10508F04CC0B9
:100520002AE04D855E8569857A858B859C850E944C
:10053000483AED85FE8501900020E9F731978EE27B
:1005400080838F010F5F1F4F89819A81AB81BC81AE
:100550009370AA27BB2789839A83AB83BC83BC0192
:10056000CD010E943A372DEC3CEC4CEC52E469830F
:100570007A838B839C8369817A818B819C810E94A1
:10058000A13669837A838B839C8369817A818B818D
:100590009C810E94093769837A838B839C8329819C
:1005A0003A81032E000C440B550B29833A834B836D
:1005B0005C832AE0A80169CF45E050E06FE370E07A
:1005C0008D859E850E94263AAD85BE8515961C9226
:1005D00065CF0F931F93CF93DF9321E2289FE00114
:1005E000299FD00D112424960DE011E0F80180819F
:1005F0000E949626F80181810E9496268C2F0E94E7
:1006000096268D2F0E949626DF91CF911F910F91F4
:100610000895CF93DF93C6E0D1E089910E9496269A
:1006200081E0CD30D807C9F7DF91CF910895A6E0DA
:10063000B0E0EDE1F3E00C94FE356C01CB01BA01C2
:10064000F22E132FAE014F5F5F4FE2DE5C01C60159
:100650000E94CA268FE10E94962680EA0E94962672
:100660008AEC0E9496268AE10E949626650185E022
:10067000A80EB11CF60181916F010E949626CA1442
:10068000DB04C1F780E20E94962682E20E94962651
:10069000CF2CD12E10E0011741F0F60181916F01AE
:1006A0000E9496261F5F1031B1F782E20E949626C3
:1006B00080E20E9496261F5F1131D1F78E2D0E9495
:1006C000962680E00E9496262696EAE00C941A363A
:1006D000A6E0B0E0EEE6F3E00C94FC355C01CB0163
:1006E000BA01922EF32EAE014F5F5F4F91DE6C0187
:1006F000FC0101900020E9F73197E81BF90B10E0AD
:10070000C80105968E0F9F1F0E94CA2682E20E9492
:100710009626812C882D90E0F60101900020E9F7C3
:100720003197EC19FD098E179F07E8F082E20E94CD
:1007300096268CE20E949626C92CDF2C0C0D1D1DDE
:10074000C016D106C1F48CE20E9496268E2D0E941E
:100750009626F50180819181019791838083269669
:10076000ECE00C9418368C0D9D1DFC0180810E94DC
:1007700096268394CFCFF60181916F010E94962631
:10078000DFCF0F931F93CF93DF93D82FC92F8B0108
:1007900061E171E00E942D3A892BA9F060E171E0DE
:1007A0008D2F9C2F0E942D3A892B69F00115110580
:1007B00041F06D2F7C2FC801CEDD9C0181E0232B01
:1007C00019F080E001C081E0DF91CF911F910F917E
:1007D0000895ADE3B0E0EFEEF3E00C940236F42EB2
:1007E000E52E9E01235E3F4F3C8F2B8FAB01BE0158
:1007F000625D7F4F0E94012210E000E0882329F013
:10080000C801ED96E6E00C941E36BE016F5F7F4F87
:10081000CE018E960E945A228111F2CF8E858823B6
:1008200079F38B8D9C8DFC012081211102C0CE01BA
:100830000E966F2D7E2DA5DF8111E7CF0F5F1F4F25
:10084000E4CF2F923F924F925F926F927F928F925E
:100850009F92AF92BF92CF92DF92EF920F931F932E
:10086000CF93DF93CDB7DEB7AD970FB6F894DEBF69
:100870000FBECDBF6C011E018DE1280E311C3C8ED8
:100880002B8EF60127A530A941E2429FC001439F6C
:10089000900D11240B960E94CA26F60187A590A9F7
:1008A00098DE88248394912C11E13601FEE16F0ECD
:1008B000711CF60187A590A98815990568F0F101CA
:1008C000812F11928A95E9F7BE016F5F7F4FC301B7
:1008D0000E945A228823F1F09CDE80E00E94962636
:1008E0000E946726AD960FB6F894DEBF0FBECDBF4F
:1008F000DF91CF911F910F91EF90DF90CF90BF903C
:10090000AF909F908F907F906F905F904F903F90AF
:100910002F9008958E858823F9F2AB8CBC8CF5015D
:100920008081811103C0CE010E965C01898504E4AB
:1009300084FD03C006E483FD06E5F60161A972A902
:10094000C5011FDF8111B5CFF50101900020E9F746
:100950003197EA19FB0924018FEF481A580A498197
:100960005A816B817C81E02E0E2F9501C4015FDEE0
:1009700042019FCFADE2B0E0E0ECF4E00C94F6353C
:100980005C014E018DE1880E911C9C8E8B8E31E1B5
:10099000F32E35019EE1690E711CF4018F2D119229
:1009A0008A95E9F7BE016F5F7F4FC3010E945A220B
:1009B00081113BC0CB8CDC8CF6018081811103C09E
:1009C000CE010E966C01F60101900020E9F78F012F
:1009D000015011090C19898594E4E92E84FD06C0A3
:1009E00026E4E22E83FF02C086E5E82E29803A80C5
:1009F0004B805C80F60180818823C9F0F50161A9F4
:100A000072A9C601BEDE182F8111C7CF9601B201AF
:100A1000A101C5018F965CDE812F0E9496260E945F
:100A20006726AD96E2E10C941236823031F490E004
:100A300080E00E94CA2617E0EFCF90E080E00E949D
:100A4000CA2616E0E9CF8F929F92BF92CF92DF9293
:100A5000EF92FF920F931F93CF93DF9300D00F92EB
:100A6000CDB7DEB78C01B62EF90146FF74C00097F2
:100A700009F4A4C0DC019E968C919E9780619E969D
:100A80008C93D9011196BA83A9838181811103C006
:100A90008AE281831282FD0101900020E9F73197FB
:100AA000EA1BFB0BEB83BE016D5F7F4FCE0101960E
:100AB0000E940828C980DA806FE270E0C6010E94B7
:100AC0003D3A4C01FC0101900020E9F73197E81B09
:100AD000F90B329708F443C001960E94E7397C0174
:100AE000F4011182F60101900020E9F73197EC1929
:100AF000FD09E230F10538F03197EC0DFD1D8081E4
:100B00008F3209F41082A701B60184E494E061DE1B
:100B10009C01F80190AB87A7E114F10411F0F2AA4F
:100B2000E1AA8EE1E82EF12CB11009C081E2829F8A
:100B30007001839FF00C1124FBE0EF0EF11CB80153
:100B4000625E7F4FA60184E494E00E940122882324
:100B500091F08F30A9F584E10E94EC2620C0F12CA1
:100B6000E12C892B09F0BECFC6010E94E7397C0138
:100B7000D6011C92B7CF0E945226811110C084E08A
:100B800090E00E94CA26C7010E94CA2690E080E039
:100B90000E94CA2680E00E9496260E9467260F9037
:100BA0000F900F90DF91CF911F910F91FF90EF90D9
:100BB000DF90CF90BF909F908F90089581E2CCCF2F
:100BC00083E0CACFA2E2B0E0E8EEF5E00C9405368F
:100BD000FC011C8E1D8E1E8E1F8E188E198E1A8E75
:100BE0001B8E1C8A1D8A1E8A1F8A188A198A1A8AD5
:100BF0001B8A1C861D861E861F86188619861A86E5
:100C00001B86678170856AA392819F3F49F46DE1DD
:100C100076E0CF010E94B029A296E3E00C94213641
:100C20002FE236E039A328A39091240197FFBFC09B
:100C30006F3F31F48AA160E190E00E94AB27ECCFD6
:100C400077278FE296E00E949027182F8111B6C077
:100C50009E01245E3F4F44E0BE016E5D7F4FCE019A
:100C600080960E9403278111ACC08C8D9D8DAE8D26
:100C7000BF8D84569109A109B1098C369740A10511
:100C8000B10508F49EC09E01285E3F4F42E0BE01C0
:100C90006E5D7F4FCE0180960E940327811191C027
:100CA000888D998DAA8DBB8D0197A109B1090C97EB
:100CB000A105B10508F085C09E012C5E3F4F42E0C2
:100CC000BE016E5D7F4FCE0180960E940327811189
:100CD00078C08C899D89AE89BF890197A109B10926
:100CE0004F97A105B10508F06CC09E01205F3F4FF2
:100CF00042E0BE016E5D7F4FCE0180960E940327C9
:100D000081115FC088899989AA89BB894897A10503
:100D1000B10508F056C09E01245F3F4F42E0BE017E
:100D20006E5D7F4FCE0180960E940327811149C0DE
:100D30008C859D85AE85BF85CC97A105B10508F052
:100D400040C09E01285F3F4F42E0BE016E5D7F4F75
:100D5000CE0180960E940327182F811132C048854A
:100D600059856A857B854C3351056105710548F5C8
:100D70008C8D9D8DAE8DBF8D84369105A105B105FD
:100D8000A0F48C598E83888D81508D838C898C83BF
:100D900088898B838C858A834983CE0101960E9442
:100DA0001E0F812F0E94EC2637CF8C56EBCF8091FF
:100DB000240114E08823A9F314E1F3CF803189F7EB
:100DC00039CF12E2EECFA6E0B0E0E9EEF6E00C9407
:100DD00004368C019E012A5F3F4FAE014D5F5F4F8D
:100DE00068E00E94D627811120C0F80182818F3FE0
:100DF00001F5878183508D8382E396E09A8389830E
:100E0000BE016B5F7F4FCE0101960E9408286D8165
:100E1000662339F04DE156E089819A810E94782954
:100E2000682F8FEF90E00E94FC282696E4E00C9457
:100E3000203660912401611111C02E81822F807CA7
:100E400079F08B819C81009711F48FEF90E09C8367
:100E50008B83209324018B819C81E5CF65E0FBCFC0
:100E600062E0F9CFEF92FF921F93CF93DF9300D010
:100E700000D000D00F92CDB7DEB77C01FC0182819B
:100E80008F3F71F40E94D62927960FB6F894DEBFE3
:100E90000FBECDBFDF91CF911F91FF90EF900895CE
:100EA0008091240186FF78C0CE01019679D782E334
:100EB00080932F0680E3809330068E8164E60E9443
:100EC0009D35892F2AE0622F0E949D35805D809399
:100ED0003106905D909332063CE2309333068D816B
:100EE0008F5F0E949D35805D80933406905D909366
:100EF0003506309336068C810E949D35805D809347
:100F00003706905D90933806309339068B810E94A6
:100F10009D35805D80933A06905D90933B063093BB
:100F20003C068A810E949D35805D80933D06905DE0
:100F300090933E0630933F0689810E949D35805DE7
:100F400080934006905D90934106109242060E9465
:100F50005226182F811198CFF701E580F680F4E131
:100F6000EF16F10418F083E1E82EF12CC7010E947E
:100F7000CA26812F90E01E151F0430F080E00E94E9
:100F800096260E94672680CF815D994FFC01808163
:100F90000E9496261F5FEDCF80912401811104C02D
:100FA00084E00E94EC2670CF82E0FBCF8091240188
:100FB0008111109224010895F9DF0E9467260E9492
:100FC00052268823E1F30895FC0182818F3F19F4B2
:100FD0000C94D329089580912401882329F0E6DF19
:100FE00080E00C94EC26089584E0FBCF80911706F6
:100FF000882331F060911D068AE1860F8A3008F05F
:1010000066EE22EC30E04FEE86EE0C94AD2C0895A7
:10101000A7E0B0E0EEE0F8E00C9406366AD7E6DF31
:101020000E94382D813079F48CE78E8385E08D83A2
:101030008AE08C8386E18B838CE08A838BE18983D1
:10104000CE010196FBD62796E2E00C942236EFE61D
:10105000F4E030E020E09081992361F091819813D1
:1010600009C045E3429FC001439F900D11248F5852
:101070009B4F08952F5F3F4FF5962830310559F764
:1010800090E080E00895A2E0B0E0E9E4F8E00C949C
:10109000FF357C01FC018281DADF6C01F701E7801A
:1010A000F084892B09F456C0C701B0E0A0E0F60136
:1010B00040855185628573851CE084179507A607D6
:1010C000B70709F410E0E114F10409F448C0112352
:1010D00069F080912501811101C016E0612FC701DF
:1010E0000E94AB272296E9E00C941B36BE2C0F2DF4
:1010F000F0E8EF16F10418F08FE7B82E00E06B2D42
:10110000702F8FE296E00E949027182F81111DC04A
:101110009E012F5F3F4F4B2D502F6EEA76E0C601A8
:101120000E94D21D16E0803128F4E82FF0E0ED5E39
:10113000FE4F108149815A816FE276E08EEA96E097
:101140000E94FF39892B09F018E189819A81E81AF8
:10115000F90AB9CF10E0E114F10409F0BACF812FF8
:101160000E94EC26BFCF0F931F93CF938C01FC01FD
:10117000828181111EC0C0912601C111C0E1C360EE
:10118000F80185819681892B89F10E94522681116F
:101190000CC081E090E00E94CA268C2F0E94962607
:1011A00080E00E9496260E946726CF911F910F91A2
:1011B00008954DDFFC01C7E4892B11F386A584FD5A
:1011C0000FC0448155816681778180859185A28594
:1011D000B385481759076A077B0731F4C3EDD0CFB1
:1011E00087A590A9892BD1F3C3E5CACF8CE00E94D3
:1011F000EC26DBCFA3E0B0E0E0E0F9E00C94FC35B6
:101200007C01FC0184809580A680B78086A59E0124
:101210002F5F3F4F41E050E0BE016D5F7F4F83FF86
:1012200036C0C7010E94D21D10E000E0D12CCC24B2
:10123000C394811109C089819A81019729F48B8116
:101240008A3081F4D11012C0B501A401C7010E94F7
:101250006D20882311F010E000E0C8012396ECE037
:101260000C9418368D3011F4DD2029F00F5F1F4FDC
:10127000823209F4DC249E012F5F3F4F41E050E0B1
:10128000BE016D5F7F4FC7010E94D21DD2CFC70143
:101290000E94D21D182FB501A401C7010E946D2024
:1012A0008B8190E001961123C9F290E080E0D6CFC7
:1012B0004F925F926F927F929F92AF92BF92CF9226
:1012C000DF92EF92FF920F931F93CF93DF9300D0A3
:1012D0000F92CDB7DEB75C01FC01F280FFEFFF1685
:1012E00021F080910F01F81215C00E94D6290F90AD
:1012F0000F900F90DF91CF911F910F91FF90EF9082
:10130000DF90CF90BF90AF909F907F906F905F9055
:101310004F9008958F2D9BDE8C01009709F4F4C047
:10132000FC0186A5F82FF071DF2E84FF07C0C801ED
:10133000F11002C086DADBCF1DDBD9CF85FF11C0EB
:10134000F5012581368183819481289FA001299F01
:10135000500D389F500D112470E060E0C8010E94CC
:101360006D20F80144815581668177818085918562
:10137000A285B3852A013B016624772448165906C5
:101380006A067B0638F090E080E00E94CA2697E06B
:10139000C92E79C07C01E41AF50AF501228184176F
:1013A000950771F0222371F02E3F91F0F80186A588
:1013B00085FF02C083FF06C0C8011CDF7C0105C099
:1013C00021110DC0F501E580F680E114F10439F03A
:1013D000F501858196818E159F0508F47C01F80141
:1013E000248135814085518562857385C9018E0DC3
:1013F0009F1DB0E0A0E084179507A607B70718F077
:101400007A01E21AF30AC7010E94CA2640E1C42EFB
:10141000811101C0C12CE114F10499F1C11033C054
:10142000DD2031F0FFE0FD15A0F526E0C22E2BC037
:101430009E012F5F3F4F41E050E06FE276E0C80130
:101440000E94D21D982E811115C0C12C0CC0815D47
:10145000994FFC0180810E94962630E1D32E8111A4
:1014600001C0D12CC3948C2D90E029813A81821740
:10147000930768F389819A81E81AF90ACD2CD92C4F
:10148000CACFCC2079F28C2D0E9496260E94672626
:101490002ECFED2DF0E0ED5EFE4FC080C110F3CFFA
:1014A000F80186A583FFEFCF9E012F5F3F4F41E0FC
:1014B00050E0BE016D5F7F4FC8010E94D21D8B813D
:1014C0008D3059F49E012F5F3F4F41E050E0BE0147
:1014D0006D5F7F4FC8010E94D21DF80186A585FF70
:1014E000D2CFF50183819481019625813681829F37
:1014F000A001839F500D929F500D112470E060E079
:10150000C8010E946D20BFCF90E080E00E94CA26F3
:1015100080912501882309F488CF83E0C82EB3CFBA
:101520001F93CF93DF93182FCFE6D4E088818823D1
:1015300089F0898181130EC018828BA99CA900971C
:1015400011F00E943F39809126018150809326013D
:101550000E94F829E59686E0C731D80739F7DF9170
:10156000CF911F910895CF93DF93EFE6F4E030E041
:1015700020E0908191111DC095E3929FE001939F1F
:10158000D00D1124FE01E159FB4F91E0908381833E
:1015900014AA13AA10AA809126018F5F80932601B6
:1015A00081E00E94F829CE018F589B4FDF91CF91A7
:1015B00008952F5F3F4FF59628303105D1F690E022
:1015C00080E0F4CF0F931F93CF938C01FC018281B5
:1015D00090910F01891711F08F3F49F40E94D32990
:1015E0008FEF80930F01CF911F910F9108952FDD01
:1015F000FC01892BA9F086A5C0E084FD04C0CF01C1
:101600000E946220C82FF80182818ADFC03160F415
:10161000EC2FF0E0ED5EFE4F80810E94EC26E3CFE0
:1016200080912501811102C086E0F7CF84E0F5CFDB
:101630008091250181110AC064E474E081E00E9478
:101640009A1C811103C081E0809325010895A3E0D5
:10165000B0E0EDE2FBE00C9404368C01E9DFF80128
:10166000878190858F3F910541F038F06FE10E94AE
:10167000AB272396E4E00C9420368B83BC018FE2E9
:1016800096E00E949027811118C08FE296E09A831D
:101690008983BE016D5F7F4FCE0101960E940828AD
:1016A00069817A8184E494E00E940123803140F4CE
:1016B000E82FF0E0ED5EFE4F80810E94EC26D9CF4E
:1016C00086E0FBCFCF93DF93EC01B2DF8091260160
:1016D0008823B9F08A81BBDCFC01C6E0892B59F074
:1016E00086A5C82FC07184FD0EC040E050E0BA014D
:1016F000CF010E946D208C2F0E94EC26DF91CF91AC
:101700000895C4E0F8CFCDE0F6CFEF92FF921F939B
:10171000CF93DF93EC018CDF8A8199DC7C0114E0AC
:10172000009739F00E946220803160F016E08A81D3
:10173000F7DE812F0E94EC26DF91CF911F91FF9061
:10174000EF900895E82FF0E0ED5EFE4F108111114B
:10175000EECFF70161A972A984E494E00E9401230D
:10176000803120F7E82FF0E0ED5EFE4F1081DFCFF3
:10177000ADE0B0E0EEEBFBE00C9405369E838D838C
:101780006A878D819E819C878B878A858D879E0144
:10179000265F3F4FAE014B5F5F4FBE01635F7F4FE0
:1017A000CE010B960E94CC288D852B853C853C83F1
:1017B0002B838987BE01675F7F4FCE0103960E940E
:1017C0000828AE01475F5F4FBE016D5F7F4F85EF19
:1017D00090E00E943828182F882371F0BE01675FBF
:1017E0007F4FCE0103960E9408286B817C811230C6
:1017F00021F180F41130C9F04CE156E069858B810C
:101800009C810E940529882309F44CC02D96E3E0B1
:101810000C9421361330B1F0143071F71886998585
:1018200088858917A0F081E0F1CF84E494E00E94DC
:10183000FD248823B9F186E0E9CF84E494E00E9496
:10184000D623F7CF84E494E00E940123F2CF282F1F
:1018500030E0FB01E20FF31F40814D3301F52F5FB4
:101860003F4F620F731F7A8369839150981B9F8348
:10187000BE01685F7F4FCE0103960E940828BE011B
:10188000695F7F4FCE0101960E94082849815A81E5
:101890006B817C8184E494E00E944825CACF8F5FED
:1018A0008887BECF8A8581116CCFB0CFA2E0B0E02F
:1018B000ECE5FCE00C94F9356C01FC01A780B084E8
:1018C000828190910F01891711F08F3F69F4C50152
:1018D0000E94A4298111AFC0F60167818FE296E0D2
:1018E00047DF0E94EC26A7C0B2DB7C0112E0009724
:1018F000C1F1FC0186A5182F107285FF32C000854A
:10190000118522853385F601658176814381548175
:10191000649FC001659F900D749F900D1124AC01D0
:1019200070E060E0041715072607370778F5B9015E
:10193000A801C7010E946D20182F10922F06F701F1
:1019400080849184F6014581568123813481429FB0
:10195000C001439F900D529F900D11248816990647
:1019600030F055245394912C812C00E053C09E01FB
:101970002F5F3F4F41E050E06FE276E0C7010E94E9
:10198000D91E182FFFEF8F1A9F0ADCCFC7010E94C4
:101990006D20182FE6CF3501FFEFAF16B10421F00F
:1019A00018F066246A94712CB3018FE296E00E94CD
:1019B0009027082FF6018281811115C0F1E05F1296
:1019C00012C080912F06909130068F7D803823E0E1
:1019D0009207A9F131E020E08F30914009F030E02A
:1019E000832E922E512CE114F10491F0011110C0BC
:1019F0009E012F5F3F4FA3016FE276E0C7010E9477
:101A0000D91E182F89819A818615970509F016E04D
:101A1000A618B708A114B10431F1011103C01123B4
:101A200009F4B9CF80912501811101C006E0602F32
:101A3000C5010E94AB272296EFE00C941536512C7D
:101A400088248394912CCFCF9E012F5F3F4F41E09C
:101A500050E06FE276E0C7010E94D91E182FFFEF19
:101A6000AF1ABF0A31C0E114F104A9F1F70186A54C
:101A700083FF1EC081149104D9F48DE080932F065A
:101A80008AE0809330069E012F5F3F4F42E050E096
:101A90006FE276E0C7010E94D91E182FA980BA8094
:101AA000F2E0AF16B10421F082E0A82EB12C0CE0D8
:101AB000F70186A585FF0FC010922F06F6018781DA
:101AC00090850196A80EB91EF601858196818A152A
:101AD0009B0508F0B9CF011108C006E0103128F4C9
:101AE000E12FF0E0ED5EFE4F0081802FFACEAF9245
:101AF000BF92DF92EF92FF920F931F93CF93DF93EA
:101B000000D000D000D0CDB7DEB77C011C821B8294
:101B10001E828EDDD70112968C916FE18F3F09F402
:101B200068E09E012A5F3F4FAE014D5F5F4FC701E6
:101B30000E94D627811131C0F701878183508D83A0
:101B400082E396E09A838983BE016B5F7F4FCE016B
:101B500001960E940828E981FA819081D7011296A6
:101B60008C91992311F08F3F71F480930F01608164
:101B7000662321F06D81CF01FBDD682F8FEF90E0B0
:101B80000E94FC280AC09432C1F4EDDC29813A811C
:101B90004E81F70162810E94230526960FB6F894C4
:101BA000DEBF0FBECDBFDF91CF911F910F91FF9090
:101BB000EF90DF90BF90AF9008959E81907C6AE097
:101BC000D62E903851F053E1D52E903C31F072E191
:101BD000D72E992311F0DD24D394909125019111F2
:101BE00027C010E000E090E080E046E0D42E4E8177
:101BF00045FF07C0D8019E963C919E9730629E9605
:101C00003C93D11013C0542F5870407C2B813C81E1
:101C1000403409F450C0511104C0F80186A5886011
:101C200086A7C901009711F48FEF90E06D2DA8CF22
:101C30009ADC8C01A980BA80C5010E94E739D801DD
:101C4000D2969C938E93D1970115110551F12D2DAC
:101C5000A501B80184E494E00E94A21C81110BC08C
:101C60009E81907C61F4F801408551856285738581
:101C7000C8010E946D2036E0D32E803160F4E82F39
:101C8000F0E0ED5EFE4FD080D11005C0D80118966F
:101C90008D919C91ACCFF701828142DC90E080E095
:101CA000A6CF80912501882309F49BCF90E080E0A6
:101CB00021E2D22E9CCF511107C0D8019E964C91A3
:101CC0009E9748609E964C93F7014281442331F0E1
:101CD0002115310509F4A8CFC901A8CF2115310577
:101CE00009F4A4CFF9CF8091170660911C068111E9
:101CF00001C064E624ED30E045E784E60E94AD2CA7
:101D00000C94BA2D0895CF93DF9392DC8091260135
:101D1000C5E3811109C0DF91CF9108958F589B4F82
:101D20000E9462208D2FFCDBEFE6F4E030E020E043
:101D30008081882371F0C29FC001C39F900D112440
:101D4000FC01E159FB4FD18120912501222351F360
:101D5000E5CF2F5F3F4FF5962830310549F7DBCFB0
:101D6000D2DF0E9467260E9452268823E1F308955D
:101D7000EFE6F4E0108215AA1092D90410920E0535
:101D800010924305109278051092AD051092E2056D
:101D90001092260110922501A6DF0C94BA2D089509
:101DA000A7E0B0E0E6EDFEE00C9403368C0147E0DE
:101DB00050E061E272E00E94DE3980915907823082
:101DC000C9F59E012F5F3F4F47E060E080ED0E9424
:101DD0003E34F82E81112EC089818F770E94282DE4
:101DE000F80180838A810E94282DF80181838B81EC
:101DF0000E94282DF80182838D810E94282DF801F0
:101E000083838E818F770E94282D8150F8018483EF
:101E10008C810E94282D8150F80186838F810E9439
:101E2000282D9E8197FF02C094E6F92E8C598F0DC4
:101E3000F80185832796E5E00C941F36A7E0B0E013
:101E4000E4E2FFE00C9404368C018091590788236A
:101E500009F449C0F80180810E94312D8983F8017D
:101E600081810E94312D8A83F80182810E94312D67
:101E70008B83F80186818F5F0E94312D8C83F8015E
:101E800083810E94312D8D83F80184818F5F0E94B0
:101E9000312D982FF801858120E0883C08F020E85A
:101EA000922B9E8364E60E949D35892F0E94312DDE
:101EB0008F839E012F5F3F4F47E060E080ED0E94DF
:101EC000FA338091270140E067E0882331F06EE02B
:101ED00080ED0E94E13340E06FE080ED0E94E1334D
:101EE00082E0809359072796E4E00C94203682E044
:101EF00008950E9473341092590760E080ED0E94AB
:101F0000213497FD17C045E562E180ED0E94E13381
:101F100062E180ED0E9421348535910561F41092D3
:101F2000270160E080ED0E94213487FF09C081E035
:101F300080935907089581E0809327016FE0F2CFE5
:101F400082E0F6CFFF920F931F93CF93DF9382E04F
:101F500090E00E949F3AEC01F12C02E010E00C1797
:101F60001D0788F081E090E00E94973A8F15A1F05C
:101F700012BC11BC1092170612BC11BCCDB7DEB753
:101F8000E5E00C941F36C801805090400E94973ABB
:101F9000F80E0F5F1F4FE3CFAE0160E070E087E106
:101FA00096E00E94873A81E080931706E5CFE9E149
:101FB000F6E080E09191890F96E0EF32F907D1F7D2
:101FC00028E130E030931A06209319068093180612
:101FD00048E150E060E070E087E196E00E94A43ABA
:101FE00012BC11BC0895A4E0B0E0E9EFFFE00C944E
:101FF0000636FC019A01AB01225031094109510911
:1020000086819781A085B1850297A109B10928171A
:1020100039074A075B0700F5A0A5B0E00E94EC3540
:1020200069837A838B839C8382899389A489B58908
:1020300029813A814B815C81280F391F4A1F5B1F20
:1020400029833A834B835C8369817A818B819C816C
:102050002496E2E00C94223619821A821B821C829A
:10206000F3CF0F931F93CF93DF938C01DB01FC0120
:102070003D96CB0138E0360FEC012991CE0120329C
:1020800031F0253009F425EE21933813F5CF189659
:102090008C9118978032A1F02EE2EF012993AD01C7
:1020A000485F5F4F9F012C5F3F4FFE01EA0189911E
:1020B000AE01803229F08193E217F307B9F7F901F5
:1020C00010821B968C911B97F80180875C964D912E
:1020D0005D916D917C915F9740835183628373839F
:1020E00058968D919C9159979583848356968D919E
:1020F0009C9157979783868354964D915C91559701
:1021000070E060E0BA01552744275A968D919C9162
:10211000B0E0A0E0842B952BA62BB72B818792876C
:10212000A387B487DF91CF911F910F91089590EE0F
:10213000980F2FE9280F2A3100F19B30B0F09FEB68
:10214000980F9A3190F090ED980F9A3070F087FDCB
:102150000CC0813658F48E3540F48E3220F48C3227
:1021600020F48FE508958D33E1F708958B37E9F377
:1021700093E8980F9230A8F7F8CF892FF6CFCF9336
:10218000FC01C62F892BA1F087A1811104C0C1E0F9
:102190008C2FCF91089582A50E94C92D80FDF7CF85
:1021A000CC23B1F3C82FC47082FFF2CFC9E0F0CFC7
:1021B000CAE0EECFFC01892B41F087A1882329F0EA
:1021C00082A50E94C92D817008958CE008954F92D8
:1021D0005F926F927F92AF92BF92CF92DF92EF9217
:1021E000FF920F931F93CF93DF935C016A017B01F2
:1021F000C0912D01D0912E014090280150902901CD
:1022000060902A0170902B014C145D046E047F04D1
:1022100029F4C817D90711F481E02CC080912C0152
:1022200081111DC0C114D104E104F104A9F301E03E
:10223000A70196016FE271E0F50182A50E94A52E2B
:10224000811117C0C0922801D0922901E0922A0181
:10225000F0922B01B0922E01A0922D01DDCF01E072
:10226000A30192016FE271E08AA50E944F2F88239B
:1022700081F080E0DF91CF911F910F91FF90EF905F
:10228000DF90CF90BF90AF907F906F905F904F9016
:10229000089510922C018A859B85AC85BD854A8165
:1022A0005B816C817D81840F951FA61FB71F481627
:1022B00059066A067B0608F0B5CF19A5123008F456
:1022C000B1CF8A819B81AC81BD81480E591E6A1EA7
:1022D0007B1E01E0A30192016FE271E08AA50E94DA
:1022E0004F2F1150EBCF73CF0895CF92DF92EF9223
:1022F000FF920F93CF93DF93EC016A017B01F3DF31
:10230000811109C082E0DF91CF910F91FF90EF9092
:10231000DF90CF900895CD28CE28CF2899F401E002
:1023200020E030E0A9016FE271E08AA50E94A52EAD
:102330008111E8CF109228011092290110922A01F0
:1023400010922B0180912D0390912E0385359A4A8E
:10235000C9F643E050E06CE771E085E691E00E9449
:10236000D139892B81F045E050E06CE771E081E8DC
:1023700091E00E94D139892B41F480915701881F47
:102380008827881FC0CF80E0BECF81E0BCCF4F92AE
:102390005F926F927F92BF92CF92DF92EF92FF9205
:1023A0000F931F93CF93DF93EC016A017B0182E0CF
:1023B000C816D104E104F10428F461E070E080E083
:1023C00090E052C08E819F81A885B985C816D90634
:1023D000EA06FB0690F74A845B846C847D848FA1B7
:1023E000823009F451C0833009F465C0813029F787
:1023F0008A01000F111F040F151FC801892F99278B
:1024000086958695B301A201480F591F611D711D64
:10241000CE0169DF882389F216950795F801F170DE
:10242000E85DFE4FB7800F5F1F4FC801892F9927C6
:102430008695B301A201480F591F611D711DCE0180
:1024400052DF882309F4B9CF1170F801E85DFE4F1F
:102450008781782F6B2DC0FE15C044E07695679577
:102460004A95E1F790E080E0DF91CF911F910F91C5
:10247000FF90EF90DF90CF90BF907F906F905F9034
:102480004F9008957F70EECF77276F2D5E2D4D2DE5
:10249000440D551D661D771DCE0125DF882309F4E7
:1024A0008CCFF601EE0FFF1FEE7FF170E15DFE4F66
:1024B00060817181D7CF97E076956795579547955D
:1024C0009A95D1F7440D551D661D771DCE010BDF82
:1024D000882309F472CFF601EE0FFF1FEE0FFF1FE6
:1024E000EC7FF170E15DFE4F6081718182819381AB
:1024F0009F70BACFB0E0A0E0E0E8F2E10C940036C3
:10250000EC01088119810F5F1F4FC8018F70992757
:10251000892B09F050C08C859D85AE85BF850196BD
:10252000A11DB11D8C879D87AE87BF8748855985C2
:102530006A857B858A819B814115510561057105FD
:1025400061F4DC018D919C9108171907A0F180E0DE
:10255000CDB7DEB7E8E00C941C36FC0120A5215075
:10256000330BF801A4E0F695E795AA95E1F72E2341
:102570003F23232B01F50BDF462F572FBC014230A1
:1025800051056105710518F38A819B81DC0116965E
:10259000CD90DD90ED90FC9019974C155D056E0582
:1025A0007F05A8F6488759876A877B871CDD6C877B
:1025B0007D878E879F871983088381E0C9CFA6E036
:1025C000B0E0E5EEF2E10C94F8358D839E836A016C
:1025D0007B0148015901AD81BE811A964D905D90F5
:1025E0006D907C901D9797968C919797823009F407
:1025F0006CC0833009F481C08130A1F48A01000FDE
:10260000111F040F151FC801892F992786958695DC
:10261000B301A201480F591F611D711DCD0163DE79
:10262000811102C080E046C016950795F801F1704F
:10263000882DE85DFE4FA7019601217033274427BE
:10264000552729833A834B835C83C0FE07C087816B
:102650008F7040E1849E90011124822B87830F5F4D
:102660001F4F81E080932C01C801892F99278695FF
:10267000B301A201480F591F611D711D8D819E81FB
:1026800032DE882379F21170F801E85DFE4F89810E
:102690009A81AB81BC81892B8A2B8B2B79F044E00A
:1026A000B694A794979487944A95D1F7878281E04E
:1026B00080932C012696E0E10C9414368781807F6C
:1026C000992D9F70892E882AF1CF77276F2D5E2D47
:1026D0004D2D440D551D661D771D8D819E8103DE98
:1026E000882309F49FCFF601EE0FFF1FEE7FF170F4
:1026F000E15DFE4F11830083DACF97E07695679511
:10270000579547959A95D1F7440D551D661D771D30
:102710008D819E81E8DD882309F484CFF601EE0FD8
:10272000FF1FEE0FFF1FEC7FF170E15DFE4F808217
:102730009182A282B382BBCFA6E0B0E0E2EAF3E1ED
:102740000C94F8358D839E834A015B01AD81BE8177
:1027500016968D919D910D90BC91A02D89839A83A1
:10276000AB83BC8381149104A104B104A9F4ED816D
:10277000FE81428C538C648C758C4114510461042D
:10278000710429F0481659066A067B0628F1412C87
:10279000512C3201439420C08D819E81F8DD6B0164
:1027A0007C01F2E0CF16D104E104F10450F4C12C15
:1027B000D12C7601C394C701B6012696E0E10C94B2
:1027C000143689819A81AB81BC81C816D906EA0684
:1027D000FB0688F324013501730162019FEFC91ADA
:1027E000D90AE90AF90A89819A81AB81BC81C816A4
:1027F000D906EA06FB0678F092E049165104610416
:10280000710420F4C12CD12C7601D5CF82E0C82EE2
:10281000D12CE12CF12CB701A6018D819E81B7DD71
:10282000462F572FBC01411551056105710561F017
:10283000413051056105710509F4B9CFC414D504BF
:10284000E604F70459F6DECF0FEF1FEF2FEF3FE05E
:10285000B701A6018D819E81B2DE882309F4A7CF3E
:1028600081149104A104B10401F5AD81BE815A9691
:10287000CD92DD92ED92FC925D97FD01868D978D54
:10288000A0A1B1A18F3FFFEF9F07AF07BF0709F4DA
:1028900092CF0197A109B109ED81FE81868F978FB3
:1028A000A0A3B1A381E086A386CF97018601B501DD
:1028B000A4018D819E8183DE8111D7CF78CFB0E0D6
:1028C000A0E0E5E6F4E10C94FB35EC016A017B0144
:1028D0007724739482E0C816D104E104F10448F02F
:1028E0008E819F81A885B985C816D906EA06FB06A0
:1028F00010F081E00DC0B701A601CE0148DD4B010B
:102900005C0121E082169104A104B10431F480E05D
:10291000CDB7DEB7EDE00C94173600E010E098017B
:10292000B701A601CE014BDE882389F38E8D9F8DE2
:10293000A8A1B9A18F3F2FEF9207A207B20741F0DC
:102940000196A11DB11D8E8F9F8FA8A3B9A37EA252
:1029500075016401BFCFA0E1B0E0E1EBF4E10C94BC
:10296000F6358B879C876D837E83AB85BC851296FD
:10297000ED90FC90CA0149966DE070E00E94A93587
:102980006B01EB85FC8584809580A680B7808114DF
:102990009104A104B10489F180869186A286B38650
:1029A000B501A401C7011FDB6D877E878F87988BD8
:1029B000EB85FC856487758786879787AB85BC85A3
:1029C0001D921C92412C512C32011F8218861986AF
:1029D0001A86312C212C10E0EB85FC854485558529
:1029E00066857785C7017FDC811113C038E0D32E5F
:1029F0008D2D6096E2E10C941236F701868597855D
:102A0000A089B189EB85FC8584879587A687B787E0
:102A1000D5CFAB85BC858D919C918F70992725E092
:102A2000880F991F2A95E1F7FC01E85DFE4F278189
:102A3000222311F0253EA1F521E0210F11111BC029
:102A4000815D9E4FED81FE8191838083AB85BC8546
:102A50002D903C9011971C964D905D906D907C90C0
:102A60001F9718968D919D910D90BC91A02D8F83ED
:102A70009887A987BA872C151D0419F5EB85FC8565
:102A80003182208244865586668677868F81988536
:102A9000A985BA8580879187A287B387D12CA8CFD3
:102AA0001C151D0409F010E08B859C8523DD811128
:102AB00093CF81149104A104B10429F486E0D82EA7
:102AC00097CF122FF1CFAB85BC8518964D915D91B4
:102AD0006D917C911B97C7012FDE69837A838B836D
:102AE0009C8389819A81AB81BC810097A105B10546
:102AF00029F30197A105B10509F478CF40E050E032
:102B0000BA01C701F0DB882309F470CF49815A81EB
:102B10006B817C81C70167DA4B015C0180922801DF
:102B200090922901A0922A01B0922B01EFE2F1E0EC
:102B300080E092E0DF019C011D9221503040E1F7DE
:102B4000D7019896DC90D1101FC081E080932C01B2
:102B5000112361F1B301A201C701C5DB882309F488
:102B600045CFAB85BC8511963C922E92FD014486E3
:102B70005586668677868F819885A985BA858087F0
:102B80009187A287B38734CF01E0A50194016FE25A
:102B900071E0F70182A50E944F2F811127CFFFEF2F
:102BA0008F1A9F0AAF0ABF0ADA94CDCFAB85BC85D6
:102BB0001D921C928091280190912901A0912A01D7
:102BC000B0912B01EB85FC8584879587A687B78715
:102BD00089819A81AB81BC8180879187A287B387E5
:102BE0008FE291E0AD81BE818D939C9301CF0F93D5
:102BF000CF93DF93EC0181E080932C0140E050E023
:102C0000BA01CE0170DB882309F45CC08FA1833048
:102C100009F056C08EA1882309F455C010922801EE
:102C20001092290110922A0110922B01EFE2F1E09B
:102C300080E092E0DF019C011D9221503040E1F7DD
:102C400085E59AEA90932E0380932D0382E592E521
:102C5000A1E6B1E480932F0190933001A09331015C
:102C6000B093320182E792E7A1E4B1E680931303C7
:102C700090931403A0931503B09316038E8D9F8D2C
:102C8000A8A1B9A18093170390931803A0931903E7
:102C9000B0931A038A8D9B8DAC8DBD8D80931B03E1
:102CA00090931C03A0931D03B0931E032AA13BA184
:102CB0004CA15DA101E0BF018AA50E944F2F1EA279
:102CC00080E001C088E0DF91CF910F910895A4E1E9
:102CD000B0E0EDE6F6E10C94F6358F8398875B0162
:102CE0004A012D833E8309831A83EB82FC8276019D
:102CF000AF81B8851296CD90DC90F6014689578950
:102D0000608D718D411551056105710529F0D40162
:102D10008C918F3209F04DC0F60146855785608948
:102D2000718987A18330E1F4AF81B88514964D9302
:102D30005D936D937C931797FD0140875187628760
:102D40007387C60150D969877A878B879C87AF8143
:102D5000B8851C966D937D938D939C931F970EC0A1
:102D6000EF81F885148215821682178210861186EB
:102D7000128613864487558766877787EF81F885A3
:102D800011821082A981BA811396DC92CE92129799
:102D9000F4018F015190BFE25B16D9F351101DC0B1
:102DA000ED81FE8111821082852D6496E2E10C9402
:102DB0001236AF81B88514964D935D936D937C93D5
:102DC0001797FD014087518762877387C6010BD92A
:102DD0006D877E878F87988BBACF992493946DE007
:102DE000262EAB81BC810D931C934BE050E060E23A
:102DF00070E0C5010E94263A98E080E0F801519009
:102E00008F01552019F0FFE25F120BC0882309F4EF
:102E100098C1D5011B961C92F70111821082412C9A
:102E20004AC0BFE1B51508F08CC1EFE75E1609F4A2
:102E300088C1F0E25F1691F02EE2521291C0882311
:102E400009F4B2C0813041F4D5015C90521609F406
:102E5000ABC09BE088E0D2CF8930D8F3ECE55E16BA
:102E600009F46FC1FAE35F1609F46BC1852D877F02
:102E7000823209F466C1852D8F7B8C3309F461C1E0
:102E800082EC850D823008F45CC1D8015D908D0123
:102E9000552019F0BFE25B12E1CFAB81BC818D916F
:102EA0009C91F801E81BF90BCF010197D7018D9395
:102EB0009C9344244394E1E05E1609F43CC1712CD8
:102EC000612C33243394AF81B8851C964D915D916C
:102ED0006D917C911F97C60106DA882309F42EC1F3
:102EE000992019F1EF81F88580859185A285B385B8
:102EF000E981FA8180879187A287B387EF81F8857E
:102F000084859585A685B785E981FA81848795872B
:102F1000A687B787AF81B8858D919C919183808377
:102F2000411003C0F70111821082AF81B8858D91E5
:102F30009C918F70992755E0880F991F5A95E1F75A
:102F4000FC01E15DFE4F4F01885D9E4FDC0117964D
:102F50006C91611132C0552069F143E0542E24CFA9
:102F6000B2E25B1609F4EDC0E9E2E515D0F4FCE24B
:102F7000F51508F073CF29E3251598F43FE33515CF
:102F800008F06CCFACE75A1609F4DBC025EA250D32
:102F9000233008F463CF2FE9250D2A3110F4B0EE69
:102FA0005B0E891708F05ACFF501E80FF11D50822A
:102FB0008F5F24CF32E0532EF7CE653E09F47CC0FC
:102FC0008385982F9F709F3009F050C0442009F4EA
:102FD00046C06F716150629D602D112482E891E0BE
:102FE00050E0462F450F31100EC0650E711C912C1C
:102FF0008F8198857FDA811166CF4110ACCFF701C0
:1030000011821082A8CFFC012491F401E20FF11D7E
:10301000208131E0350FFC017491F401E70FF11DBF
:103020007181722B11F3AB81BC81ED91FC91E40FA6
:10303000F11D40815FE9540F5A3108F440525FE9B5
:10304000520F5A3108F42052332433942413312C74
:1030500001963D3011F0532FC4CF5DE0C6CFF7018C
:10306000808191810D9691838083C1CF4420D1F0DE
:10307000332029F1D7018D919C918615970521F573
:103080008BE0D50101900D928A95E1F7F4018485DA
:10309000D5011B968C93511019C0AD81BE818D92C4
:1030A0009C9282CE83FD08C04BE050E0B501CF0179
:1030B0000E94FF39892B79F39924939499CF942C0A
:1030C000342C712C612C94CF932CFBCFF40183858D
:1030D00084FF43CF4489558970E060E0BA015527E9
:1030E0004427828D938DB0E0A0E0482B592B6A2BAA
:1030F0007B2BAF81B88514964D935D936D937C9334
:103100001797FD014087518762877387C6010E9428
:10311000F30F698B7A8B8B8B9C8BAF81B8851C9658
:103120006D937D938D939C931F97E2E0F0E0ED9378
:10313000FC93912C56CE94E0592E36CE88E0582E32
:1031400033CE5524539468CEAEE0B0E0EAEAF8E11D
:103150000C94F835082F6D877E87F42E8BE2ED8571
:10316000FE8511928A95E9F7802F82958F70ED8503
:10317000FE8582A70E94D32D182F117080FDD0C12B
:10318000FF2019F019E082FDCBC1102F1F7009F04C
:1031900029C140E050E0BA018D859E85A6D8182F40
:1031A000C12CD12C760111116AC180913A01909104
:1031B0003B018115924009F065C1809145019091D4
:1031C00046019C0150E040E0892B41F420915301DD
:1031D000309154014091550150915601ED85FE8585
:1031E0002283338344835583A0913F01A1A7B0E09C
:1031F0000E94EC3569837A838B839C8380913D01A7
:1032000090913E0146015701880E991EA11CB11CE8
:1032100082869386A486B58620913C0120A7809162
:1032200040019091410191838083409142015091EE
:1032300043012A01712C612C452B41F440904F0130
:1032400050905001609051017090520134E0969579
:1032500087953A95E1F7AC0170E060E04D835E83BD
:103260006F83788780913D0190913E01480F591FEF
:10327000611D711DDB01CA0149815A816B817C810D
:10328000840F951FA61FB71FB301A201481B590B3E
:103290006A0B7B0B49875A876B877C8730E050E04D
:1032A00040E069857A858B859C850E94BD35DA0171
:1032B000C9010296A11DB11DED85FE858683978308
:1032C000A087B187873FFFE09F07A105B10508F4FC
:1032D000DBC0873F9F4FA105B10508F4E6C083E03E
:1032E000ED85FE8587A380915B0190915C01A091A3
:1032F0005D01B0915E0186879787A08BB18B03E05B
:103300008D819E81AF81B885880D991DAA1DBB1D39
:1033100029813A814B815C81820F931FA41FB51FC5
:10332000ED85FE85828B938BA48BB58B8FEF9FEF02
:10333000DC01868F978FA0A3B1A3033009F04EC0A4
:1033400080915F0190916001B701A601480F591F5C
:10335000611D711D42A353A364A375A3CF010E94F5
:1033600073118823D9F180912D0390912E03853517
:103370009A4AA1F580912F0190913001A0913101DD
:10338000B091320182359245A146B14439F5809120
:10339000130390911403A0911503B0911603823783
:1033A0009247A144B146D1F480911B0390911C0334
:1033B000A0911D03B0911E03ED85FE85828F938F32
:1033C000A48FB58F8091170390911803A0911903D2
:1033D000B0911A03868F978FA0A3B1A3ED85FE85C8
:1033E00007A39EC001E020E030E0A9016FE271E098
:1033F000ED85FE8582A50E94A52E811143C0153062
:10340000D0F4212F2150330BF90144E0EE0FFF1FC0
:103410004A95E1F7E351FD4F8481882399F1C084F7
:10342000D184E284F384B701A6018D859E850E9434
:103430007511182FB8CE1450812C912C5401809105
:10344000F1028530E9F18F30D9F1809101038530A7
:1034500009F46BC08F3009F468C080911103853086
:1034600009F466C08F3009F463C080912103853070
:1034700019F08F3009F053C0EDE1F3E023C01F3F96
:1034800009F44DC01BE04CC001E0ED85FE8507A3AB
:1034900089819A81AB81BC81880D991DAA1DBB1DB4
:1034A00086879787A08BB18B2BCF02E0EECF40852C
:1034B000518562857385C40ED51EE61EF71EB3CFF7
:1034C000EDEEF2E0C084D184E284F384C80CD91C10
:1034D000EA1CFB1C81149104A104B10411F44601FF
:1034E000570101E0A70196016FE271E0ED85FE85CD
:1034F00082A50E94A52E8111C5CF115009F09FCF42
:10350000EDEEF2E02DE233E08481882321F0853076
:1035100011F08F3061F670962E173F07A9F71CE067
:10352000812F2E96E0E10C941436EDEFF2E0CACF35
:10353000EDE0F3E0C7CFA1E1B0E0E1EAFAE10C94FD
:10354000F6358C879D877B013A0129016801AC859E
:10355000BD8512962D903C901397F801138618960E
:103560008D919D910D90BC91A02D8A839B83AC83FE
:10357000BD83EC85FD850190F081E02DFF83EE8316
:10358000AC85BD851C968D919D910D90BC91A02D13
:1035900088879987AA87BB87922E4BE050E060E22C
:1035A00070E0C8010E94263AF30180818E3261F0FA
:1035B000EFEFE40DF0E03196E60DF71DB92C9A948B
:1035C00091102BC0F6E09F2E6982830190E0882441
:1035D0008394890E5601A90EB11C802FF9818F1B8F
:1035E0008915E0F1F601E80DF11D933008F045C0B2
:1035F00081E4D5018C9382E48083E2E0E90FEC0D55
:10360000FD2DF11D83E48083E3E0E90FEC0DFD2D3A
:10361000F11D9C5F84E4808330C082918E3271F60C
:10362000F1E008E0FB1570F68B2D90E0B414150462
:1036300058F60B3048F6860D971DDC018C918032D0
:1036400059F0AA24A394A00E0C0D1D2D111D0E944B
:103650009710F80180830A2DB394E6CFD8018D919D
:103660008D01803239F08E3229F00E949710F501D9
:103670008083982D963009F0AACFF601E90FF11D4D
:103680008EE780839F5FF601E90FF11D81E3808360
:10369000F6018081853E11F485E0808370E3B72ECA
:1036A000E1E3AE2EAC85BD8512960D911C9113976A
:1036B00014964D915D916D917C911797411551052F
:1036C0006105710509F4CFC0FD014087518762870C
:1036D0007387C8010E94F30F6E877F87888B998B51
:1036E000AC85BD851C966D937D938D939C931F97A0
:1036F000AC85BD851D921C92EC85FD854485558564
:1037000066857785C8010E947311882309F4B7C0C4
:10371000AC85BD852D913C912F70332765E0220F3C
:10372000331F6A95E1F7C901815D9E4F285D3E4FC9
:10373000F90127812223C9F0253E89F0DC011B967F
:103740002C91322F3F703F3051F023FD08C04BE0E9
:1037500050E0B6010E94FF39892B09F490C08C8596
:103760009D850E947A128111C7CFF6010191BBE0BD
:10377000CB0ED11C802F869500FD80680191080F2B
:10378000EC15FD05B9F7C2010C966DE070E00E94E2
:10379000A935C62E8A819B81AC81BD81EC85FD85D2
:1037A00080879187A287B3878E819F819183808351
:1037B00088859985AA85BB8584879587A687B787DD
:1037C000162FBB24B39430E2A32E4DE0942EDD24BB
:1037D000DA945FE0852EAC85BD851C964D915D9198
:1037E0006D917C911F97C1010E947311882309F488
:1037F0008EC0AC85BD858D919C918F70992725E0F9
:10380000880F991F2A95E1F7815D9E4FF7019183FB
:103810008083112309F447C0B0922C010190F081FC
:10382000E02DDF012A2D1D922A95E9F780E01C1179
:1038300001C080E4D701ED91FC91812B8083115070
:10384000199D502D1124E2E8F1E040E0852F840F0E
:1038500090E0D7012D913C91642F4F5F8415950521
:1038600098F1462F3EC0F80186859785A089B189D9
:10387000EC85FD8584879587A687B78739CF88E053
:103880008150F601E80FF11D90819032C9F320E0DC
:10389000F601E80FF11D9081993351F4B082815007
:1038A00021E0B1F717E0812F6196E2E10C94123626
:1038B000222339F09E3729F4A082882399F3319787
:1038C00001C09F5F9083EECE6491860D971DDC0151
:1038D0008C91260F311DD9018C9331964D3009F012
:1038E000B5CF4F5FE42FF0E0EE57FE4FD7012D919B
:1038F0003C9111974D3068F0F9018386ED91FC9170
:1039000005878C859D850E947A12811164CF18E00D
:10391000CACF8491D901A80FB11DDC924F5F2491C9
:10392000D7018D919C91DC01A20FB11D1196DC9203
:103930003196DCCFFB01309709F017A240E0BF01C0
:1039400003CC0895A6E3B0E0E8EAFCE10C94F63578
:103950004C015B01542E752E622E1AAA19AADB01A6
:1039600013961C921E921297622F6E710E94BF10C6
:103970008111B2C09C8A8B8AFE01BF966F01CE0175
:103980008D967C018E010F5F1F4F9E012F5C3F4F74
:10399000452D572DBE016F5D7F4F4C9798D999A14A
:1039A0009E3209F4F7C0962D9F71792E962D9C7149
:1039B00009F4E1C0882309F493C0823009F08CC077
:1039C0004FA558A9BE016F5C7F4FCE0141960E9462
:1039D000AB14811181C02FA538A92115310509F03B
:1039E0006CC0E9A9FAA980E2DF011D928A95E9F786
:1039F000A9A9BAA98BE0FE01B19601900D928A9512
:103A0000E1F7E9A9FAA98CA58487689473F873FE95
:103A100011C0E9A9FAA913860E94D12C6BAB7CAB2B
:103A20008DAB9EABE9A9FAA966877787808B918BCE
:103A3000689475F88091280190912901A0912A013C
:103A4000B0912B01F501808F918FA28FB38FE9A9DF
:103A5000FAA9D5015D96FC93EE935C977C928489DC
:103A60009589B0E0A0E0DC0199278827428D538D2D
:103A700070E060E0482B592B6A2B7B2BD5011C96FC
:103A80004D935D936D937C931F97848D958DA68D3B
:103A9000B78DF50180879187A287B387148215823D
:103AA0001682178281E0818393828282872D8C71B6
:103AB00099F0C4019CD880E00FC04DA55EA58E0191
:103AC0000F5D1F4FBE016F5C7F4FCE01419633DD0E
:103AD000882309F486CF88E0E696E2E10C9412365A
:103AE00087E062FCF9CFE9A9FAA9309709F450C040
:103AF000838584FD51C080FD51C063FE88CFC4889A
:103B0000D588F12CE12C7601DD24CC24828D938D97
:103B1000B0E0A0E0C82AD92AEA2AFB2A158A148A2A
:103B2000138E128E148E158E168E178E81E0809352
:103B30002C01209028013090290140902A015090BA
:103B40002B01B701A601C4010E945F14882319F25A
:103B5000B201A101C4010E947311882309F4BBCFF3
:103B6000B1E0CB1AD108E108F108F401C28ED38E7E
:103B7000E48EF58E4CCF8111AFCFE9A9FAA9309729
:103B800079F0838584FD0CC061FE54CF80FF52CF55
:103B900086E0A2CF84E0A0CF8EE09ECF8FE09CCFC6
:103BA00082E09ACFB0E0A0E0E8EDFDE10C94F635BC
:103BB000EC014B016A011901AA80BB80F901118255
:103BC0001082C5010E94DA10182F81111DC0888152
:103BD00087FDEBC080FFEBC088859985AA85BB85F2
:103BE0004C815D816E817F81841B950BA60BB70B89
:103BF000A60170E060E084179507A607B70708F4F0
:103C00006C01C114D10431F4812FCDB7DEB7E2E1EC
:103C10000C9412364C815D816E817F81DB01CA017B
:103C20009170AA27BB27892B8A2B8B2B09F094C074
:103C3000898181508983882309F45EC04C885D881E
:103C40006E887F88FFEF4F1A5F0A6F0A7F0A40E095
:103C500050E0BA018A819B810E94E710882309F411
:103C6000A1C04C8A5D8A6E8A7F8AC114F2E0DF06A9
:103C700008F472C0C601892F99278695E980F12C36
:103C80008E159F0508F47C010E2DA3019201B4014D
:103C9000F50182A50E94A52E811184C089818F5FC4
:103CA0008E1989839701215031098C899D89AE89AC
:103CB000BF89820F931FA11DB11D8C8B9D8BAE8B75
:103CC000BF8BFE2CEE24FF0C8E0C9F1C8C819D81E3
:103CD000AE81BF818E0D9F1DA11DB11D8C839D8363
:103CE000AE83BF83F101808191818E0D9F1D9183F1
:103CF0008083CE18DF0885CF452B462B472B09F54F
:103D00004C855D856E857F85423051056105710565
:103D100008F448C0F50186819781A085B1854817D0
:103D200059076A077B07F0F5488B598B6A8B7B8BA9
:103D3000C5010E94F30F2B013C01F50180A5898389
:103D400086CF488959896A897B89C5010E94C71134
:103D5000462F572FBC01D8CF8C819D81917020E0D8
:103D600032E0281B390B76012C153D0508F479014A
:103D70004C895D896E897F898A819B810E94E710C9
:103D8000882381F08C819D81AE81BF819170AA27AB
:103D9000BB270796BC01685D7E4FA701C4010E9446
:103DA0000C3A92CF88818068888318E02DCF16E086
:103DB0002BCFB0E0A0E0EFEDFEE10C94F635EC0186
:103DC0004B016A011901AA80BB80F901118210829E
:103DD000C5010E94DA10182F8111BBC0888187FDB0
:103DE00016C181FF16C188859985AA85BB85AC015E
:103DF000BD014C0D5D1D611D711D481759076A07F6
:103E00007B0708F4A6C04C815D816E817F81C1145F
:103E1000D10409F48DC0DB01CA019170AA27BB2728
:103E2000892B8A2B8B2B09F0C2C089818150898311
:103E3000882309F45EC04C885D886E887F88FFEF18
:103E40004F1A5F0A6F0A7F0A40E050E0BA018A8188
:103E50009B810E94E710882309F4D6C04C8A5D8AB2
:103E60006E8A7F8AC114F2E0DF0608F4A0C0C601A2
:103E7000892F99278695E980F12C8E159F0508F4E6
:103E80007C010E2DA3019201B401F50182A50E94CF
:103E90004F2F8111B9C089818F5F8E198983970156
:103EA000215031098C899D89AE89BF89820F931F6A
:103EB000A11DB11D8C8B9D8BAE8BBF8BFE2CEE2478
:103EC000FF0C8E0C9F1C8C819D81AE81BF818E0D5D
:103ED0009F1DA11DB11D8C839D83AE83BF83F10106
:103EE000808191818E0D9F1D91838083CE18DF0884
:103EF0008ACF452B462B472B91F54C855D856E85EA
:103F00007F854115510561057105A1F540E050E03F
:103F1000BA01C5010E949C13462F572FBC014C8744
:103F20005D876E877F87411551056105710511F524
:103F30008C819D81AE81BF81488559856A857B854D
:103F4000481759076A077B0708F459C088818062BF
:103F50008883812FCDB7DEB7E2E10C941236488911
:103F600059896A897B89C5010E949C13462F572F66
:103F7000BC01D9CF413051056105710509F444C038
:103F8000F50186819781A085B185481759076A0791
:103F90007B07D0F5488B598B6A8B7B8BC5010E94C0
:103FA000F30F2B013C01F50180A589834DCF8C8156
:103FB0009D81917020E032E0281B390B76012C1591
:103FC0003D0508F479014C895D896E897F898A8174
:103FD0009B810E94E7108823B9F08C819D81AE817E
:103FE000BF819170AA27BB270796A701B401885DFE
:103FF0009E4F0E940C3A31E030932C0162CF8887AB
:104000009987AA87BB87A2CF88818068888318E0B8
:10401000A0CF16E09ECFEF92FF920F931F93CF9306
:10402000DF93EC01EA80FB80C7010E94DA10811166
:104030000FC09881892F807295FF0AC040E050E040
:10404000BA018A819B810E94E710811106C088E035
:10405000CDB7DEB7E6E00C941E36488D598D6A8DDB
:104060007B8DC7010E947311882389F30C8D1D8DF0
:10407000D8011B968C911B9780621B968C93888528
:104080009985AA85BB85F801848F958FA68FB78FF8
:104090008C859D85938F828F8C859D85AE85BF8510
:1040A000B58BA48B0E94D12CD80156966D937D932D
:1040B0008D939C93599788818F7D8883C7010E9437
:1040C000F715C6CFCF93DF93EC01A5DF811102C0B6
:1040D0001B821A82DF91CF910895ADE0B0E0E3E753
:1040E000F0E20C94F6358C879D876A017B01AC85E4
:1040F000BD8512960D911C91C8010E94DA10382ED0
:104100008111C0C0EC85FD85808187FD77C18481E8
:104110009581A681B7818C159D05AE05BF0509F473
:10412000B1C040E050E0BA01828193810E94E71063
:10413000882309F45EC1EC85FD8580859185A28583
:10414000B3858C159D05AE05BF0528F4208121FDA2
:1041500002C06C017D01C114D104E104F10409F431
:1041600040C1D80198968C90912CB12CA12C29E0BB
:10417000880C991CAA1CBB1C2A95D1F7C701B60153
:10418000A50194010E94BD3529833A834B835C834A
:10419000262E79878A879B87EC85FD85448055800C
:1041A00066807780A30192012150310941095109AC
:1041B0002D833E834F835887CA01B901A50194011D
:1041C0000E94BD3589819A81AB81BC81821793079A
:1041D000A407B50709F05BC0AC85BD851496CD92E8
:1041E000DD92ED92FC921797C22CD984EA84FB846D
:1041F000F1E0CF1AD108E108F10899E0F694E794CC
:10420000D794C7949A95D1F7AC85BD8550964D91BA
:104210005D916D917C915397C8010E94F30F698362
:104220007A838B839C838C2D0C2C000C990BAA0B0E
:10423000BB0B29813A814B815C81820F931FA41FA4
:10424000B51FEC85FD85848B958BA68BB78BD8012C
:1042500098968C918C198183EC85FD85848195815C
:10426000A681B781408551856285738548175907B6
:104270006A077B0738F480879187A287B38780819C
:1042800080628083832D2D96E2E10C94123681E0CA
:10429000EC85FD858183411451046104710409F4A6
:1042A0007CC04C145D046E047F0408F076C0C50128
:1042B000B4010E948E3569837A838B839C836483E7
:1042C0007583868397839B01AC01C21AD30AE40AE3
:1042D000F50A408951896289738941155105610543
:1042E0007105D9F440E050E0BA01C8010E949C1366
:1042F000462F572FBC01413051056105710509F466
:1043000078C0EC85FD85448755876687778741159A
:1043100051056105710509F46BCFAC85BD855096DB
:104320004D935D936D937C9353978C149D04AE04D1
:10433000BF0408F047C08C9181FF3EC0C8010E94B5
:104340009C13462F572FBC0141155105610571057E
:10435000B9F1423051056105710508F44AC0F80110
:1043600086819781A085B185481759076A077B0721
:1043700008F03FC0EC85FD8584819581A681B781D9
:10438000880D991DAA1DBB1D84839583A683B783C1
:10439000C818D908EA08FB08C0CFAC85BD851496BB
:1043A0001D921D921D921C9217971C964D915D9126
:1043B0006D917C911F9791CFC8010E94C711C1CF09
:1043C00075016401EC85FD8584819581A681B781A5
:1043D0008C0D9D1DAE1DBF1D84839583A683B78361
:1043E00007CFEC85FD85148215821682178281E045
:1043F00032CFAC85BD858C9180688C9388E0382E57
:1044000041CFA2E2B0E0E7E0F2E20C94FA354C01D1
:104410005B013A0160E00E94BF10182F811143C078
:10442000D50112968C92129713969C92FE017D965E
:104430006F01CE014F967C018E010F5F1F4F9E01D1
:104440002F5D3F4FA301BE016F5E7F4FC5010E94EC
:104450006716182F811127C0E9A1FAA1309719F129
:10446000838584FF25C04489558970E060E0BA01E6
:1044700055274427828D938DB0E0A0E0482B592B1F
:104480006A2B7B2BD50118964D935D936D937C938E
:104490001B97C4010E94F30FF50164877587868717
:1044A000978711821082812FA296EEE00C94163627
:1044B00012E0F9CFB0E0A0E0E0E6F2E20C94FD35C6
:1044C0008C01EB01FC01C280D380EA8DFB8D30971B
:1044D00009F01082C6010E94DA10B82E81117AC04C
:1044E0001D86912CF12CE12C2DE0A22EF8014485A3
:1044F000558566857785411551056105710509F476
:1045000069C0C6010E947311882309F477C0F801BD
:10451000608171816F70772795E0660F771F9A959C
:10452000E1F7FB01E85DFE4F2781222309F452C029
:10453000253E09F441C0615D7E4F8A8D9B8D0097B9
:1045400009F457C0FB0133853F703F3009F04DC07F
:10455000911032C02F7121502A9D202D11249924B1
:104560009394203148F5E2E8F1E030E080E0A49156
:10457000A60FB72FB11D9C91911108C0A491A60F51
:10458000B72FB11D11969C91992399F0203141F1DB
:10459000A491A60FB72FB11D9C91AA8DBB8DA20F20
:1045A000B31F9C938F5F31962F5F3F4F8D30F9F68D
:1045B00090E0E80EF11C992EC8010E947A12811138
:1045C00005C0F80114861586168617868D85882302
:1045D00009F48CCF8B2DCDB7DEB7EBE00C941936F8
:1045E00080E091E0F12CE12CE4CF8E0D9F1DFC01C9
:1045F0001082CE010E943110912CDECF88E0B82EBF
:10460000E9CFA2E3B0E0E7E0F3E20C94FC355C0113
:104610004B0161E00E94BF10811140C0BC8AAB8A8F
:10462000CE018D966C01DE019F967D018E010F5F9C
:104630001F4F9E012F5C3F4FA401BE016F5D7F4F56
:104640004C970E946716811129C0E9A9FAA93097F1
:1046500009F4AAC0238586E020FD20C089A18E32FE
:1046600009F4A2C0C488D588F12CE12C7601DD24A0
:10467000CC24828D938DB0E0A0E0C82AD92AEA2A02
:10468000FB2A24FF49C0F50186899789A08DB18D49
:104690008C159D05AE05BF0529F480E1E296ECE09E
:1046A0000C941836C98EDA8EEB8EFC8EB701A601FB
:1046B000C5010E94F30F6D8F7E8F8F8F98A382E0CC
:1046C00090E09A8B898B4D8D5E8D6F8D78A1C501A1
:1046D0000E947311811102C088E0E0CF89899A8914
:1046E0008F70992735E0880F991F3A95E1F7FC0103
:1046F000E15DFE4F885D9E4FDC0117968C9188230B
:1047000059F0853E19F0838583FFC7CFCE014196CE
:104710000E947A128111D7CF8DA59EA549966DE092
:1047200070E00E94A9357EA76DA715EE01E08DA56A
:104730009EA59C01215031093EA72DA7892B59F434
:10474000B701A601C5010E945F14882329F2C501A3
:104750000E94F715A3CF4D855E856F857889C501C9
:104760000E947311882309F4B7CF89819A818F70D1
:10477000992725E0880F991F2A95E1F79C01215D73
:104780003E4F3AAB29AB885D9E4FFC0117830093E7
:104790002C018DA59EA5892B51F2CE0101960E9478
:1047A0007A128111C4CF98CF84E078CFA6E3B0E02D
:1047B000ECEDF3E20C94F6355C014B0161E00E94F4
:1047C000BF10811144C0BC8AAB8A9E01215D3F4F5E
:1047D0006901CE018D967C018E010F5F1F4F2E5F08
:1047E0003F4FA401BE016F5D7F4F4C970E9467163B
:1047F000882309F4FEC0823051F589A18E3209F474
:10480000FAC04FA558A9BE016F5C7F4FCE014196FB
:104810000E94AB1481111BC0809128019091290145
:10482000A0912A01B0912B018BAB9CABADABBEAB81
:1048300040E050E0BA01C5010E949C136B017C016D
:1048400091E0C916D104E104F10429F488E0E69668
:10485000E2E10C941236B701A601C5010E94F30FE4
:104860002B013C0186E0411451046104710479F389
:10487000B301A201C5010E947311882339F3EFE24D
:10488000F1E080E092E0DF019C011D922150304078
:10489000E1F781E0982E9418F50190A5892D840DFB
:1048A000891708F483C04AE050E060E270E080E3DA
:1048B00091E00E94263A1EE210932F0180E180933E
:1048C0003A010E94D12C1B014C01609345013092AA
:1048D0004601809347019092480180E2EFE2F1E0C7
:1048E000AFE4B1E001900D928A95E1F71093500189
:1048F000D0924A01C0924901270166247724509240
:104900004401409243018D899E89AF89B88DF5019C
:1049100027A1233061F4468557856089718948173E
:1049200059076A077B0719F480E090E0DC01909357
:104930006A0180936901B0936401A093630181E0EF
:1049400080932C014BA95CA96DA97EA9C5010E9489
:104950007311882309F47ACF2FA538A921153105C1
:10496000C1F5E9A9FAA980E2DF011D928A95E9F76C
:10497000A9A9BAA98BE0FE01B19601900D928A9582
:10498000E1F7E9A9FAA98CA5848781E080932C013D
:1049900080E18387268A378A808E918ED38EC28E5D
:1049A000558A448AC5010E94F71551CF3FEF431A3B
:1049B000530A630A730A01E0A30192016FE271E0F6
:1049C000D5019A968C910E944F2F882309F464CFC9
:1049D0003DCF4DA55EA58E010F5D1F4FBE016F5CE3
:1049E0007F4FCE0141960E949B1A882309F4B9CFCC
:1049F0002DCF87E02CCF84E02ACFA2E3B0E0E3E024
:104A0000F5E20C94FC355C014B0160E00E94BF10A4
:104A1000811120C0BC8AAB8ACE018F966C01FE0149
:104A2000BD967F018E010F5F1F4F9E012F5C3F4F90
:104A3000A401BE016F5D7F4F4E970E9467168111E2
:104A400009C0E9A9FAA9309749F4F501168A178A2D
:104A5000108E118EE296ECE00C941836938594FF3C
:104A600015C04489558970E060E0BA015527442794
:104A7000028D138D30E020E0402B512B622B732BE5
:104A8000F501468B578B608F718FE4CF81E1E2CFC8
:104A9000ABE4B0E0EEE4F5E20C94FA355C01962E5E
:104AA000872E3A0161E00E94BF108111BFC0A8A605
:104AB000B9A6CE018A5B9F4F6C01FE01EE5BFF4FF2
:104AC0007F018E010A5E1F4F9E01265B3F4F492DDD
:104AD000582DBE016A5C7F4F80970E946716811136
:104AE000A5C02C96EEADFFAD2C9782E0309709F46F
:104AF0009DC085E13B96DE01119601900D928A954D
:104B0000E1F7CE018C5B9F4F6C019E01285B3F4F0C
:104B1000A301BE016A5C7F4F4E970E9467168823EF
:104B200009F4AFC0823009F081C08EA98E3209F439
:104B3000AAC026964EAD5FAD2697BE01685B7F4F3B
:104B4000CE0186960E94AB14811170C026962EADC0
:104B50003FAD26972115310509F056C02A962EAD96
:104B60003FAD2A9785E1FE013196D9011B96019050
:104B70000D928A95E1F78BE0FE01F696D90101903E
:104B80000D928A95E1F72A96EEADFFAD2A9722960F
:104B90008FAD2297848781E080932C01CE018A5BC0
:104BA0009F4F6C01FE01EE5BFF4F7F018E010A5E9D
:104BB0001F4F9E01265B3F4F492D582DBE016A5C59
:104BC0007F4F80970E94671628968EAD9FAD2897DD
:104BD00049966DE070E00E94A93528967FAF6EAFD0
:104BE000289715EE01E028968EAD9FAD28979C0181
:104BF0002150310928963FAF2EAF2897892BD9F441
:104C0000C5010E94F71512C024964EAD5FAD2497E2
:104C10008E010A5C1F4FBE01685B7F4FCE018696F6
:104C20000E949B1A882309F499CF88E0C55BDF4F67
:104C3000EEE00C9416364AA15BA16CA17DA1C501E2
:104C40000E947311882389F32E893F892F7033279F
:104C500085E0220F331F8A95E1F7C901815D9E4FE0
:104C60002C969FAF8EAF2C97285D3E4FF90117838E
:104C700000932C01CE0146960E947A128111B3CF87
:104C8000D4CF87E0D3CF84E0D1CF5B98539A000094
:104C9000000008954A9904C04B99FCCF80E0089524
:104CA0008FEF089589B18470089587B1807F87B9A7
:104CB00088B18F6088B98AE08A95F1F700C00895BD
:104CC00053985B9A4B9902C04A9BFCCF0895F8DF3A
:104CD000ECDF52985A9A8AE08A95F1F700C008955D
:104CE000D9DF811101C0D1DF80E008951F93CF93F8
:104CF000DF93EC018881811110C0C7DF16B1E0DFBE
:104D00004A990FC04B99FCCFC0DF86B18295807F56
:104D10001F70812B888380E005C0D2DFBBDF882332
:104D200061F38FEFDF91CF911F910895CF93DF93C0
:104D3000C82F5A98529AC4DF8AE28A95F1F700C0C8
:104D400098B12C2F2F70907F922B98B988B1807FCB
:104D5000DFE02D27822B87B998DF8AE28A95F1F769
:104D600000C0AEDF8AE28A95F1F700C088B1C29533
:104D7000CF70807F8C2B88B988B1807FCD27C82BDE
:104D8000C7B983DF8AE28A95F1F700C080E0DF913E
:104D9000CF910895CF93C92FC9DF811102C08C2F05
:104DA000C5DFCF9108950F931F93CF93DF938C01AD
:104DB000D62FC72F4A990AC084E090E0EBDFC801E4
:104DC000E9DF8D2F9C2FE6DF80E0B0DF80DFDF9111
:104DD000CF911F910F910895CF93C82F4A9905C085
:104DE00090E080E0D7DF8C2FA1DF71DFCF910895B5
:104DF00052985A9A53985B9A87B1807F87B988B145
:104E00008F6088B908954F925F926F927F92AF92B0
:104E1000BF92DF92EF92FF920F931F93CF93DF9396
:104E200000D000D000D0CDB7DEB75C018B01D42E0E
:104E30007901D9011D921D921D921C921397E0E0F9
:104E400090E0D8018C91E81708F040C0D5012D9171
:104E50003C91D901AE0FB11DFC91F03239F481E0E3
:104E60008E0F992371F1E82F80E033C080ED8F0F12
:104E70008A3048F59D1508F04EC0D7012D913D911F
:104E80004D915C91AAE0B0E00E94EC3569837A8391
:104E90008B839C832F2F2053330BC901092E000CC9
:104EA000AA0BBB0B49805A806B807C80480E591E30
:104EB0006A1E7B1ED7014D925D926D927C92139774
:104EC00091E0EF5FBECFFC3231F5EF5F80E09923D8
:104ED00021F181110CC0D5012D913C9111972E0F1C
:104EE000311D2D933C93D8019C919E1B9C9326963B
:104EF0000FB6F894DEBF0FBECDBFDF91CF911F91EB
:104F00000F91FF90EF90DF90BF90AF907F906F90E8
:104F10005F904F90089581E0DACF81E090E0D9CFA3
:104F2000FF920F931F93CF93DF93EC018C01060F39
:104F3000171FFF24F394C017D10731F480E0CDB7D9
:104F4000DEB7E5E00C941F36CE01F992CFDE882360
:104F500091F380E1F4CFA1E0B0E0E1EBF7E20C9453
:104F600000367C01162FD12CC12C01E0CE14DF04B9
:104F700019F4812F31DF07C00983CE010196B6DE17
:104F8000882329F09DDE2196E8E00C941C368FEFF3
:104F9000C81AD80AEBCF6DE0FC0187819085DBCF82
:104FA00008958EDE7FDE8823E9F30895EF92FF9265
:104FB0000F931F93CF93C62F7A018901FC0187813C
:104FC00090858F3F910549F040F0C5DF8C2FCF9140
:104FD0001F910F91FF90EF900895BC018FE296E032
:104FE0009FDFC82F811111C08091300690E0982F6B
:104FF000882720912F06820F911DF70191838083CE
:1050000080913106F8018083E1CF5ADECBE1DECF1B
:10501000CF93DF93DC01FB01CD91DC911197888167
:10502000803239F0808181110CC01882DF91CF91DC
:10503000089521961196DC93CE93808181508083D0
:10504000EBCF815090E04D915C91119720810097BA
:1050500029F4FA01E20FF11D1082E8CFEA01C80F2E
:10506000D91F388101973032A1F721502083EBCF2F
:10507000EF92FF920F931F93CF93DF937C01EB018D
:105080008A01BA01CE01C4DFF701849120E090E0EB
:1050900069E08823F9F0492F50E0FA013196269F04
:1050A000E00DF11D1124EE0DFF1DE491D8013C919E
:1050B000E11115C0A881B981A40FB51F931721F084
:1050C0003C913032B9F4392FB983A883F80190812B
:1050D000931B9083CDB7DEB7E6E00C941E36931396
:1050E00009C02F5FF701269FE00DF11D1124849167
:1050F00090E0CFCFA881B981A40FB51F3C91432F79
:1051000050E031543A3110F4405E5F4F9F5FE41736
:10511000150639F7BECFA1E0B0E0E1E9F8E20C9462
:10512000FA35082F692E7B016A01BA01C70170DFC9
:105130001982F60170801981171510F000E024C063
:10514000F701A080B180812E912CF501E80DF91DA9
:1051500080818D33F1F4AE014F5F5F4FB701802F37
:10516000962D86DF082F882379F0FFEF8F1A9F0A8C
:10517000A80CB91CF701B182A0821095710EF6013E
:105180007082B601C70144DF802F2196EEE00C94B7
:1051900016361F5F1983CFCFB0E0A0E0E2EDF8E252
:1051A0000C9400366C01FB01BA01D9011C921081EC
:1051B00090E080E0082F8117C0F4E6012881398152
:1051C000AC014F5F5F4F7901E80EF91EE701F880EF
:1051D000DCE2FD120FC0240F351FEB013983288359
:1051E00090819150901B9C938083CDB7DEB7E8E00F
:1051F0000C941C36CA01DECF611104C070E060E07F
:10520000D2CD0895862FE8CD0895A7E0B0E0EBE079
:10521000F9E20C9403369E838D836F838A01198291
:105220001A821B821C82AE01495F5F4FBE016B5F19
:105230007F4F8CEA91E01CDFF82E882381F0BE01BD
:10524000695F7F4FCE010596E3DE82E0F81207C06A
:105250000E94D70F80E02796E5E00C941F36AE0140
:10526000495F5F4FBE016B5F7F4F8CEA91E053DF78
:105270008130D1F50115110511F482E2ECCF9E01C8
:105280002F5F3F4F43E0BE01695F7F4FCE01059620
:10529000BADD81112BC049815A816B817C814F3FDE
:1052A00051056105710509F008F5A0913007E0E3AB
:1052B000F7E030E020E0942F2A17F8F6B1819B1731
:1052C00078F0B381B91760F095E0929FF001939F59
:1052D000F00D1124E05DF84F4283F8014083BBCF0D
:1052E0002F5F3F4F3596E8CF81E0B5CF80E1B3CF58
:1052F000A6E0B0E0EEE7F9E20C940436142F052F97
:105300009A8389836B8389819A819D838C838B8126
:105310008E839E012D5F3F4FAE014F5F5F4FBE01F9
:105320006A5F7F4FCE01049637DF412F502F6E8189
:105330008C819D816ADF811103C08B818111E3CF54
:105340002696E4E00C9420368F3F910528F4BC01AA
:105350008FE296E0E5CD089568E0FDDD88E00895F0
:10536000A3E0B0E0E6EBF9E20C9404368B01FC011B
:10537000878190858B839927E7DF811110C08FE2A9
:1053800096E09A838983BE016D5F7F4FCE010196BF
:105390003FDEA8016B8189819A81AADF1DDD2396FA
:1053A000E4E00C94203680E017CD08950F931F930E
:1053B000CF93DF938CE190E0EDDC10E1811101C02F
:1053C00010E0CFE8D1E00C2F045E111102C00C13E5
:1053D00008C0812FABDC7BDCDF91CF911F910F9157
:1053E0000895FE018491A2DC811110E12196EDCF98
:1053F000882331F080912F07826080932F070895D2
:1054000080912F078D7FF9CF80912F0708950E94FB
:10541000830E81D20E94FB320E94D60758DC42DC08
:105420008823E9F3089511D178940E94A20FA2D3A2
:10543000DFDC579A0E94FD3429ED31E040E060E066
:1054400080E08BD20E9408080E94B80E0E942E3382
:1054500078D252980895CDB7DEB72997DEBFCDBF79
:10546000E2DF0E94770FE82E1A821B821D821C82C7
:105470001F821E8219861886D12C85E0C82E93E0E3
:10548000B92E2EEFA22E80E0B3DF0CDC182F811195
:1054900009C026DC81E0ACDFF12C04DC082F882376
:1054A00079F1F1CF81E0E81681F30E942733882358
:1054B00039F00E9430358111E8CF80E093D0E5CFFC
:1054C00039D28111F6CF81E0F9CF81E090E08C0FE5
:1054D0009D1F810F911DFC01108308DC982E809187
:1054E00043048D1541F0809143048150990B02973C
:1054F00010F40E94B80ED0904304911018C01F5FA2
:10550000193019F7F11014C0609130078981E0E378
:10551000F7E09F0190E0691759F02B5F3F4FD901E9
:1055200013974C91481709F435C09F5FF4CFC8DB3F
:10553000C7DBB8DB8823E9F310E024C0A90192811E
:105540002F5F3F4F359689132DC0C49EF001C59E35
:10555000F00D1124E05DF84F248135818A81F90135
:10556000FB9CE00DF11D11249491F3949A3A61F0A3
:105570009813F5CF319625913491CE010196F9011A
:10558000099501E0F02E89CF8A3AA1F3CE01019668
:1055900002DDF7CF811104C09A819F3F09F0AA82F2
:1055A00030E020E0261750F2CE010196FADCE9CF78
:1055B0008F938FB78F93EF93FF9383B78E7F83BFC4
:1055C000E898E4E6F0E080818B7F808380818F7DA6
:1055D000808380818F7B8083FF91EF918F918FBF3C
:1055E0008F911895813049F1823059F1811112C0A3
:1055F0008091640084608093640080916400806284
:10560000809364008091640080648093640083B719
:10561000817F83BFF89480916900826080936900E4
:10562000E89A83B7816083BF85B7806685BF8F7D29
:1056300085BF78945F988895089583B7817F8C6043
:10564000E8CF83B7817F8460E4CFE4E6F0E0808137
:10565000816080838081806880838081886080838E
:10566000089580911706882331F090912C069A5066
:1056700081E09A3008F080E008951092310327DB32
:1056800011DB8823E9F30895FC0182818F3F11F437
:105690008DCE089585E1A0CB0895A9E0B0E0E3E5C3
:1056A000FBE20C940036042FD52E79019C838B836A
:1056B0006E83CC24C3948B819C8198878F838E8149
:1056C00089879E012A5F3F4FAE014D5F5F4FBE014C
:1056D000675F7F4FCE0107965FDD89852F81388513
:1056E0003A8329838D83BE016B5F7F4FCE01019684
:1056F0008FDCAE014B5F5F4FBE016F5F7F4F84EF6A
:1057000091E009DD182F8823C9F1BE016B5F7F4F3F
:10571000CE0101967DDCE981FA811130E1F0133090
:1057200069F52081822F90E021542A3108F4809677
:105730008C36910561F044F4C097029740F080E107
:105740002996E8E00C941C368E369105C1F78E81BF
:105750008111B1CFF5CF2081822F90E021542A31E1
:1057600008F480968C36910531F08E36910539F724
:10577000F7011082ECCFF701C082E9CF402F5D2DF9
:105780006D8189819A8141DD882309F3D9CFFC019C
:1057900082818F3F11F407CE0895809131038111EA
:1057A00005C084E01092310317CB089580E0FACF52
:1057B000A6E0B0E0EEEDFBE20C9404368C011C8216
:1057C0001B821D829E012B5F3F4FAE014D5F5F4FDD
:1057D00068E0ECDB811120C0F801878183508E8363
:1057E00082E396E09A838983BE016A5F7F4FCE0190
:1057F00001960EDCF80182818F3F91F46E81662361
:1058000041F02DE236E04CE256E089819A8145DF95
:10581000682F8FEF90E0F0DC2696E4E00C942036C1
:105820008091310365E0811122C08D8161E0803873
:10583000F1F480912D0680932F0380912E068093A2
:1058400030036E81662341F02FE233E050E040E008
:1058500089819A8122DF682F81E0809331038B81D7
:105860009C81009711F48FEF90E09C838B838B8158
:105870009C81D1CFFF920F931F93CF93DF938C0125
:10588000FC01C781D08582818F3F79F4CE015CDD38
:10589000811134C02DE236E04CE256E0F801678118
:1058A0008FE296E0FADE98DA29C080913103811107
:1058B0002AC084E02097B9F31EC08E01CF3FD105E6
:1058C00019F010F00FEF10E0B8018FE296E028DB3E
:1058D00081110BC090913103992339F090E09F5FC3
:1058E00090171106E0F3FF24F394C01BD10B20970F
:1058F00069F0882311F3682FCE012DDBCDB7DEB719
:10590000E5E00C941F3680E0F12CF1CFFF2059F236
:1059100090913103C8CF109231030895A2DE6091B7
:105920002C06811101C06CE022EE31E043E18AE0F7
:1059300014C008959091310381E0911101C080E07D
:10594000089510923103EADF8CDE811105C081E0F9
:1059500080932D0680932E060895E0913007A0E3F2
:10596000B7E090E0E91310C091E09E0F90933007EC
:1059700095E0E99FF0011124E05DF84F8183628397
:10598000438324833583089511965C9111975813AE
:1059900005C013965C9113975417A9F39F5F159652
:1059A000E1CFABE0B0E0E7EDFCE20C940436CE01D1
:1059B00001960E94D00E2C818B8190E0B0E0A0E097
:1059C0003BE0880F991FAA1FBB1F3A95D1F7A22B66
:1059D0004A8150E070E060E0E5E0440F551F661F2B
:1059E000771FEA95D1F7842B952BA62BB72B29810E
:1059F0002695822B4E8150E070E060E040555109C1
:105A000061097109F9E1440F551F661F771FFA9567
:105A1000D1F7842B952BA62BB72B4D8150E070E04E
:105A200060E04F5F5F4F6F4F7F4F15E1440F551F91
:105A3000661F771F1A95D1F78C019D01042B152B3A
:105A4000262B372BC901B8012B96E4E00C942036A5
:105A5000982F92959F708F702AE0929F800D11244D
:105A600008956AE00E949D358295807F890F089590
:105A70008091590708959627092E0294602D6F7022
:105A80006927292F2025220F207E6227202D2927F4
:105A9000207F2695092E000C221F969596959695A7
:105AA0009F7192279827862F08952FB7F894809199
:105AB0005A0790915B072FBF08952A9A41D740D784
:105AC0003FC70895A4E0B0E0E8E6FDE20C94FC35A1
:105AD000E82EB42EA52E962E872E682F80E00E94E9
